{
  "_format": "hh-sol-artifact-1",
  "contractName": "ApeSwapPool",
  "sourceName": "contracts/ApeSwapPool.sol",
  "abi": [
    {
      "inputs": [
        {
          "internalType": "address",
          "name": "apeLP_",
          "type": "address"
        },
        {
          "internalType": "address",
          "name": "zoinks_",
          "type": "address"
        },
        {
          "internalType": "address",
          "name": "poolRewardDistributor_",
          "type": "address"
        },
        {
          "internalType": "address",
          "name": "seniorage_",
          "type": "address"
        }
      ],
      "stateMutability": "nonpayable",
      "type": "constructor"
    },
    {
      "anonymous": false,
      "inputs": [
        {
          "indexed": false,
          "internalType": "address",
          "name": "account",
          "type": "address"
        }
      ],
      "name": "Paused",
      "type": "event"
    },
    {
      "anonymous": false,
      "inputs": [
        {
          "indexed": true,
          "internalType": "address",
          "name": "poolRewardDistributor",
          "type": "address"
        }
      ],
      "name": "PoolRewardDistributorUpdated",
      "type": "event"
    },
    {
      "anonymous": false,
      "inputs": [
        {
          "indexed": false,
          "internalType": "uint256",
          "name": "reward",
          "type": "uint256"
        }
      ],
      "name": "RewardAdded",
      "type": "event"
    },
    {
      "anonymous": false,
      "inputs": [
        {
          "indexed": true,
          "internalType": "address",
          "name": "user",
          "type": "address"
        },
        {
          "indexed": false,
          "internalType": "uint256",
          "name": "reward",
          "type": "uint256"
        }
      ],
      "name": "RewardPaid",
      "type": "event"
    },
    {
      "anonymous": false,
      "inputs": [
        {
          "indexed": false,
          "internalType": "uint256",
          "name": "newDuration",
          "type": "uint256"
        }
      ],
      "name": "RewardsDurationUpdated",
      "type": "event"
    },
    {
      "anonymous": false,
      "inputs": [
        {
          "indexed": true,
          "internalType": "bytes32",
          "name": "role",
          "type": "bytes32"
        },
        {
          "indexed": true,
          "internalType": "bytes32",
          "name": "previousAdminRole",
          "type": "bytes32"
        },
        {
          "indexed": true,
          "internalType": "bytes32",
          "name": "newAdminRole",
          "type": "bytes32"
        }
      ],
      "name": "RoleAdminChanged",
      "type": "event"
    },
    {
      "anonymous": false,
      "inputs": [
        {
          "indexed": true,
          "internalType": "bytes32",
          "name": "role",
          "type": "bytes32"
        },
        {
          "indexed": true,
          "internalType": "address",
          "name": "account",
          "type": "address"
        },
        {
          "indexed": true,
          "internalType": "address",
          "name": "sender",
          "type": "address"
        }
      ],
      "name": "RoleGranted",
      "type": "event"
    },
    {
      "anonymous": false,
      "inputs": [
        {
          "indexed": true,
          "internalType": "bytes32",
          "name": "role",
          "type": "bytes32"
        },
        {
          "indexed": true,
          "internalType": "address",
          "name": "account",
          "type": "address"
        },
        {
          "indexed": true,
          "internalType": "address",
          "name": "sender",
          "type": "address"
        }
      ],
      "name": "RoleRevoked",
      "type": "event"
    },
    {
      "anonymous": false,
      "inputs": [
        {
          "indexed": true,
          "internalType": "address",
          "name": "seniorage",
          "type": "address"
        }
      ],
      "name": "SeniorageUpdated",
      "type": "event"
    },
    {
      "anonymous": false,
      "inputs": [
        {
          "indexed": true,
          "internalType": "address",
          "name": "user",
          "type": "address"
        },
        {
          "indexed": false,
          "internalType": "uint256",
          "name": "amount",
          "type": "uint256"
        }
      ],
      "name": "Staked",
      "type": "event"
    },
    {
      "anonymous": false,
      "inputs": [
        {
          "indexed": false,
          "internalType": "address",
          "name": "account",
          "type": "address"
        }
      ],
      "name": "Unpaused",
      "type": "event"
    },
    {
      "anonymous": false,
      "inputs": [
        {
          "indexed": true,
          "internalType": "address",
          "name": "user",
          "type": "address"
        },
        {
          "indexed": false,
          "internalType": "uint256",
          "name": "amount",
          "type": "uint256"
        }
      ],
      "name": "Withdrawn",
      "type": "event"
    },
    {
      "inputs": [],
      "name": "AUTHORITY_ROLE",
      "outputs": [
        {
          "internalType": "bytes32",
          "name": "",
          "type": "bytes32"
        }
      ],
      "stateMutability": "view",
      "type": "function"
    },
    {
      "inputs": [],
      "name": "DEFAULT_ADMIN_ROLE",
      "outputs": [
        {
          "internalType": "bytes32",
          "name": "",
          "type": "bytes32"
        }
      ],
      "stateMutability": "view",
      "type": "function"
    },
    {
      "inputs": [],
      "name": "PAUSER_ROLE",
      "outputs": [
        {
          "internalType": "bytes32",
          "name": "",
          "type": "bytes32"
        }
      ],
      "stateMutability": "view",
      "type": "function"
    },
    {
      "inputs": [
        {
          "internalType": "address",
          "name": "",
          "type": "address"
        }
      ],
      "name": "balances",
      "outputs": [
        {
          "internalType": "uint256",
          "name": "",
          "type": "uint256"
        }
      ],
      "stateMutability": "view",
      "type": "function"
    },
    {
      "inputs": [
        {
          "internalType": "address",
          "name": "user_",
          "type": "address"
        }
      ],
      "name": "earned",
      "outputs": [
        {
          "internalType": "uint256",
          "name": "",
          "type": "uint256"
        }
      ],
      "stateMutability": "view",
      "type": "function"
    },
    {
      "inputs": [],
      "name": "exit",
      "outputs": [],
      "stateMutability": "nonpayable",
      "type": "function"
    },
    {
      "inputs": [],
      "name": "getReward",
      "outputs": [],
      "stateMutability": "nonpayable",
      "type": "function"
    },
    {
      "inputs": [],
      "name": "getRewardForDuration",
      "outputs": [
        {
          "internalType": "uint256",
          "name": "",
          "type": "uint256"
        }
      ],
      "stateMutability": "view",
      "type": "function"
    },
    {
      "inputs": [
        {
          "internalType": "bytes32",
          "name": "role",
          "type": "bytes32"
        }
      ],
      "name": "getRoleAdmin",
      "outputs": [
        {
          "internalType": "bytes32",
          "name": "",
          "type": "bytes32"
        }
      ],
      "stateMutability": "view",
      "type": "function"
    },
    {
      "inputs": [
        {
          "internalType": "bytes32",
          "name": "role",
          "type": "bytes32"
        },
        {
          "internalType": "address",
          "name": "account",
          "type": "address"
        }
      ],
      "name": "grantRole",
      "outputs": [],
      "stateMutability": "nonpayable",
      "type": "function"
    },
    {
      "inputs": [
        {
          "internalType": "bytes32",
          "name": "role",
          "type": "bytes32"
        },
        {
          "internalType": "address",
          "name": "account",
          "type": "address"
        }
      ],
      "name": "hasRole",
      "outputs": [
        {
          "internalType": "bool",
          "name": "",
          "type": "bool"
        }
      ],
      "stateMutability": "view",
      "type": "function"
    },
    {
      "inputs": [],
      "name": "lastTimeRewardApplicable",
      "outputs": [
        {
          "internalType": "uint256",
          "name": "",
          "type": "uint256"
        }
      ],
      "stateMutability": "view",
      "type": "function"
    },
    {
      "inputs": [],
      "name": "lastUpdateTime",
      "outputs": [
        {
          "internalType": "uint256",
          "name": "",
          "type": "uint256"
        }
      ],
      "stateMutability": "view",
      "type": "function"
    },
    {
      "inputs": [
        {
          "internalType": "uint256",
          "name": "reward_",
          "type": "uint256"
        }
      ],
      "name": "notifyRewardAmount",
      "outputs": [],
      "stateMutability": "nonpayable",
      "type": "function"
    },
    {
      "inputs": [],
      "name": "pause",
      "outputs": [],
      "stateMutability": "nonpayable",
      "type": "function"
    },
    {
      "inputs": [],
      "name": "paused",
      "outputs": [
        {
          "internalType": "bool",
          "name": "",
          "type": "bool"
        }
      ],
      "stateMutability": "view",
      "type": "function"
    },
    {
      "inputs": [],
      "name": "periodFinish",
      "outputs": [
        {
          "internalType": "uint256",
          "name": "",
          "type": "uint256"
        }
      ],
      "stateMutability": "view",
      "type": "function"
    },
    {
      "inputs": [],
      "name": "poolRewardDistributor",
      "outputs": [
        {
          "internalType": "address",
          "name": "",
          "type": "address"
        }
      ],
      "stateMutability": "view",
      "type": "function"
    },
    {
      "inputs": [
        {
          "internalType": "bytes32",
          "name": "role",
          "type": "bytes32"
        },
        {
          "internalType": "address",
          "name": "account",
          "type": "address"
        }
      ],
      "name": "renounceRole",
      "outputs": [],
      "stateMutability": "nonpayable",
      "type": "function"
    },
    {
      "inputs": [
        {
          "internalType": "bytes32",
          "name": "role",
          "type": "bytes32"
        },
        {
          "internalType": "address",
          "name": "account",
          "type": "address"
        }
      ],
      "name": "revokeRole",
      "outputs": [],
      "stateMutability": "nonpayable",
      "type": "function"
    },
    {
      "inputs": [],
      "name": "rewardPerToken",
      "outputs": [
        {
          "internalType": "uint256",
          "name": "",
          "type": "uint256"
        }
      ],
      "stateMutability": "view",
      "type": "function"
    },
    {
      "inputs": [],
      "name": "rewardPerTokenStored",
      "outputs": [
        {
          "internalType": "uint256",
          "name": "",
          "type": "uint256"
        }
      ],
      "stateMutability": "view",
      "type": "function"
    },
    {
      "inputs": [],
      "name": "rewardRate",
      "outputs": [
        {
          "internalType": "uint256",
          "name": "",
          "type": "uint256"
        }
      ],
      "stateMutability": "view",
      "type": "function"
    },
    {
      "inputs": [],
      "name": "rewardToken",
      "outputs": [
        {
          "internalType": "address",
          "name": "",
          "type": "address"
        }
      ],
      "stateMutability": "view",
      "type": "function"
    },
    {
      "inputs": [
        {
          "internalType": "address",
          "name": "",
          "type": "address"
        }
      ],
      "name": "rewards",
      "outputs": [
        {
          "internalType": "uint256",
          "name": "",
          "type": "uint256"
        }
      ],
      "stateMutability": "view",
      "type": "function"
    },
    {
      "inputs": [],
      "name": "rewardsDuration",
      "outputs": [
        {
          "internalType": "uint256",
          "name": "",
          "type": "uint256"
        }
      ],
      "stateMutability": "view",
      "type": "function"
    },
    {
      "inputs": [],
      "name": "seniorage",
      "outputs": [
        {
          "internalType": "address",
          "name": "",
          "type": "address"
        }
      ],
      "stateMutability": "view",
      "type": "function"
    },
    {
      "inputs": [
        {
          "internalType": "address",
          "name": "poolRewardDistributor_",
          "type": "address"
        }
      ],
      "name": "setPoolRewardDistributor",
      "outputs": [],
      "stateMutability": "nonpayable",
      "type": "function"
    },
    {
      "inputs": [
        {
          "internalType": "uint256",
          "name": "rewardsDuration_",
          "type": "uint256"
        }
      ],
      "name": "setRewardsDuration",
      "outputs": [],
      "stateMutability": "nonpayable",
      "type": "function"
    },
    {
      "inputs": [
        {
          "internalType": "address",
          "name": "seniorage_",
          "type": "address"
        }
      ],
      "name": "setSeniorage",
      "outputs": [],
      "stateMutability": "nonpayable",
      "type": "function"
    },
    {
      "inputs": [
        {
          "internalType": "uint256",
          "name": "amount_",
          "type": "uint256"
        }
      ],
      "name": "stake",
      "outputs": [],
      "stateMutability": "nonpayable",
      "type": "function"
    },
    {
      "inputs": [],
      "name": "stakingToken",
      "outputs": [
        {
          "internalType": "address",
          "name": "",
          "type": "address"
        }
      ],
      "stateMutability": "view",
      "type": "function"
    },
    {
      "inputs": [
        {
          "internalType": "bytes4",
          "name": "interfaceId",
          "type": "bytes4"
        }
      ],
      "name": "supportsInterface",
      "outputs": [
        {
          "internalType": "bool",
          "name": "",
          "type": "bool"
        }
      ],
      "stateMutability": "view",
      "type": "function"
    },
    {
      "inputs": [],
      "name": "totalSupply",
      "outputs": [
        {
          "internalType": "uint256",
          "name": "",
          "type": "uint256"
        }
      ],
      "stateMutability": "view",
      "type": "function"
    },
    {
      "inputs": [],
      "name": "unpause",
      "outputs": [],
      "stateMutability": "nonpayable",
      "type": "function"
    },
    {
      "inputs": [
        {
          "internalType": "address",
          "name": "",
          "type": "address"
        }
      ],
      "name": "userLastDepositTime",
      "outputs": [
        {
          "internalType": "uint256",
          "name": "",
          "type": "uint256"
        }
      ],
      "stateMutability": "view",
      "type": "function"
    },
    {
      "inputs": [
        {
          "internalType": "address",
          "name": "",
          "type": "address"
        }
      ],
      "name": "userRewardPerTokenPaid",
      "outputs": [
        {
          "internalType": "uint256",
          "name": "",
          "type": "uint256"
        }
      ],
      "stateMutability": "view",
      "type": "function"
    },
    {
      "inputs": [
        {
          "internalType": "uint256",
          "name": "amount_",
          "type": "uint256"
        }
      ],
      "name": "withdraw",
      "outputs": [],
      "stateMutability": "nonpayable",
      "type": "function"
    }
  ],
  "bytecode": "0x60c060405261a8c06003553480156200001757600080fd5b5060405162001cdf38038062001cdf8339810160408190526200003a9162000171565b6000805460ff191681558490849084908490620000589033620000cb565b620000847f65d7a28e3265b37a6474929f336521b332c1681b933f6cb9f3376673440d862a33620000cb565b60016002556001600160a01b0393841660805291831660a052600980549184166001600160a01b0319928316179055600a805492909316911617905550620001ce92505050565b60008281526001602090815260408083206001600160a01b038516845290915290205460ff16620001505760008281526001602081815260408084206001600160a01b0386168086529252808420805460ff19169093179092559051339285917f2f8788117e7eff1d82e926ec794901d17c78024a50270940304540a733656f0d9190a45b5050565b80516001600160a01b03811681146200016c57600080fd5b919050565b600080600080608085870312156200018857600080fd5b620001938562000154565b9350620001a36020860162000154565b9250620001b36040860162000154565b9150620001c36060860162000154565b905092959194509250565b60805160a051611ac8620002176000396000818161051c01528181610a760152610c41015260008181610403015281816107b9015281816107fa0152610e7d0152611ac86000f3fe608060405234801561001057600080fd5b50600436106102315760003560e01c8063665714a911610130578063c6354391116100b8578063df136d651161007c578063df136d65146104d6578063e63ab1e9146104df578063e9fad8ee14610506578063ebe2b12b1461050e578063f7c618c11461051757600080fd5b8063c63543911461048c578063c8f33c911461049f578063cc1a378f146104a8578063cd3daf9d146104bb578063d547741f146104c357600080fd5b80638456cb59116100ff5780638456cb59146104365780638b8763471461043e57806391d148541461045e578063a217fddf14610471578063a694fc3a1461047957600080fd5b8063665714a9146103de57806372f702f3146103fe5780637b0a47ee1461042557806380faa57d1461042e57600080fd5b80632e1a7d4d116101be5780633d18b912116101825780633d18b912146103895780633f4ba83a146103915780634a3fba0e146103995780635c064139146103c05780635c975abb146103d357600080fd5b80632e1a7d4d146103345780632f2ff15d1461034757806336568abe1461035a578063386a95251461036d5780633c6b16ab1461037657600080fd5b806318160ddd1161020557806318160ddd146102ca5780631c1f78eb146102d3578063219e272b146102db578063248a9ca3146102f057806327e235e31461031457600080fd5b80628cc2621461023657806301ffc9a71461025c5780630700037d1461027f5780631343575a1461029f575b600080fd5b610249610244366004611814565b61053e565b6040519081526020015b60405180910390f35b61026f61026a36600461182f565b6105bb565b6040519015158152602001610253565b61024961028d366004611814565b600e6020526000908152604090205481565b6009546102b2906001600160a01b031681565b6040516001600160a01b039091168152602001610253565b61024960045481565b6102496105f0565b6102ee6102e9366004611814565b610607565b005b6102496102fe366004611859565b6000908152600160208190526040909120015490565b610249610322366004611814565b600b6020526000908152604090205481565b6102ee610342366004611859565b61065d565b6102ee610355366004611872565b61086e565b6102ee610368366004611872565b610899565b61024960035481565b6102ee610384366004611859565b610917565b6102ee610baa565b6102ee610cb4565b6102497fd565e3fc066df348a5cbc05a8d6323e00552838041cea2d84cc59876ba37735d81565b600a546102b2906001600160a01b031681565b60005460ff1661026f565b6102496103ec366004611814565b600c6020526000908152604090205481565b6102b27f000000000000000000000000000000000000000000000000000000000000000081565b61024960085481565b610249610ce6565b6102ee610cfd565b61024961044c366004611814565b600d6020526000908152604090205481565b61026f61046c366004611872565b610d2f565b610249600081565b6102ee610487366004611859565b610d5a565b6102ee61049a366004611814565b610edf565b61024960065481565b6102ee6104b6366004611859565b610f35565b610249610fe6565b6102ee6104d1366004611872565b611047565b61024960055481565b6102497f65d7a28e3265b37a6474929f336521b332c1681b933f6cb9f3376673440d862a81565b6102ee61106d565b61024960075481565b6102b27f000000000000000000000000000000000000000000000000000000000000000081565b6001600160a01b0381166000908152600e6020908152604080832054600d909252822054670de0b6b3a764000090610574610fe6565b61057e91906118b4565b6001600160a01b0385166000908152600b60205260409020546105a191906118cb565b6105ab91906118ea565b6105b5919061190c565b92915050565b60006001600160e01b03198216637965db0b60e01b14806105b557506301ffc9a760e01b6001600160e01b03198316146105b5565b600060035460085461060291906118cb565b905090565b600061061281611096565b600980546001600160a01b0319166001600160a01b0384169081179091556040517f5064075462c42cb8990606a17f9e34f618170138c4bd1ba9dc4e7cf9fe750ae690600090a25050565b6106656110a0565b61066d6110e6565b33610676610fe6565b600555610681610ce6565b6006556001600160a01b038116156106c85761069c8161053e565b6001600160a01b0382166000908152600e6020908152604080832093909355600554600d909152919020555b600082116107295760405162461bcd60e51b8152602060048201526024808201527f53696e676c65526577617264506f6f6c3a2063616e206e6f74207769746864726044820152630617720360e41b60648201526084015b60405180910390fd5b816004600082825461073b91906118b4565b9091555050336000908152600b60205260408120805484929061075f9084906118b4565b9091555050336000908152600c6020526040812054610781906201518061190c565b42101561079a576107936002846118ea565b90506107a8565b6107a5600a846118ea565b90505b600a546107e2906001600160a01b037f0000000000000000000000000000000000000000000000000000000000000000811691168361113d565b610821336107f083866118b4565b6001600160a01b037f000000000000000000000000000000000000000000000000000000000000000016919061113d565b337f7084f5476618d8e60b11ef0d7d3f06914655adb8793e28ff7f018d4c76d505d561084d83866118b4565b6040519081526020015b60405180910390a2505061086b6001600255565b50565b6000828152600160208190526040909120015461088a81611096565b61089483836111a0565b505050565b6001600160a01b03811633146109095760405162461bcd60e51b815260206004820152602f60248201527f416363657373436f6e74726f6c3a2063616e206f6e6c792072656e6f756e636560448201526e103937b632b9903337b91039b2b63360891b6064820152608401610720565b610913828261120b565b5050565b6009546001600160a01b031633146109a25760405162461bcd60e51b815260206004820152604260248201527f53696e676c65526577617264506f6f6c3a2063616c6c6572206973206e6f742060448201527f74686520506f6f6c5265776172644469737472696275746f7220636f6e74726160648201526118dd60f21b608482015260a401610720565b60006109ac610fe6565b6005556109b7610ce6565b6006556001600160a01b038116156109fe576109d28161053e565b6001600160a01b0382166000908152600e6020908152604080832093909355600554600d909152919020555b6007544210610a1c57600354610a1490836118ea565b600855610a5e565b600042600754610a2c91906118b4565b9050600060085482610a3e91906118cb565b600354909150610a4e828661190c565b610a5891906118ea565b60085550505b6040516370a0823160e01b81523060048201526000907f00000000000000000000000000000000000000000000000000000000000000006001600160a01b0316906370a0823190602401602060405180830381865afa158015610ac5573d6000803e3d6000fd5b505050506040513d601f19601f82011682018060405250810190610ae99190611924565b905060035481610af991906118ea565b6008541115610b5d5760405162461bcd60e51b815260206004820152602a60248201527f53696e676c65526577617264506f6f6c3a2070726f76696465642072657761726044820152690c840e8dede40d0d2ced60b31b6064820152608401610720565b426006819055600354610b6f9161190c565b6007556040518381527fde88a922e0d3b88b24e9623efeb464919c6bf9f66857a65e2bfcf2ce87a9433d9060200160405180910390a1505050565b610bb26110a0565b610bba6110e6565b33610bc3610fe6565b600555610bce610ce6565b6006556001600160a01b03811615610c1557610be98161053e565b6001600160a01b0382166000908152600e6020908152604080832093909355600554600d909152919020555b336000908152600e60205260409020548015610ca657336000818152600e6020526040812055610c70907f00000000000000000000000000000000000000000000000000000000000000006001600160a01b0316908361113d565b60405181815233907fe2403640ba68fed3a2f88b7557551d1993f84b99bb10ff833f0cf8db0c5e04869060200160405180910390a25b5050610cb26001600255565b565b7f65d7a28e3265b37a6474929f336521b332c1681b933f6cb9f3376673440d862a610cde81611096565b61086b611272565b60006007544210610cf8575060075490565b504290565b7f65d7a28e3265b37a6474929f336521b332c1681b933f6cb9f3376673440d862a610d2781611096565b61086b6112c4565b60009182526001602090815260408084206001600160a01b0393909316845291905290205460ff1690565b610d626110a0565b610d6a6110e6565b6000610d7581611096565b33610d7e610fe6565b600555610d89610ce6565b6006556001600160a01b03811615610dd057610da48161053e565b6001600160a01b0382166000908152600e6020908152604080832093909355600554600d909152919020555b60008311610e2a5760405162461bcd60e51b815260206004820152602160248201527f53696e676c65526577617264506f6f6c3a2063616e206e6f74207374616b65206044820152600360fc1b6064820152608401610720565b8260046000828254610e3c919061190c565b9091555050336000908152600b602052604081208054859290610e6090849061190c565b9091555050336000818152600c60205260409020429055610ead907f00000000000000000000000000000000000000000000000000000000000000006001600160a01b0316903086611301565b60405183815233907f9e71bc8eea02a63969f509818f2dafb9254532904319f9dbda79b67bd34a5f3d90602001610857565b6000610eea81611096565b600a80546001600160a01b0319166001600160a01b0384169081179091556040517f8144383095088e23785af5f7c03b8e1fc82a0d3936c0cc4444b2bc04e737575790600090a25050565b6000610f4081611096565b6007544211610faa5760405162461bcd60e51b815260206004820152603060248201527f53696e676c65526577617264506f6f6c3a206475726174696f6e2063616e6e6f60448201526f74206265206368616e676564206e6f7760801b6064820152608401610720565b60038290556040518281527ffb46ca5a5e06d4540d6387b930a7c978bce0db5f449ec6b3f5d07c6e1d44f2d39060200160405180910390a15050565b6000600454600003610ff9575060055490565b60055460045460085460065461100d610ce6565b61101791906118b4565b61102191906118cb565b61103390670de0b6b3a76400006118cb565b61103d91906118ea565b610602919061190c565b6000828152600160208190526040909120015461106381611096565b610894838361120b565b6110756110a0565b336000908152600b602052604090205461108e9061065d565b610cb2610baa565b61086b813361133f565b60005460ff1615610cb25760405162461bcd60e51b815260206004820152601060248201526f14185d5cd8589b194e881c185d5cd95960821b6044820152606401610720565b60028054036111375760405162461bcd60e51b815260206004820152601f60248201527f5265656e7472616e637947756172643a207265656e7472616e742063616c6c006044820152606401610720565b60028055565b6040516001600160a01b03831660248201526044810182905261089490849063a9059cbb60e01b906064015b60408051601f198184030181529190526020810180516001600160e01b03166001600160e01b031990931692909217909152611398565b6111aa8282610d2f565b6109135760008281526001602081815260408084206001600160a01b0386168086529252808420805460ff19169093179092559051339285917f2f8788117e7eff1d82e926ec794901d17c78024a50270940304540a733656f0d9190a45050565b6112158282610d2f565b156109135760008281526001602090815260408083206001600160a01b0385168085529252808320805460ff1916905551339285917ff6391f5c32d9c69d2a47ea670b442974b53935d1edc7fd64eb21e047a839171b9190a45050565b61127a61146a565b6000805460ff191690557f5db9ee0a495bf2e6ff9c91a7834c1ba4fdd244a5e8aa4e537bd38aeae4b073aa335b6040516001600160a01b03909116815260200160405180910390a1565b6112cc6110a0565b6000805460ff191660011790557f62e78cea01bee320cd4e420270b5ea74000d11b0c9f74754ebdbfc544b05a2586112a73390565b6040516001600160a01b03808516602483015283166044820152606481018290526113399085906323b872dd60e01b90608401611169565b50505050565b6113498282610d2f565b61091357611356816114b3565b6113618360206114c5565b604051602001611372929190611969565b60408051601f198184030181529082905262461bcd60e51b8252610720916004016119de565b60006113ed826040518060400160405280602081526020017f5361666545524332303a206c6f772d6c6576656c2063616c6c206661696c6564815250856001600160a01b03166116689092919063ffffffff16565b805190915015610894578080602001905181019061140b9190611a11565b6108945760405162461bcd60e51b815260206004820152602a60248201527f5361666545524332303a204552433230206f7065726174696f6e20646964206e6044820152691bdd081cdd58d8d9595960b21b6064820152608401610720565b60005460ff16610cb25760405162461bcd60e51b815260206004820152601460248201527314185d5cd8589b194e881b9bdd081c185d5cd95960621b6044820152606401610720565b60606105b56001600160a01b03831660145b606060006114d48360026118cb565b6114df90600261190c565b67ffffffffffffffff8111156114f7576114f7611a33565b6040519080825280601f01601f191660200182016040528015611521576020820181803683370190505b509050600360fc1b8160008151811061153c5761153c611a49565b60200101906001600160f81b031916908160001a905350600f60fb1b8160018151811061156b5761156b611a49565b60200101906001600160f81b031916908160001a905350600061158f8460026118cb565b61159a90600161190c565b90505b6001811115611612576f181899199a1a9b1b9c1cb0b131b232b360811b85600f16601081106115ce576115ce611a49565b1a60f81b8282815181106115e4576115e4611a49565b60200101906001600160f81b031916908160001a90535060049490941c9361160b81611a5f565b905061159d565b5083156116615760405162461bcd60e51b815260206004820181905260248201527f537472696e67733a20686578206c656e67746820696e73756666696369656e746044820152606401610720565b9392505050565b6060611677848460008561167f565b949350505050565b6060824710156116e05760405162461bcd60e51b815260206004820152602660248201527f416464726573733a20696e73756666696369656e742062616c616e636520666f6044820152651c8818d85b1b60d21b6064820152608401610720565b600080866001600160a01b031685876040516116fc9190611a76565b60006040518083038185875af1925050503d8060008114611739576040519150601f19603f3d011682016040523d82523d6000602084013e61173e565b606091505b509150915061174f8783838761175a565b979650505050505050565b606083156117c95782516000036117c2576001600160a01b0385163b6117c25760405162461bcd60e51b815260206004820152601d60248201527f416464726573733a2063616c6c20746f206e6f6e2d636f6e74726163740000006044820152606401610720565b5081611677565b61167783838151156117de5781518083602001fd5b8060405162461bcd60e51b815260040161072091906119de565b80356001600160a01b038116811461180f57600080fd5b919050565b60006020828403121561182657600080fd5b611661826117f8565b60006020828403121561184157600080fd5b81356001600160e01b03198116811461166157600080fd5b60006020828403121561186b57600080fd5b5035919050565b6000806040838503121561188557600080fd5b82359150611895602084016117f8565b90509250929050565b634e487b7160e01b600052601160045260246000fd5b6000828210156118c6576118c661189e565b500390565b60008160001904831182151516156118e5576118e561189e565b500290565b60008261190757634e487b7160e01b600052601260045260246000fd5b500490565b6000821982111561191f5761191f61189e565b500190565b60006020828403121561193657600080fd5b5051919050565b60005b83811015611958578181015183820152602001611940565b838111156113395750506000910152565b7f416363657373436f6e74726f6c3a206163636f756e74200000000000000000008152600083516119a181601785016020880161193d565b7001034b99036b4b9b9b4b733903937b6329607d1b60179184019182015283516119d281602884016020880161193d565b01602801949350505050565b60208152600082518060208401526119fd81604085016020870161193d565b601f01601f19169190910160400192915050565b600060208284031215611a2357600080fd5b8151801515811461166157600080fd5b634e487b7160e01b600052604160045260246000fd5b634e487b7160e01b600052603260045260246000fd5b600081611a6e57611a6e61189e565b506000190190565b60008251611a8881846020870161193d565b919091019291505056fea26469706673582212203fff4557ca56a06d8efe2b1bb876ceed36f82720f15071b7016cc0c64f24a19c64736f6c634300080f0033",
  "linkReferences": {},
  "deployedLinkReferences": {}
}