{
  "_format": "hh-sol-artifact-1",
  "contractName": "AveragePriceOracle",
  "sourceName": "contracts/AveragePriceOracle.sol",
  "abi": [
    {
      "inputs": [
        {
          "internalType": "uint256",
          "name": "prod1",
          "type": "uint256"
        }
      ],
      "name": "PRBMath__MulDivFixedPointOverflow",
      "type": "error"
    },
    {
      "inputs": [
        {
          "internalType": "uint256",
          "name": "prod1",
          "type": "uint256"
        },
        {
          "internalType": "uint256",
          "name": "denominator",
          "type": "uint256"
        }
      ],
      "name": "PRBMath__MulDivOverflow",
      "type": "error"
    },
    {
      "anonymous": false,
      "inputs": [
        {
          "indexed": false,
          "internalType": "uint8",
          "name": "version",
          "type": "uint8"
        }
      ],
      "name": "Initialized",
      "type": "event"
    },
    {
      "anonymous": false,
      "inputs": [
        {
          "indexed": true,
          "internalType": "address",
          "name": "previousOwner",
          "type": "address"
        },
        {
          "indexed": true,
          "internalType": "address",
          "name": "newOwner",
          "type": "address"
        }
      ],
      "name": "OwnershipTransferred",
      "type": "event"
    },
    {
      "inputs": [],
      "name": "apeSwapAveragePriceLast",
      "outputs": [
        {
          "internalType": "uint256",
          "name": "",
          "type": "uint256"
        }
      ],
      "stateMutability": "view",
      "type": "function"
    },
    {
      "inputs": [],
      "name": "apeSwapPair",
      "outputs": [
        {
          "internalType": "address",
          "name": "",
          "type": "address"
        }
      ],
      "stateMutability": "view",
      "type": "function"
    },
    {
      "inputs": [],
      "name": "biSwapAveragePriceLast",
      "outputs": [
        {
          "internalType": "uint256",
          "name": "",
          "type": "uint256"
        }
      ],
      "stateMutability": "view",
      "type": "function"
    },
    {
      "inputs": [],
      "name": "biSwapPair",
      "outputs": [
        {
          "internalType": "address",
          "name": "",
          "type": "address"
        }
      ],
      "stateMutability": "view",
      "type": "function"
    },
    {
      "inputs": [
        {
          "internalType": "address",
          "name": "zoinks_",
          "type": "address"
        },
        {
          "internalType": "address",
          "name": "apeSwapPair_",
          "type": "address"
        },
        {
          "internalType": "address",
          "name": "biSwapPair_",
          "type": "address"
        },
        {
          "internalType": "address",
          "name": "pancakeSwapPair_",
          "type": "address"
        }
      ],
      "name": "initialize",
      "outputs": [],
      "stateMutability": "nonpayable",
      "type": "function"
    },
    {
      "inputs": [],
      "name": "owner",
      "outputs": [
        {
          "internalType": "address",
          "name": "",
          "type": "address"
        }
      ],
      "stateMutability": "view",
      "type": "function"
    },
    {
      "inputs": [],
      "name": "pancakeSwapAveragePriceLast",
      "outputs": [
        {
          "internalType": "uint256",
          "name": "",
          "type": "uint256"
        }
      ],
      "stateMutability": "view",
      "type": "function"
    },
    {
      "inputs": [],
      "name": "pancakeSwapPair",
      "outputs": [
        {
          "internalType": "address",
          "name": "",
          "type": "address"
        }
      ],
      "stateMutability": "view",
      "type": "function"
    },
    {
      "inputs": [],
      "name": "renounceOwnership",
      "outputs": [],
      "stateMutability": "nonpayable",
      "type": "function"
    },
    {
      "inputs": [
        {
          "internalType": "address",
          "name": "newOwner",
          "type": "address"
        }
      ],
      "name": "transferOwnership",
      "outputs": [],
      "stateMutability": "nonpayable",
      "type": "function"
    },
    {
      "inputs": [],
      "name": "twapLast",
      "outputs": [
        {
          "internalType": "uint256",
          "name": "",
          "type": "uint256"
        }
      ],
      "stateMutability": "view",
      "type": "function"
    },
    {
      "inputs": [],
      "name": "update",
      "outputs": [],
      "stateMutability": "nonpayable",
      "type": "function"
    },
    {
      "inputs": [],
      "name": "zoinks",
      "outputs": [
        {
          "internalType": "address",
          "name": "",
          "type": "address"
        }
      ],
      "stateMutability": "view",
      "type": "function"
    }
  ],
  "bytecode": "0x608060405234801561001057600080fd5b5061001a3361001f565b61006f565b600080546001600160a01b038381166001600160a01b0319831681178455604051919092169283917f8be0079c531659141344cd1fd0a4f28419497f9722a3daafe3b4186f6b6457e09190a35050565b61121e8061007e6000396000f3fe608060405234801561001057600080fd5b50600436106100cf5760003560e01c8063715018a61161008c578063a2e6204511610066578063a2e6204514610181578063aeaaf7ed14610189578063f2fde38b14610192578063f8c8765e146101a557600080fd5b8063715018a61461015d5780638da5cb5b146101675780639305d8221461017857600080fd5b8063302b314b146100d4578063429494f21461010457806345258eb61461011757806349b8af571461012a5780634e276cb814610141578063512eb14b1461014a575b600080fd5b6003546100e7906001600160a01b031681565b6040516001600160a01b0390911681526020015b60405180910390f35b6004546100e7906001600160a01b031681565b6002546100e7906001600160a01b031681565b61013360065481565b6040519081526020016100fb565b61013360075481565b6001546100e7906001600160a01b031681565b6101656101b8565b005b6000546001600160a01b03166100e7565b61013360085481565b6101656101cc565b61013360055481565b6101656101a0366004611057565b61077d565b6101656101b3366004611072565b6107f6565b6101c0610dc0565b6101ca6000610e1a565b565b6001546001600160a01b031633146102495760405162461bcd60e51b815260206004820152603560248201527f4176657261676550726963654f7261636c653a2063616c6c6572206973206e6f6044820152741d081d1a1948169bda5b9adcc818dbdb9d1c9858dd605a1b60648201526084015b60405180910390fd5b600061025862015180426110dc565b9050611c20811015801561026d575061c4e081105b156103125761a8c0600c54426102839190611114565b10156103095760405162461bcd60e51b815260206004820152604960248201527f4176657261676550726963654f7261636c653a20545741502068617320616c7260448201527f65616479206265656e207570646174656420647572696e6720746865206669726064820152681cdd081c195c9a5bd960ba1b608482015260a401610240565b42600c556103af565b61a8c0600d54426103239190611114565b10156103aa5760405162461bcd60e51b815260206004820152604a60248201527f4176657261676550726963654f7261636c653a20545741502068617320616c7260448201527f65616479206265656e207570646174656420647572696e6720746865207365636064820152691bdb99081c195c9a5bd960b21b608482015260a401610240565b42600d555b600260009054906101000a90046001600160a01b03166001600160a01b031663fff6cae96040518163ffffffff1660e01b8152600401600060405180830381600087803b1580156103ff57600080fd5b505af1158015610413573d6000803e3d6000fd5b50505050600360009054906101000a90046001600160a01b03166001600160a01b031663fff6cae96040518163ffffffff1660e01b8152600401600060405180830381600087803b15801561046757600080fd5b505af115801561047b573d6000803e3d6000fd5b5050600480546040805160016209351760e01b0319815290516001600160a01b03909216945063fff6cae99350808301926000929182900301818387803b1580156104c557600080fd5b505af11580156104d9573d6000803e3d6000fd5b5050505060006104e7610e6a565b600e549091506000906105009063ffffffff168361112b565b63ffffffff1690506000600260009054906101000a90046001600160a01b03166001600160a01b0316635909c0d56040518163ffffffff1660e01b8152600401602060405180830381865afa15801561055d573d6000803e3d6000fd5b505050506040513d601f19601f820116820180604052508101906105819190611150565b90506000600360009054906101000a90046001600160a01b03166001600160a01b0316635909c0d56040518163ffffffff1660e01b8152600401602060405180830381865afa1580156105d8573d6000803e3d6000fd5b505050506040513d601f19601f820116820180604052508101906105fc9190611150565b90506000600460009054906101000a90046001600160a01b03166001600160a01b0316635909c0d56040518163ffffffff1660e01b8152600401602060405180830381865afa158015610653573d6000803e3d6000fd5b505050506040513d601f19601f820116820180604052508101906106779190611150565b9050610699600160701b61069386600954876106939190611114565b90610e80565b6005819055506106b9600160701b61069386600a54866106939190611114565b6006819055506106d9600160701b61069386600b54856106939190611114565b60078190556009849055600a839055600b829055600e805463ffffffff191663ffffffff88811691909117909155610772916107649161196491610693916127109161072a91610dac9190610e9c16565b60065461073a906105dc90610e9c565b60055461074a906105dc90610e9c565b6107549190611169565b61075e9190611169565b90610e9c565b670de0b6b3a7640000900490565b600855505050505050565b610785610dc0565b6001600160a01b0381166107ea5760405162461bcd60e51b815260206004820152602660248201527f4f776e61626c653a206e6577206f776e657220697320746865207a65726f206160448201526564647265737360d01b6064820152608401610240565b6107f381610e1a565b50565b6107fe610dc0565b600054600160a81b900460ff161580801561082657506000546001600160a01b90910460ff16105b806108475750303b1580156108475750600054600160a01b900460ff166001145b6108aa5760405162461bcd60e51b815260206004820152602e60248201527f496e697469616c697a61626c653a20636f6e747261637420697320616c72656160448201526d191e481a5b9a5d1a585b1a5e995960921b6064820152608401610240565b6000805460ff60a01b1916600160a01b17905580156108d7576000805460ff60a81b1916600160a81b1790555b600180546001600160a01b038088166001600160a01b0319928316179092556002805487841690831681179091556003805487851690841617905560048054938616939092169290921781556040805160016209351760e01b03198152905163fff6cae99282810192600092919082900301818387803b15801561095a57600080fd5b505af115801561096e573d6000803e3d6000fd5b50505050826001600160a01b031663fff6cae96040518163ffffffff1660e01b8152600401600060405180830381600087803b1580156109ad57600080fd5b505af11580156109c1573d6000803e3d6000fd5b50505050816001600160a01b031663fff6cae96040518163ffffffff1660e01b8152600401600060405180830381600087803b158015610a0057600080fd5b505af1158015610a14573d6000803e3d6000fd5b505050506000806000866001600160a01b0316630902f1ac6040518163ffffffff1660e01b8152600401606060405180830381865afa158015610a5b573d6000803e3d6000fd5b505050506040513d601f19601f82011682018060405250810190610a7f9190611198565b925092509250600080876001600160a01b0316630902f1ac6040518163ffffffff1660e01b8152600401606060405180830381865afa158015610ac6573d6000803e3d6000fd5b505050506040513d601f19601f82011682018060405250810190610aea9190611198565b5091509150600080886001600160a01b0316630902f1ac6040518163ffffffff1660e01b8152600401606060405180830381865afa158015610b30573d6000803e3d6000fd5b505050506040513d601f19601f82011682018060405250810190610b549190611198565b5091509150866001600160701b0316600014158015610b7b57506001600160701b03861615155b8015610b8f57506001600160701b03841615155b8015610ba357506001600160701b03831615155b8015610bb757506001600160701b03821615155b8015610bcb57506001600160701b03811615155b610c175760405162461bcd60e51b815260206004820152601f60248201527f4176657261676550726963654f7261636c653a206e6f207265736572766573006044820152606401610240565b600e805463ffffffff191663ffffffff871617905560408051635909c0d560e01b815290516001600160a01b038d1691635909c0d59160048083019260209291908290030181865afa158015610c71573d6000803e3d6000fd5b505050506040513d601f19601f82011682018060405250810190610c959190611150565b600981905550896001600160a01b0316635909c0d56040518163ffffffff1660e01b8152600401602060405180830381865afa158015610cd9573d6000803e3d6000fd5b505050506040513d601f19601f82011682018060405250810190610cfd9190611150565b600a81905550886001600160a01b0316635909c0d56040518163ffffffff1660e01b8152600401602060405180830381865afa158015610d41573d6000803e3d6000fd5b505050506040513d601f19601f82011682018060405250810190610d659190611150565b600b55505085159450610db99350505050576000805460ff60a81b19169055604051600181527f7f26b83ff96e1f2b6a682f133852f6798a09c465da95921460cefb38474024989060200160405180910390a15b5050505050565b6000546001600160a01b031633146101ca5760405162461bcd60e51b815260206004820181905260248201527f4f776e61626c653a2063616c6c6572206973206e6f7420746865206f776e65726044820152606401610240565b600080546001600160a01b038381166001600160a01b0319831681178455604051919092169283917f8be0079c531659141344cd1fd0a4f28419497f9722a3daafe3b4186f6b6457e09190a35050565b6000610e7b640100000000426110dc565b905090565b6000610e9583670de0b6b3a764000084610ea8565b9392505050565b6000610e958383610f74565b6000808060001985870985870292508281108382030391505080600003610ee257838281610ed857610ed86110c6565b0492505050610e95565b838110610f0c57604051631dcf306360e21b81526004810182905260248101859052604401610240565b600084868809600260036001881981018916988990049182028318808302840302808302840302808302840302808302840302808302840302918202909203026000889003889004909101858311909403939093029303949094049190911702949350505050565b60008080600019848609848602925082811083820303915050670de0b6b3a76400008110610fb85760405163698d9a0160e11b815260048101829052602401610240565b600080670de0b6b3a764000086880991506706f05b59d3b1ffff8211905082600003610ff65780670de0b6b3a7640000850401945050505050611035565b620400008285030493909111909103600160ee1b02919091177faccb18165bd6fe31ae1cf318dc5b51eee0e1ba569b88cd74c1773b91fac10669020190505b92915050565b80356001600160a01b038116811461105257600080fd5b919050565b60006020828403121561106957600080fd5b610e958261103b565b6000806000806080858703121561108857600080fd5b6110918561103b565b935061109f6020860161103b565b92506110ad6040860161103b565b91506110bb6060860161103b565b905092959194509250565b634e487b7160e01b600052601260045260246000fd5b6000826110f957634e487b7160e01b600052601260045260246000fd5b500690565b634e487b7160e01b600052601160045260246000fd5b600082821015611126576111266110fe565b500390565b600063ffffffff83811690831681811015611148576111486110fe565b039392505050565b60006020828403121561116257600080fd5b5051919050565b6000821982111561117c5761117c6110fe565b500190565b80516001600160701b038116811461105257600080fd5b6000806000606084860312156111ad57600080fd5b6111b684611181565b92506111c460208501611181565b9150604084015163ffffffff811681146111dd57600080fd5b80915050925092509256fea26469706673582212204125308e4f03d20b981fafa3df0febd95a466b0961f626ec240a5e3896da145164736f6c634300080f0033",
  "linkReferences": {},
  "deployedLinkReferences": {}
}