{
  "_format": "hh-sol-artifact-1",
  "contractName": "EthSnacks",
  "sourceName": "contracts/EthSnacks.sol",
  "abi": [
    {
      "inputs": [],
      "stateMutability": "nonpayable",
      "type": "constructor"
    },
    {
      "inputs": [
        {
          "internalType": "uint256",
          "name": "x",
          "type": "uint256"
        }
      ],
      "name": "PRBMathUD60x18__FromUintOverflow",
      "type": "error"
    },
    {
      "inputs": [
        {
          "internalType": "uint256",
          "name": "prod1",
          "type": "uint256"
        }
      ],
      "name": "PRBMath__MulDivFixedPointOverflow",
      "type": "error"
    },
    {
      "inputs": [
        {
          "internalType": "uint256",
          "name": "prod1",
          "type": "uint256"
        },
        {
          "internalType": "uint256",
          "name": "denominator",
          "type": "uint256"
        }
      ],
      "name": "PRBMath__MulDivOverflow",
      "type": "error"
    },
    {
      "anonymous": false,
      "inputs": [
        {
          "indexed": true,
          "internalType": "address",
          "name": "owner",
          "type": "address"
        },
        {
          "indexed": true,
          "internalType": "address",
          "name": "spender",
          "type": "address"
        },
        {
          "indexed": false,
          "internalType": "uint256",
          "name": "value",
          "type": "uint256"
        }
      ],
      "name": "Approval",
      "type": "event"
    },
    {
      "anonymous": false,
      "inputs": [
        {
          "indexed": true,
          "internalType": "address",
          "name": "buyer",
          "type": "address"
        },
        {
          "indexed": false,
          "internalType": "uint256",
          "name": "totalSupplyBefore",
          "type": "uint256"
        },
        {
          "indexed": false,
          "internalType": "uint256",
          "name": "buyTokenAmount",
          "type": "uint256"
        },
        {
          "indexed": false,
          "internalType": "uint256",
          "name": "buyTokenAmountToBuyer",
          "type": "uint256"
        },
        {
          "indexed": false,
          "internalType": "uint256",
          "name": "fee",
          "type": "uint256"
        },
        {
          "indexed": false,
          "internalType": "uint256",
          "name": "payTokenAmount",
          "type": "uint256"
        }
      ],
      "name": "Buy",
      "type": "event"
    },
    {
      "anonymous": false,
      "inputs": [
        {
          "indexed": true,
          "internalType": "address",
          "name": "previousOwner",
          "type": "address"
        },
        {
          "indexed": true,
          "internalType": "address",
          "name": "newOwner",
          "type": "address"
        }
      ],
      "name": "OwnershipTransferred",
      "type": "event"
    },
    {
      "anonymous": false,
      "inputs": [
        {
          "indexed": false,
          "internalType": "address",
          "name": "account",
          "type": "address"
        }
      ],
      "name": "Paused",
      "type": "event"
    },
    {
      "anonymous": false,
      "inputs": [
        {
          "indexed": true,
          "internalType": "address",
          "name": "seller",
          "type": "address"
        },
        {
          "indexed": false,
          "internalType": "uint256",
          "name": "totalSupplyAfter",
          "type": "uint256"
        },
        {
          "indexed": false,
          "internalType": "uint256",
          "name": "buyTokenAmount",
          "type": "uint256"
        },
        {
          "indexed": false,
          "internalType": "uint256",
          "name": "buyTokenAmountToRedeem",
          "type": "uint256"
        },
        {
          "indexed": false,
          "internalType": "uint256",
          "name": "fee",
          "type": "uint256"
        },
        {
          "indexed": false,
          "internalType": "uint256",
          "name": "payTokenAmountToSeller",
          "type": "uint256"
        }
      ],
      "name": "Redeem",
      "type": "event"
    },
    {
      "anonymous": false,
      "inputs": [
        {
          "indexed": true,
          "internalType": "uint256",
          "name": "reward",
          "type": "uint256"
        }
      ],
      "name": "RewardForHolders",
      "type": "event"
    },
    {
      "anonymous": false,
      "inputs": [
        {
          "indexed": true,
          "internalType": "address",
          "name": "from",
          "type": "address"
        },
        {
          "indexed": true,
          "internalType": "address",
          "name": "to",
          "type": "address"
        },
        {
          "indexed": false,
          "internalType": "uint256",
          "name": "value",
          "type": "uint256"
        }
      ],
      "name": "Transfer",
      "type": "event"
    },
    {
      "anonymous": false,
      "inputs": [
        {
          "indexed": false,
          "internalType": "address",
          "name": "account",
          "type": "address"
        }
      ],
      "name": "Unpaused",
      "type": "event"
    },
    {
      "inputs": [
        {
          "internalType": "address",
          "name": "account_",
          "type": "address"
        }
      ],
      "name": "addToExcludedHolders",
      "outputs": [],
      "stateMutability": "nonpayable",
      "type": "function"
    },
    {
      "inputs": [],
      "name": "adjustmentFactor",
      "outputs": [
        {
          "internalType": "uint256",
          "name": "",
          "type": "uint256"
        }
      ],
      "stateMutability": "view",
      "type": "function"
    },
    {
      "inputs": [
        {
          "internalType": "address",
          "name": "owner_",
          "type": "address"
        },
        {
          "internalType": "address",
          "name": "spender_",
          "type": "address"
        }
      ],
      "name": "allowance",
      "outputs": [
        {
          "internalType": "uint256",
          "name": "",
          "type": "uint256"
        }
      ],
      "stateMutability": "view",
      "type": "function"
    },
    {
      "inputs": [
        {
          "internalType": "address",
          "name": "spender_",
          "type": "address"
        },
        {
          "internalType": "uint256",
          "name": "amount_",
          "type": "uint256"
        }
      ],
      "name": "approve",
      "outputs": [
        {
          "internalType": "bool",
          "name": "",
          "type": "bool"
        }
      ],
      "stateMutability": "nonpayable",
      "type": "function"
    },
    {
      "inputs": [],
      "name": "authority",
      "outputs": [
        {
          "internalType": "address",
          "name": "",
          "type": "address"
        }
      ],
      "stateMutability": "view",
      "type": "function"
    },
    {
      "inputs": [
        {
          "internalType": "address",
          "name": "account_",
          "type": "address"
        }
      ],
      "name": "balanceOf",
      "outputs": [
        {
          "internalType": "uint256",
          "name": "",
          "type": "uint256"
        }
      ],
      "stateMutability": "view",
      "type": "function"
    },
    {
      "inputs": [
        {
          "internalType": "uint256",
          "name": "payTokenAmount_",
          "type": "uint256"
        }
      ],
      "name": "calculateBuyTokenAmountOnMint",
      "outputs": [
        {
          "internalType": "uint256",
          "name": "",
          "type": "uint256"
        }
      ],
      "stateMutability": "view",
      "type": "function"
    },
    {
      "inputs": [
        {
          "internalType": "uint256",
          "name": "buyTokenAmount_",
          "type": "uint256"
        }
      ],
      "name": "calculatePayTokenAmountOnMint",
      "outputs": [
        {
          "internalType": "uint256",
          "name": "",
          "type": "uint256"
        }
      ],
      "stateMutability": "view",
      "type": "function"
    },
    {
      "inputs": [
        {
          "internalType": "uint256",
          "name": "buyTokenAmount_",
          "type": "uint256"
        }
      ],
      "name": "calculatePayTokenAmountOnRedeem",
      "outputs": [
        {
          "internalType": "uint256",
          "name": "",
          "type": "uint256"
        }
      ],
      "stateMutability": "view",
      "type": "function"
    },
    {
      "inputs": [
        {
          "internalType": "address",
          "name": "eth_",
          "type": "address"
        },
        {
          "internalType": "address",
          "name": "pulse_",
          "type": "address"
        },
        {
          "internalType": "address",
          "name": "poolRewardDistributor_",
          "type": "address"
        },
        {
          "internalType": "address",
          "name": "seniorage_",
          "type": "address"
        },
        {
          "internalType": "address",
          "name": "snacksPool_",
          "type": "address"
        },
        {
          "internalType": "address",
          "name": "pancakeSwapPool_",
          "type": "address"
        },
        {
          "internalType": "address",
          "name": "lunchBox_",
          "type": "address"
        },
        {
          "internalType": "address",
          "name": "authority_",
          "type": "address"
        },
        {
          "internalType": "address",
          "name": "snacks_",
          "type": "address"
        }
      ],
      "name": "configure",
      "outputs": [],
      "stateMutability": "nonpayable",
      "type": "function"
    },
    {
      "inputs": [],
      "name": "decimals",
      "outputs": [
        {
          "internalType": "uint8",
          "name": "",
          "type": "uint8"
        }
      ],
      "stateMutability": "pure",
      "type": "function"
    },
    {
      "inputs": [
        {
          "internalType": "address",
          "name": "spender_",
          "type": "address"
        },
        {
          "internalType": "uint256",
          "name": "amount_",
          "type": "uint256"
        }
      ],
      "name": "decreaseAllowance",
      "outputs": [
        {
          "internalType": "bool",
          "name": "",
          "type": "bool"
        }
      ],
      "stateMutability": "nonpayable",
      "type": "function"
    },
    {
      "inputs": [],
      "name": "distributeFee",
      "outputs": [],
      "stateMutability": "nonpayable",
      "type": "function"
    },
    {
      "inputs": [],
      "name": "getExcludedBalance",
      "outputs": [
        {
          "internalType": "uint256",
          "name": "",
          "type": "uint256"
        }
      ],
      "stateMutability": "view",
      "type": "function"
    },
    {
      "inputs": [
        {
          "internalType": "address",
          "name": "spender_",
          "type": "address"
        },
        {
          "internalType": "uint256",
          "name": "amount_",
          "type": "uint256"
        }
      ],
      "name": "increaseAllowance",
      "outputs": [
        {
          "internalType": "bool",
          "name": "",
          "type": "bool"
        }
      ],
      "stateMutability": "nonpayable",
      "type": "function"
    },
    {
      "inputs": [
        {
          "internalType": "address",
          "name": "account_",
          "type": "address"
        }
      ],
      "name": "isExcludedHolder",
      "outputs": [
        {
          "internalType": "bool",
          "name": "",
          "type": "bool"
        }
      ],
      "stateMutability": "view",
      "type": "function"
    },
    {
      "inputs": [
        {
          "internalType": "uint256",
          "name": "buyTokenAmount_",
          "type": "uint256"
        }
      ],
      "name": "mintWithBuyTokenAmount",
      "outputs": [
        {
          "internalType": "uint256",
          "name": "",
          "type": "uint256"
        }
      ],
      "stateMutability": "nonpayable",
      "type": "function"
    },
    {
      "inputs": [
        {
          "internalType": "uint256",
          "name": "payTokenAmount_",
          "type": "uint256"
        }
      ],
      "name": "mintWithPayTokenAmount",
      "outputs": [
        {
          "internalType": "uint256",
          "name": "",
          "type": "uint256"
        }
      ],
      "stateMutability": "nonpayable",
      "type": "function"
    },
    {
      "inputs": [],
      "name": "name",
      "outputs": [
        {
          "internalType": "string",
          "name": "",
          "type": "string"
        }
      ],
      "stateMutability": "view",
      "type": "function"
    },
    {
      "inputs": [],
      "name": "owner",
      "outputs": [
        {
          "internalType": "address",
          "name": "",
          "type": "address"
        }
      ],
      "stateMutability": "view",
      "type": "function"
    },
    {
      "inputs": [],
      "name": "pause",
      "outputs": [],
      "stateMutability": "nonpayable",
      "type": "function"
    },
    {
      "inputs": [],
      "name": "paused",
      "outputs": [
        {
          "internalType": "bool",
          "name": "",
          "type": "bool"
        }
      ],
      "stateMutability": "view",
      "type": "function"
    },
    {
      "inputs": [],
      "name": "payToken",
      "outputs": [
        {
          "internalType": "address",
          "name": "",
          "type": "address"
        }
      ],
      "stateMutability": "view",
      "type": "function"
    },
    {
      "inputs": [],
      "name": "poolRewardDistributor",
      "outputs": [
        {
          "internalType": "address",
          "name": "",
          "type": "address"
        }
      ],
      "stateMutability": "view",
      "type": "function"
    },
    {
      "inputs": [],
      "name": "pulse",
      "outputs": [
        {
          "internalType": "address",
          "name": "",
          "type": "address"
        }
      ],
      "stateMutability": "view",
      "type": "function"
    },
    {
      "inputs": [
        {
          "internalType": "uint256",
          "name": "buyTokenAmount_",
          "type": "uint256"
        }
      ],
      "name": "redeem",
      "outputs": [
        {
          "internalType": "uint256",
          "name": "",
          "type": "uint256"
        }
      ],
      "stateMutability": "nonpayable",
      "type": "function"
    },
    {
      "inputs": [
        {
          "internalType": "address",
          "name": "account_",
          "type": "address"
        }
      ],
      "name": "removeFromExcludedHolders",
      "outputs": [],
      "stateMutability": "nonpayable",
      "type": "function"
    },
    {
      "inputs": [],
      "name": "renounceOwnership",
      "outputs": [],
      "stateMutability": "nonpayable",
      "type": "function"
    },
    {
      "inputs": [],
      "name": "seniorage",
      "outputs": [
        {
          "internalType": "address",
          "name": "",
          "type": "address"
        }
      ],
      "stateMutability": "view",
      "type": "function"
    },
    {
      "inputs": [],
      "name": "snacks",
      "outputs": [
        {
          "internalType": "address",
          "name": "",
          "type": "address"
        }
      ],
      "stateMutability": "view",
      "type": "function"
    },
    {
      "inputs": [
        {
          "internalType": "uint256",
          "name": "buyTokenAmount_",
          "type": "uint256"
        }
      ],
      "name": "sufficientBuyTokenAmountOnMint",
      "outputs": [
        {
          "internalType": "bool",
          "name": "",
          "type": "bool"
        }
      ],
      "stateMutability": "view",
      "type": "function"
    },
    {
      "inputs": [
        {
          "internalType": "uint256",
          "name": "buyTokenAmount_",
          "type": "uint256"
        }
      ],
      "name": "sufficientBuyTokenAmountOnRedeem",
      "outputs": [
        {
          "internalType": "bool",
          "name": "",
          "type": "bool"
        }
      ],
      "stateMutability": "view",
      "type": "function"
    },
    {
      "inputs": [
        {
          "internalType": "uint256",
          "name": "payTokenAmount_",
          "type": "uint256"
        }
      ],
      "name": "sufficientPayTokenAmountOnMint",
      "outputs": [
        {
          "internalType": "bool",
          "name": "",
          "type": "bool"
        }
      ],
      "stateMutability": "view",
      "type": "function"
    },
    {
      "inputs": [],
      "name": "symbol",
      "outputs": [
        {
          "internalType": "string",
          "name": "",
          "type": "string"
        }
      ],
      "stateMutability": "view",
      "type": "function"
    },
    {
      "inputs": [],
      "name": "totalSupply",
      "outputs": [
        {
          "internalType": "uint256",
          "name": "",
          "type": "uint256"
        }
      ],
      "stateMutability": "view",
      "type": "function"
    },
    {
      "inputs": [
        {
          "internalType": "address",
          "name": "to_",
          "type": "address"
        },
        {
          "internalType": "uint256",
          "name": "amount_",
          "type": "uint256"
        }
      ],
      "name": "transfer",
      "outputs": [
        {
          "internalType": "bool",
          "name": "",
          "type": "bool"
        }
      ],
      "stateMutability": "nonpayable",
      "type": "function"
    },
    {
      "inputs": [
        {
          "internalType": "address",
          "name": "from_",
          "type": "address"
        },
        {
          "internalType": "address",
          "name": "to_",
          "type": "address"
        },
        {
          "internalType": "uint256",
          "name": "amount_",
          "type": "uint256"
        }
      ],
      "name": "transferFrom",
      "outputs": [
        {
          "internalType": "bool",
          "name": "",
          "type": "bool"
        }
      ],
      "stateMutability": "nonpayable",
      "type": "function"
    },
    {
      "inputs": [
        {
          "internalType": "address",
          "name": "newOwner",
          "type": "address"
        }
      ],
      "name": "transferOwnership",
      "outputs": [],
      "stateMutability": "nonpayable",
      "type": "function"
    },
    {
      "inputs": [],
      "name": "unpause",
      "outputs": [],
      "stateMutability": "nonpayable",
      "type": "function"
    }
  ],
  "bytecode": "0x6101406040526200001c60016200010360201b620014841760201c565b6007553480156200002c57600080fd5b506402540be4006a52b7d2dcc80cd2e40000006305f5e1006105dc610dac6105dc60405180604001604052806009815260200168657468536e61636b7360b81b815250604051806040016040528060078152602001664554534e41434b60c81b815250620000a9620000a36200015560201b60201c565b62000159565b600180556002805460ff19169055608088905260a087905260c086905260e08590526101008490526101208390526009620000e583826200024e565b50600a620000f482826200024e565b5050505050505050506200031a565b60007812725dd1d243aba0e75fe645cc4873f9e65afe688c928e1f218211156200014757604051633492ffd960e01b81526004810183905260240160405180910390fd5b50670de0b6b3a76400000290565b3390565b600080546001600160a01b038381166001600160a01b0319831681178455604051919092169283917f8be0079c531659141344cd1fd0a4f28419497f9722a3daafe3b4186f6b6457e09190a35050565b634e487b7160e01b600052604160045260246000fd5b600181811c90821680620001d457607f821691505b602082108103620001f557634e487b7160e01b600052602260045260246000fd5b50919050565b601f8211156200024957600081815260208120601f850160051c81016020861015620002245750805b601f850160051c820191505b81811015620002455782815560010162000230565b5050505b505050565b81516001600160401b038111156200026a576200026a620001a9565b62000282816200027b8454620001bf565b84620001fb565b602080601f831160018114620002ba5760008415620002a15750858301515b600019600386901b1c1916600185901b17855562000245565b600085815260208120601f198616915b82811015620002eb57888601518255948401946001909101908401620002ca565b50858210156200030a5787850151600019600388901b60f8161c191681555b5050505050600190811b01905550565b60805160a05160c05160e0516101005161012051612b08620003a2600039600061098101526000610942015260006108f4015260008181610d81015261115501526000818161055e01528181610a0501528181610a4f01528181610f2d01528181610f770152611209015260008181610db301528181610e3701526111870152612b086000f3fe608060405234801561001057600080fd5b506004361061023d5760003560e01c8063715018a61161013b578063a8091e48116100b8578063dd5774b21161007c578063dd5774b2146104b2578063dd62ed3e146104c5578063deb189b5146104fe578063f2fde38b14610511578063feaae29b1461052457600080fd5b8063a8091e481461045d578063a9059cbb14610470578063bf7e214f14610483578063cb6741ed14610496578063db006a751461049f57600080fd5b806395d89b41116100ff57806395d89b411461040457806396336b301461040c57806398fe6d2e14610424578063a457c2d714610437578063a754e2dc1461044a57600080fd5b8063715018a6146103bd5780637ee60e27146103c55780638216de3f146103d85780638456cb59146103eb5780638da5cb5b146103f357600080fd5b8063313ce567116101c957806344680a9b1161018d57806344680a9b1461036657806352db0b5b146103795780635c0641391461038c5780635c975abb1461039f57806370a08231146103aa57600080fd5b8063313ce56714610316578063386f826114610325578063393852a214610338578063395093511461034b5780633f4ba83a1461035e57600080fd5b80631343575a116102105780631343575a146102bd5780631388e948146102d057806318160ddd146102f157806323b872dd146102f957806326c4e60d1461030c57600080fd5b80630244234f146102425780630385cc5a1461027257806306fdde0314610295578063095ea7b3146102aa575b600080fd5b600f54610255906001600160a01b031681565b6040516001600160a01b0390911681526020015b60405180910390f35b6102856102803660046125cd565b61052c565b6040519015158152602001610269565b61029d6105a3565b6040516102699190612612565b6102856102b836600461265c565b610635565b600454610255906001600160a01b031681565b6102e36102de3660046125cd565b6106f4565b604051908152602001610269565b6008546102e3565b610285610307366004612686565b6107f7565b610314610850565b005b60405160128152602001610269565b6102e36103333660046125cd565b6109ba565b6102856103463660046126c2565b610a88565b61028561035936600461265c565b610a9b565b610314610b79565b6103146103743660046126c2565b610b8b565b6102e36103873660046125cd565b610c2b565b600554610255906001600160a01b031681565b60025460ff16610285565b6102e36103b83660046126c2565b610d17565b610314610d6a565b6102e36103d33660046125cd565b610d7c565b6102e36103e63660046125cd565b610ee5565b610314610faf565b6000546001600160a01b0316610255565b61029d610fbf565b6002546102559061010090046001600160a01b031681565b6103146104323660046126dd565b610fce565b61028561044536600461265c565b611018565b6102856104583660046125cd565b611150565b61028561046b3660046125cd565b6111b5565b61028561047e36600461265c565b61123e565b600654610255906001600160a01b031681565b6102e360075481565b6102e36104ad3660046125cd565b61125c565b6103146104c03660046126c2565b611341565b6102e36104d3366004612785565b6001600160a01b039182166000908152600c6020908152604080832093909416825291909152205490565b600354610255906001600160a01b031681565b61031461051f3660046126c2565b6113c5565b6102e361143b565b600080670de0b6b3a764000060085461054591906127ce565b905060008360085461055791906127ce565b90506105847f000000000000000000000000000000000000000000000000000000000000000060026127e6565b8461058f83856127ce565b61059991906127e6565b1015949350505050565b6060600980546105b290612805565b80601f01602080910402602001604051908101604052809291908181526020018280546105de90612805565b801561062b5780601f106106005761010080835404028352916020019161062b565b820191906000526020600020905b81548152906001019060200180831161060e57829003601f168201915b5050505050905090565b600061063f6114d1565b3383816106675760405162461bcd60e51b815260040161065e90612839565b60405180910390fd5b6001600160a01b03811661068d5760405162461bcd60e51b815260040161065e90612882565b336000818152600c602090815260408083206001600160a01b038a1680855290835292819020889055518781529192917f8c5be1e5ebec7d5bd14f71427d1e84f3dd0314c0f7b2291e5b200ac8c7c3b92591015b60405180910390a3506001949350505050565b60006106fe6114d1565b610706611517565b600061071183610d7c565b6002549091506107319061010090046001600160a01b0316333086611570565b60006127106107426101f4846127e6565b61074c91906128df565b905061075830826115e1565b61076b336107668385612901565b6115e1565b336001600160a01b03167f178f20a8980b4e6cdc2c84f3ef670f5047f63638f90a8acc6b724b43f1da778d836008546107a49190612901565b846107af8582612901565b60408051938452602084019290925290820152606081018490526080810187905260a00160405180910390a26107e58183612901565b925050506107f260018055565b919050565b60006108016114d1565b6001600160a01b0384166000908152600c6020908152604080832033845290915281208054849290610834908490612901565b9091555061084590508484846116c3565b5060015b9392505050565b6108586114d1565b6006546001600160a01b031633146108be5760405162461bcd60e51b8152602060048201526024808201527f536e61636b73426173653a2063616c6c6572206973206e6f7420617574686f726044820152631a5cd95960e21b606482015260840161065e565b60006108c930610d17565b90506108d4816119a2565b80156109a6576003546109289030906001600160a01b03166127106109197f0000000000000000000000000000000000000000000000000000000000000000866127e6565b61092391906128df565b6116c3565b6004546109679030906001600160a01b03166127106109197f0000000000000000000000000000000000000000000000000000000000000000866127e6565b6005546109a69030906001600160a01b03166127106109197f0000000000000000000000000000000000000000000000000000000000000000866127e6565b6109b76109b230610d17565b611a3f565b50565b600080670de0b6b3a76400006008546109d391906127ce565b90506000836008546109e591906127ce565b90506000846109f483856127ce565b6109fe91906127e6565b9050610a2b7f000000000000000000000000000000000000000000000000000000000000000060026127e6565b811015610a4a5760405162461bcd60e51b815260040161065e90612918565b610a757f000000000000000000000000000000000000000000000000000000000000000060026127e6565b610a7f90826128df565b95945050505050565b6000610a95600d83611af9565b92915050565b6000610aa56114d1565b338381610ac45760405162461bcd60e51b815260040161065e90612839565b6001600160a01b038116610aea5760405162461bcd60e51b815260040161065e90612882565b336000908152600c602090815260408083206001600160a01b038916845290915281208054869290610b1d9084906127ce565b9091555050336000818152600c602090815260408083206001600160a01b038a16808552908352928190205490519081529192917f8c5be1e5ebec7d5bd14f71427d1e84f3dd0314c0f7b2291e5b200ac8c7c3b92591016106e1565b610b81611b1b565b610b89611b75565b565b610b93611b1b565b610b9e600d82611bc7565b610bea5760405162461bcd60e51b815260206004820152601c60248201527f536e61636b73426173653a20616c7265616479206578636c7564656400000000604482015260640161065e565b6007546001600160a01b0382166000908152600b6020526040902054610c0f91611bdc565b6001600160a01b039091166000908152600b6020526040902055565b6000610c356114d1565b610c3d611517565b6000610c48836109ba565b600254909150610c689061010090046001600160a01b0316333084611570565b6000612710610c796101f4866127e6565b610c8391906128df565b9050610c8f30826115e1565b610c9d336107668387612901565b336001600160a01b03167f178f20a8980b4e6cdc2c84f3ef670f5047f63638f90a8acc6b724b43f1da778d85600854610cd69190612901565b86610ce18582612901565b60408051938452602084019290925290820152606081018490526080810185905260a00160405180910390a26107e58185612901565b6000610d24600d83611af9565b15610d4557506001600160a01b03166000908152600b602052604090205490565b6007546001600160a01b0383166000908152600b6020526040902054610a9591611bdc565b610d72611b1b565b610b896000611be8565b6000807f0000000000000000000000000000000000000000000000000000000000000000600854610dad91906128df565b610dd7907f00000000000000000000000000000000000000000000000000000000000000006127ce565b905080831015610e355760405162461bcd60e51b8152602060048201526024808201527f536e61636b73426173653a20696e76616c69642070617920746f6b656e20616d6044820152631bdd5b9d60e21b606482015260840161065e565b7f0000000000000000000000000000000000000000000000000000000000000000600081610e648460026127e6565b610e6e9190612901565b90506000610e7d8660026127e6565b9050600081610e8d8560046127e6565b610e9791906127e6565b610ea2600285612a40565b610eac91906127ce565b90506000610eb982611c38565b9050610ed9610ec98660026127e6565b610ed38684612901565b90611d20565b98975050505050505050565b60008082670de0b6b3a7640000600854610eff91906127ce565b610f099190612901565b905060008360085483610f1c91906127ce565b610f2691906127e6565b9050610f537f000000000000000000000000000000000000000000000000000000000000000060026127e6565b811015610f725760405162461bcd60e51b815260040161065e90612918565b610f9d7f000000000000000000000000000000000000000000000000000000000000000060026127e6565b610fa790826128df565b949350505050565b610fb7611b1b565b610b89611d35565b6060600a80546105b290612805565b610fd6611b1b565b610fe68989898989898989611d72565b600f80546001600160a01b0319166001600160a01b03831617905561100c600d82611bc7565b50505050505050505050565b60006110226114d1565b3383816110415760405162461bcd60e51b815260040161065e90612839565b6001600160a01b0381166110675760405162461bcd60e51b815260040161065e90612882565b336000908152600c602090815260408083206001600160a01b03891684529091529020548085106110bb57336000908152600c602090815260408083206001600160a01b038a1684529091528120556110ea565b6110c58582612901565b336000908152600c602090815260408083206001600160a01b038b1684529091529020555b336000818152600c602090815260408083206001600160a01b038b16808552908352928190205490519081529192917f8c5be1e5ebec7d5bd14f71427d1e84f3dd0314c0f7b2291e5b200ac8c7c3b925910160405180910390a350600195945050505050565b6000807f000000000000000000000000000000000000000000000000000000000000000060085461118191906128df565b6111ab907f00000000000000000000000000000000000000000000000000000000000000006127ce565b9092101592915050565b6000806127106111c76103e8856127e6565b6111d191906128df565b90506111dd8184612901565b92506000670de0b6b3a7640000846008546111f89190612901565b61120291906127ce565b905061122f7f000000000000000000000000000000000000000000000000000000000000000060026127e6565b846008548361058f91906127ce565b60006112486114d1565b6112533384846116c3565b50600192915050565b60006112666114d1565b61126e611517565b600061271061127f6103e8856127e6565b61128991906128df565b90506112963330836116c3565b60006112a56103e68386612901565b6002549091506112c49061010090046001600160a01b03163383611eaa565b6112d7336112d28487612901565b611eda565b60085433907ffaf7975f90774bcdcad0cfda3280c17402f0df1477ecf3264a062c35cebf7ada90866113098682612901565b60408051938452602084019290925290820152606081018590526080810184905260a00160405180910390a29150506107f260018055565b611349611b1b565b611354600d82611fbb565b6113a05760405162461bcd60e51b815260206004820152601860248201527f536e61636b73426173653a206e6f74206578636c756465640000000000000000604482015260640161065e565b6007546001600160a01b0382166000908152600b6020526040902054610c0f91611d20565b6113cd611b1b565b6001600160a01b0381166114325760405162461bcd60e51b815260206004820152602660248201527f4f776e61626c653a206e6577206f776e657220697320746865207a65726f206160448201526564647265737360d01b606482015260840161065e565b6109b781611be8565b60008060005b61144b600d611fd0565b81101561147e576114606103b8600d83611fda565b61146a90836127ce565b91508061147681612a4f565b915050611441565b50919050565b60007812725dd1d243aba0e75fe645cc4873f9e65afe688c928e1f218211156114c357604051633492ffd960e01b81526004810183905260240161065e565b50670de0b6b3a76400000290565b60025460ff1615610b895760405162461bcd60e51b815260206004820152601060248201526f14185d5cd8589b194e881c185d5cd95960821b604482015260640161065e565b6002600154036115695760405162461bcd60e51b815260206004820152601f60248201527f5265656e7472616e637947756172643a207265656e7472616e742063616c6c00604482015260640161065e565b6002600155565b6040516001600160a01b03808516602483015283166044820152606481018290526115db9085906323b872dd60e01b906084015b60408051601f198184030181529190526020810180516001600160e01b03166001600160e01b031990931692909217909152611fe6565b50505050565b80600860008282546115f391906127ce565b9091555050600754600090611609908390611d20565b9050611616600d84611af9565b1561164e576001600160a01b0383166000908152600b6020526040812080548492906116439084906127ce565b9091555061167c9050565b6001600160a01b0383166000908152600b6020526040812080548392906116769084906127ce565b90915550505b6040518281526001600160a01b038416906000907fddf252ad1be2c89b69c2b068fc378daa952ba7f163c4a11628f55a4df523b3ef9060200160405180910390a35b505050565b6001600160a01b03831661172c5760405162461bcd60e51b815260206004820152602a60248201527f536e61636b73426173653a207472616e736665722066726f6d20746865207a65604482015269726f206164647265737360b01b606482015260840161065e565b6001600160a01b0382166117935760405162461bcd60e51b815260206004820152602860248201527f536e61636b73426173653a207472616e7366657220746f20746865207a65726f604482015267206164647265737360c01b606482015260840161065e565b60006117aa60075483611d2090919063ffffffff16565b90506117b7600d85611af9565b1580156117ca57506117ca600d84611af9565b1561182f576001600160a01b0384166000908152600b6020526040812080548392906117f7908490612901565b90915550506001600160a01b0383166000908152600b6020526040812080548492906118249084906127ce565b909155506119509050565b61183a600d85611af9565b801561184e575061184c600d84611af9565b155b156118a8576001600160a01b0384166000908152600b60205260408120805484929061187b908490612901565b90915550506001600160a01b0383166000908152600b6020526040812080548392906118249084906127ce565b6118b3600d85611af9565b1580156118c857506118c6600d84611af9565b155b156118f5576001600160a01b0384166000908152600b60205260408120805483929061187b908490612901565b6001600160a01b0384166000908152600b60205260408120805484929061191d908490612901565b90915550506001600160a01b0383166000908152600b60205260408120805484929061194a9084906127ce565b90915550505b826001600160a01b0316846001600160a01b03167fddf252ad1be2c89b69c2b068fc378daa952ba7f163c4a11628f55a4df523b3ef8460405161199591815260200190565b60405180910390a36115db565b60006127106119b36105dc846127e6565b6119bd91906128df565b905080156119dd57600f546119dd9030906001600160a01b031683611eaa565b600f5460405163d97ebbbf60e01b8152600481018390526001600160a01b039091169063d97ebbbf90602401600060405180830381600087803b158015611a2357600080fd5b505af1158015611a37573d6000803e3d6000fd5b505050505050565b6000611a4961143b565b9050600081600854611a5b9190612901565b905082156116be576000611a70600a856128df565b600554909150611a8b9030906001600160a01b0316836116c3565b81156115db57611a9b8185612901565b9350611ab7611aae83610ed387826127ce565b60075490611bdc565b600755306000908152600b60205260408082208290555185917faed2536735e741d1b0d84f1be0fb9a25077a2ade9e50322fd18389d23711b7d591a250505050565b6001600160a01b03811660009081526001830160205260408120541515610849565b6000546001600160a01b03163314610b895760405162461bcd60e51b815260206004820181905260248201527f4f776e61626c653a2063616c6c6572206973206e6f7420746865206f776e6572604482015260640161065e565b611b7d6120b8565b6002805460ff191690557f5db9ee0a495bf2e6ff9c91a7834c1ba4fdd244a5e8aa4e537bd38aeae4b073aa335b6040516001600160a01b03909116815260200160405180910390a1565b6000610849836001600160a01b038416612101565b60006108498383612150565b600080546001600160a01b038381166001600160a01b0319831681178455604051919092169283917f8be0079c531659141344cd1fd0a4f28419497f9722a3daafe3b4186f6b6457e09190a35050565b600081600003611c4a57506000919050565b60006001611c5784612216565b901c6001901b90506001818481611c7057611c706128c9565b048201901c90506001818481611c8857611c886128c9565b048201901c90506001818481611ca057611ca06128c9565b048201901c90506001818481611cb857611cb86128c9565b048201901c90506001818481611cd057611cd06128c9565b048201901c90506001818481611ce857611ce86128c9565b048201901c90506001818481611d0057611d006128c9565b048201901c905061084981828581611d1a57611d1a6128c9565b046122aa565b600061084983670de0b6b3a7640000846122c0565b611d3d6114d1565b6002805460ff191660011790557f62e78cea01bee320cd4e420270b5ea74000d11b0c9f74754ebdbfc544b05a258611baa3390565b611d7a611b1b565b60028054610100600160a81b0319166101006001600160a01b038b81169190910291909117909155600380546001600160a01b03199081168a8416179091556004805482168984161790556005805482168884161790556006805490911691831691909117905560005b611dee600d611fd0565b811015611e24576000611e02600d83611fda565b9050611e0f600d82611fbb565b50508080611e1c90612a4f565b915050611de4565b50611e30600d89611bc7565b50611e3c600d88611bc7565b50611e48600d87611bc7565b50611e54600d86611bc7565b50611e60600d85611bc7565b50611e6c600d84611bc7565b50611e78600d83611bc7565b50611e84600d30611bc7565b50611e91600d6000611bc7565b50611e9f600d61dead611bc7565b505050505050505050565b6040516001600160a01b0383166024820152604481018290526116be90849063a9059cbb60e01b906064016115a4565b8060086000828254611eec9190612901565b9091555050600754600090611f02908390611d20565b9050611f0f600d84611af9565b15611f47576001600160a01b0383166000908152600b602052604081208054849290611f3c908490612901565b90915550611f759050565b6001600160a01b0383166000908152600b602052604081208054839290611f6f908490612901565b90915550505b6040518281526000906001600160a01b038516907fddf252ad1be2c89b69c2b068fc378daa952ba7f163c4a11628f55a4df523b3ef9060200160405180910390a3505050565b6000610849836001600160a01b03841661238d565b6000610a95825490565b60006108498383612480565b600061203b826040518060400160405280602081526020017f5361666545524332303a206c6f772d6c6576656c2063616c6c206661696c6564815250856001600160a01b03166124aa9092919063ffffffff16565b8051909150156116be57808060200190518101906120599190612a68565b6116be5760405162461bcd60e51b815260206004820152602a60248201527f5361666545524332303a204552433230206f7065726174696f6e20646964206e6044820152691bdd081cdd58d8d9595960b21b606482015260840161065e565b60025460ff16610b895760405162461bcd60e51b815260206004820152601460248201527314185d5cd8589b194e881b9bdd081c185d5cd95960621b604482015260640161065e565b600081815260018301602052604081205461214857508154600181810184556000848152602080822090930184905584548482528286019093526040902091909155610a95565b506000610a95565b60008080600019848609848602925082811083820303915050670de0b6b3a764000081106121945760405163698d9a0160e11b81526004810182905260240161065e565b600080670de0b6b3a764000086880991506706f05b59d3b1ffff82119050826000036121d25780670de0b6b3a7640000850401945050505050610a95565b620400008285030493909111909103600160ee1b02919091177faccb18165bd6fe31ae1cf318dc5b51eee0e1ba569b88cd74c1773b91fac106690201905092915050565b600080608083901c1561222b57608092831c92015b604083901c1561223d57604092831c92015b602083901c1561224f57602092831c92015b601083901c1561226157601092831c92015b600883901c1561227357600892831c92015b600483901c1561228557600492831c92015b600283901c1561229757600292831c92015b600183901c15610a955760010192915050565b60008183106122b95781610849565b5090919050565b60008080600019858709858702925082811083820303915050806000036122fa578382816122f0576122f06128c9565b0492505050610849565b83811061232457604051631dcf306360e21b8152600481018290526024810185905260440161065e565b60008486880960026001871981018816978890046003810283188082028403028082028403028082028403028082028403028082028403029081029092039091026000889003889004909101858311909403939093029303949094049190911702949350505050565b600081815260018301602052604081205480156124765760006123b1600183612901565b85549091506000906123c590600190612901565b905081811461242a5760008660000182815481106123e5576123e5612a8a565b906000526020600020015490508087600001848154811061240857612408612a8a565b6000918252602080832090910192909255918252600188019052604090208390555b855486908061243b5761243b612aa0565b600190038181906000526020600020016000905590558560010160008681526020019081526020016000206000905560019350505050610a95565b6000915050610a95565b600082600001828154811061249757612497612a8a565b9060005260206000200154905092915050565b6060610fa7848460008585600080866001600160a01b031685876040516124d19190612ab6565b60006040518083038185875af1925050503d806000811461250e576040519150601f19603f3d011682016040523d82523d6000602084013e612513565b606091505b50915091506125248783838761252f565b979650505050505050565b6060831561259e578251600003612597576001600160a01b0385163b6125975760405162461bcd60e51b815260206004820152601d60248201527f416464726573733a2063616c6c20746f206e6f6e2d636f6e7472616374000000604482015260640161065e565b5081610fa7565b610fa783838151156125b35781518083602001fd5b8060405162461bcd60e51b815260040161065e9190612612565b6000602082840312156125df57600080fd5b5035919050565b60005b838110156126015781810151838201526020016125e9565b838111156115db5750506000910152565b60208152600082518060208401526126318160408501602087016125e6565b601f01601f19169190910160400192915050565b80356001600160a01b03811681146107f257600080fd5b6000806040838503121561266f57600080fd5b61267883612645565b946020939093013593505050565b60008060006060848603121561269b57600080fd5b6126a484612645565b92506126b260208501612645565b9150604084013590509250925092565b6000602082840312156126d457600080fd5b61084982612645565b60008060008060008060008060006101208a8c0312156126fc57600080fd5b6127058a612645565b985061271360208b01612645565b975061272160408b01612645565b965061272f60608b01612645565b955061273d60808b01612645565b945061274b60a08b01612645565b935061275960c08b01612645565b925061276760e08b01612645565b91506127766101008b01612645565b90509295985092959850929598565b6000806040838503121561279857600080fd5b6127a183612645565b91506127af60208401612645565b90509250929050565b634e487b7160e01b600052601160045260246000fd5b600082198211156127e1576127e16127b8565b500190565b6000816000190483118215151615612800576128006127b8565b500290565b600181811c9082168061281957607f821691505b60208210810361147e57634e487b7160e01b600052602260045260246000fd5b60208082526029908201527f536e61636b73426173653a20617070726f76652066726f6d20746865207a65726040820152686f206164647265737360b81b606082015260800190565b60208082526027908201527f536e61636b73426173653a20617070726f766520746f20746865207a65726f206040820152666164647265737360c81b606082015260800190565b634e487b7160e01b600052601260045260246000fd5b6000826128fc57634e487b7160e01b600052601260045260246000fd5b500490565b600082821015612913576129136127b8565b500390565b60208082526024908201527f536e61636b73426173653a20696e76616c69642062757920746f6b656e20616d6040820152631bdd5b9d60e21b606082015260800190565b600181815b8085111561299757816000190482111561297d5761297d6127b8565b8085161561298a57918102915b93841c9390800290612961565b509250929050565b6000826129ae57506001610a95565b816129bb57506000610a95565b81600181146129d157600281146129db576129f7565b6001915050610a95565b60ff8411156129ec576129ec6127b8565b50506001821b610a95565b5060208310610133831016604e8410600b8410161715612a1a575081810a610a95565b612a24838361295c565b8060001904821115612a3857612a386127b8565b029392505050565b600061084960ff84168361299f565b600060018201612a6157612a616127b8565b5060010190565b600060208284031215612a7a57600080fd5b8151801515811461084957600080fd5b634e487b7160e01b600052603260045260246000fd5b634e487b7160e01b600052603160045260246000fd5b60008251612ac88184602087016125e6565b919091019291505056fea2646970667358221220aa6069f2a5ceffe7a3bc9a3d5fcbbc4994c73db635ae5942897f5248ee86841964736f6c634300080f0033",
  "linkReferences": {},
  "deployedLinkReferences": {}
}