{
  "_format": "hh-sol-artifact-1",
  "contractName": "HoldingFeeDistributor",
  "sourceName": "contracts/HoldingFeeDistributor.sol",
  "abi": [
    {
      "anonymous": false,
      "inputs": [
        {
          "indexed": true,
          "internalType": "address",
          "name": "account",
          "type": "address"
        },
        {
          "indexed": true,
          "internalType": "uint256",
          "name": "amount",
          "type": "uint256"
        }
      ],
      "name": "BtcSnacksClaimed",
      "type": "event"
    },
    {
      "anonymous": false,
      "inputs": [
        {
          "indexed": true,
          "internalType": "uint256",
          "name": "feeAmount",
          "type": "uint256"
        }
      ],
      "name": "BtcSnacksFeeAdded",
      "type": "event"
    },
    {
      "anonymous": false,
      "inputs": [
        {
          "indexed": true,
          "internalType": "address",
          "name": "account",
          "type": "address"
        },
        {
          "indexed": true,
          "internalType": "uint256",
          "name": "amount",
          "type": "uint256"
        }
      ],
      "name": "EthSnacksClaimed",
      "type": "event"
    },
    {
      "anonymous": false,
      "inputs": [
        {
          "indexed": true,
          "internalType": "uint256",
          "name": "feeAmount",
          "type": "uint256"
        }
      ],
      "name": "EthSnacksFeeAdded",
      "type": "event"
    },
    {
      "anonymous": false,
      "inputs": [
        {
          "indexed": true,
          "internalType": "bytes32",
          "name": "oldMerkleRoot",
          "type": "bytes32"
        },
        {
          "indexed": true,
          "internalType": "bytes32",
          "name": "newMerkleRoot",
          "type": "bytes32"
        }
      ],
      "name": "MerkleRootUpdated",
      "type": "event"
    },
    {
      "anonymous": false,
      "inputs": [
        {
          "indexed": false,
          "internalType": "address",
          "name": "account",
          "type": "address"
        }
      ],
      "name": "Paused",
      "type": "event"
    },
    {
      "anonymous": false,
      "inputs": [
        {
          "indexed": true,
          "internalType": "bytes32",
          "name": "role",
          "type": "bytes32"
        },
        {
          "indexed": true,
          "internalType": "bytes32",
          "name": "previousAdminRole",
          "type": "bytes32"
        },
        {
          "indexed": true,
          "internalType": "bytes32",
          "name": "newAdminRole",
          "type": "bytes32"
        }
      ],
      "name": "RoleAdminChanged",
      "type": "event"
    },
    {
      "anonymous": false,
      "inputs": [
        {
          "indexed": true,
          "internalType": "bytes32",
          "name": "role",
          "type": "bytes32"
        },
        {
          "indexed": true,
          "internalType": "address",
          "name": "account",
          "type": "address"
        },
        {
          "indexed": true,
          "internalType": "address",
          "name": "sender",
          "type": "address"
        }
      ],
      "name": "RoleGranted",
      "type": "event"
    },
    {
      "anonymous": false,
      "inputs": [
        {
          "indexed": true,
          "internalType": "bytes32",
          "name": "role",
          "type": "bytes32"
        },
        {
          "indexed": true,
          "internalType": "address",
          "name": "account",
          "type": "address"
        },
        {
          "indexed": true,
          "internalType": "address",
          "name": "sender",
          "type": "address"
        }
      ],
      "name": "RoleRevoked",
      "type": "event"
    },
    {
      "anonymous": false,
      "inputs": [
        {
          "indexed": false,
          "internalType": "address",
          "name": "account",
          "type": "address"
        }
      ],
      "name": "Unpaused",
      "type": "event"
    },
    {
      "inputs": [],
      "name": "AUTHORITY_ROLE",
      "outputs": [
        {
          "internalType": "bytes32",
          "name": "",
          "type": "bytes32"
        }
      ],
      "stateMutability": "view",
      "type": "function"
    },
    {
      "inputs": [],
      "name": "DEFAULT_ADMIN_ROLE",
      "outputs": [
        {
          "internalType": "bytes32",
          "name": "",
          "type": "bytes32"
        }
      ],
      "stateMutability": "view",
      "type": "function"
    },
    {
      "inputs": [],
      "name": "PAUSER_ROLE",
      "outputs": [
        {
          "internalType": "bytes32",
          "name": "",
          "type": "bytes32"
        }
      ],
      "stateMutability": "view",
      "type": "function"
    },
    {
      "inputs": [],
      "name": "btcSnacks",
      "outputs": [
        {
          "internalType": "address",
          "name": "",
          "type": "address"
        }
      ],
      "stateMutability": "view",
      "type": "function"
    },
    {
      "inputs": [
        {
          "internalType": "address",
          "name": "account_",
          "type": "address"
        },
        {
          "internalType": "uint256",
          "name": "cumulativeBtcSnacksAmount_",
          "type": "uint256"
        },
        {
          "internalType": "uint256",
          "name": "cumulativeEthSnacksAmount_",
          "type": "uint256"
        },
        {
          "internalType": "bytes32",
          "name": "expectedMerkleRoot_",
          "type": "bytes32"
        },
        {
          "internalType": "bytes32[]",
          "name": "merkleProof_",
          "type": "bytes32[]"
        }
      ],
      "name": "claim",
      "outputs": [],
      "stateMutability": "nonpayable",
      "type": "function"
    },
    {
      "inputs": [
        {
          "internalType": "address",
          "name": "btcSnacks_",
          "type": "address"
        },
        {
          "internalType": "address",
          "name": "ethSnacks_",
          "type": "address"
        },
        {
          "internalType": "address",
          "name": "authority_",
          "type": "address"
        }
      ],
      "name": "configure",
      "outputs": [],
      "stateMutability": "nonpayable",
      "type": "function"
    },
    {
      "inputs": [
        {
          "internalType": "address",
          "name": "",
          "type": "address"
        }
      ],
      "name": "cumulativeBtcSnacksClaimed",
      "outputs": [
        {
          "internalType": "uint256",
          "name": "",
          "type": "uint256"
        }
      ],
      "stateMutability": "view",
      "type": "function"
    },
    {
      "inputs": [],
      "name": "cumulativeBtcSnacksFeeAmount",
      "outputs": [
        {
          "internalType": "uint256",
          "name": "",
          "type": "uint256"
        }
      ],
      "stateMutability": "view",
      "type": "function"
    },
    {
      "inputs": [
        {
          "internalType": "address",
          "name": "",
          "type": "address"
        }
      ],
      "name": "cumulativeEthSnacksClaimed",
      "outputs": [
        {
          "internalType": "uint256",
          "name": "",
          "type": "uint256"
        }
      ],
      "stateMutability": "view",
      "type": "function"
    },
    {
      "inputs": [],
      "name": "cumulativeEthSnacksFeeAmount",
      "outputs": [
        {
          "internalType": "uint256",
          "name": "",
          "type": "uint256"
        }
      ],
      "stateMutability": "view",
      "type": "function"
    },
    {
      "inputs": [],
      "name": "ethSnacks",
      "outputs": [
        {
          "internalType": "address",
          "name": "",
          "type": "address"
        }
      ],
      "stateMutability": "view",
      "type": "function"
    },
    {
      "inputs": [
        {
          "internalType": "bytes32",
          "name": "role",
          "type": "bytes32"
        }
      ],
      "name": "getRoleAdmin",
      "outputs": [
        {
          "internalType": "bytes32",
          "name": "",
          "type": "bytes32"
        }
      ],
      "stateMutability": "view",
      "type": "function"
    },
    {
      "inputs": [
        {
          "internalType": "bytes32",
          "name": "role",
          "type": "bytes32"
        },
        {
          "internalType": "address",
          "name": "account",
          "type": "address"
        }
      ],
      "name": "grantRole",
      "outputs": [],
      "stateMutability": "nonpayable",
      "type": "function"
    },
    {
      "inputs": [
        {
          "internalType": "bytes32",
          "name": "role",
          "type": "bytes32"
        },
        {
          "internalType": "address",
          "name": "account",
          "type": "address"
        }
      ],
      "name": "hasRole",
      "outputs": [
        {
          "internalType": "bool",
          "name": "",
          "type": "bool"
        }
      ],
      "stateMutability": "view",
      "type": "function"
    },
    {
      "inputs": [],
      "name": "merkleRoot",
      "outputs": [
        {
          "internalType": "bytes32",
          "name": "",
          "type": "bytes32"
        }
      ],
      "stateMutability": "view",
      "type": "function"
    },
    {
      "inputs": [
        {
          "internalType": "uint256",
          "name": "feeAmount_",
          "type": "uint256"
        }
      ],
      "name": "notifyBtcSnacksFeeAmount",
      "outputs": [],
      "stateMutability": "nonpayable",
      "type": "function"
    },
    {
      "inputs": [
        {
          "internalType": "uint256",
          "name": "feeAmount_",
          "type": "uint256"
        }
      ],
      "name": "notifyEthSnacksFeeAmount",
      "outputs": [],
      "stateMutability": "nonpayable",
      "type": "function"
    },
    {
      "inputs": [],
      "name": "pause",
      "outputs": [],
      "stateMutability": "nonpayable",
      "type": "function"
    },
    {
      "inputs": [],
      "name": "paused",
      "outputs": [
        {
          "internalType": "bool",
          "name": "",
          "type": "bool"
        }
      ],
      "stateMutability": "view",
      "type": "function"
    },
    {
      "inputs": [
        {
          "internalType": "bytes32",
          "name": "role",
          "type": "bytes32"
        },
        {
          "internalType": "address",
          "name": "account",
          "type": "address"
        }
      ],
      "name": "renounceRole",
      "outputs": [],
      "stateMutability": "nonpayable",
      "type": "function"
    },
    {
      "inputs": [
        {
          "internalType": "bytes32",
          "name": "role",
          "type": "bytes32"
        },
        {
          "internalType": "address",
          "name": "account",
          "type": "address"
        }
      ],
      "name": "revokeRole",
      "outputs": [],
      "stateMutability": "nonpayable",
      "type": "function"
    },
    {
      "inputs": [
        {
          "internalType": "bytes32",
          "name": "merkleRoot_",
          "type": "bytes32"
        }
      ],
      "name": "setMerkleRoot",
      "outputs": [],
      "stateMutability": "nonpayable",
      "type": "function"
    },
    {
      "inputs": [
        {
          "internalType": "bytes4",
          "name": "interfaceId",
          "type": "bytes4"
        }
      ],
      "name": "supportsInterface",
      "outputs": [
        {
          "internalType": "bool",
          "name": "",
          "type": "bool"
        }
      ],
      "stateMutability": "view",
      "type": "function"
    },
    {
      "inputs": [],
      "name": "unpause",
      "outputs": [],
      "stateMutability": "nonpayable",
      "type": "function"
    }
  ],
  "bytecode": "0x608060405234801561001057600080fd5b506000805460ff191681556100259033610054565b61004f7f65d7a28e3265b37a6474929f336521b332c1681b933f6cb9f3376673440d862a33610054565b6100dc565b60008281526001602090815260408083206001600160a01b038516845290915290205460ff166100d85760008281526001602081815260408084206001600160a01b0386168086529252808420805460ff19169093179092559051339285917f2f8788117e7eff1d82e926ec794901d17c78024a50270940304540a733656f0d9190a45b5050565b61148a806100eb6000396000f3fe608060405234801561001057600080fd5b50600436106101575760003560e01c80635c975abb116100c3578063d1e4ecb41161007c578063d1e4ecb4146102e4578063d547741f146102ed578063d97ebbbf14610300578063e1b656ae14610313578063e205cf7b14610326578063e63ab1e91461034657600080fd5b80635c975abb14610283578063716ab3ac1461028e5780637cb64759146102ae5780638456cb59146102c157806391d14854146102c9578063a217fddf146102dc57600080fd5b80632f2ff15d116101155780632f2ff15d1461020857806336568abe1461021b5780633f4ba83a1461022e5780634a3fba0e1461023657806355d28f201461025d57806356b2f01f1461027057600080fd5b806256c9301461015c57806301ffc9a71461018c5780630d8fe81a146101af578063248a9ca3146101c4578063268de9c5146101f65780632eb4a7ab146101ff575b600080fd5b60045461016f906001600160a01b031681565b6040516001600160a01b0390911681526020015b60405180910390f35b61019f61019a3660046110f7565b61036d565b6040519015158152602001610183565b6101c26101bd366004611121565b6103a4565b005b6101e86101d2366004611121565b6000908152600160208190526040909120015490565b604051908152602001610183565b6101e860035481565b6101e860065481565b6101c2610216366004611156565b61046e565b6101c2610229366004611156565b610499565b6101c2610517565b6101e87fd565e3fc066df348a5cbc05a8d6323e00552838041cea2d84cc59876ba37735d81565b6101c261026b366004611182565b61054c565b60055461016f906001600160a01b031681565b60005460ff1661019f565b6101e861029c3660046111c5565b60076020526000908152604090205481565b6101c26102bc366004611121565b6105b7565b6101c261061e565b61019f6102d7366004611156565b610650565b6101e8600081565b6101e860025481565b6101c26102fb366004611156565b61067b565b6101c261030e366004611121565b6106a1565b6101c26103213660046111e0565b610766565b6101e86103343660046111c5565b60086020526000908152604090205481565b6101e87f65d7a28e3265b37a6474929f336521b332c1681b933f6cb9f3376673440d862a81565b60006001600160e01b03198216637965db0b60e01b148061039e57506301ffc9a760e01b6001600160e01b03198316145b92915050565b6004546001600160a01b031633146104295760405162461bcd60e51b815260206004820152603b60248201527f486f6c64696e674665654469737472696275746f723a2063616c6c657220697360448201527f206e6f742074686520427463536e61636b7320636f6e7472616374000000000060648201526084015b60405180910390fd5b806002600082825461043b9190611298565b909155505060405181907fbcafb1649b3683767e2ed102495712a29e94cad668bede3c1731efb29e2dd3e690600090a250565b6000828152600160208190526040909120015461048a81610a11565b6104948383610a1b565b505050565b6001600160a01b03811633146105095760405162461bcd60e51b815260206004820152602f60248201527f416363657373436f6e74726f6c3a2063616e206f6e6c792072656e6f756e636560448201526e103937b632b9903337b91039b2b63360891b6064820152608401610420565b6105138282610a86565b5050565b7f65d7a28e3265b37a6474929f336521b332c1681b933f6cb9f3376673440d862a61054181610a11565b610549610aed565b50565b600061055781610a11565b600480546001600160a01b038087166001600160a01b03199283161790925560058054928616929091169190911790556105b17fd565e3fc066df348a5cbc05a8d6323e00552838041cea2d84cc59876ba37735d83610a1b565b50505050565b6105bf610b3f565b7fd565e3fc066df348a5cbc05a8d6323e00552838041cea2d84cc59876ba37735d6105e981610a11565b6006546040518391907ffd69edeceaf1d6832d935be1fba54ca93bf17e71520c6c9ffc08d6e9529f875790600090a350600655565b7f65d7a28e3265b37a6474929f336521b332c1681b933f6cb9f3376673440d862a61064881610a11565b610549610b87565b60009182526001602090815260408084206001600160a01b0393909316845291905290205460ff1690565b6000828152600160208190526040909120015461069781610a11565b6104948383610a86565b6005546001600160a01b031633146107215760405162461bcd60e51b815260206004820152603b60248201527f486f6c64696e674665654469737472696275746f723a2063616c6c657220697360448201527f206e6f742074686520457468536e61636b7320636f6e747261637400000000006064820152608401610420565b80600360008282546107339190611298565b909155505060405181907f4f06d723dfc1876967711cb831f657b88cb2c9181080b27b81f89d8771f4851b90600090a250565b61076e610b3f565b82600654146107d65760405162461bcd60e51b815260206004820152602e60248201527f486f6c64696e674665654469737472696275746f723a206d65726b6c6520726f60448201526d1bdd081dd85cc81d5c19185d195960921b6064820152608401610420565b6040516bffffffffffffffffffffffff19606088901b166020820152603481018690526054810185905260009060740160405160208183030381529060405280519060200120905061082c838360065484610bc4565b6108845760405162461bcd60e51b8152602060048201526024808201527f486f6c64696e674665654469737472696275746f723a20696e76616c696420706044820152633937b7b360e11b6064820152608401610420565b6001600160a01b03871660009081526007602090815260408083205460089092529091205487821087821081806108b85750805b6109145760405162461bcd60e51b815260206004820152602760248201527f486f6c64696e674665654469737472696275746f723a206e6f7468696e6720746044820152666f20636c61696d60c81b6064820152608401610420565b811561098c576000610926858c6112b0565b6001600160a01b03808e1660009081526007602052604090208d905560045491925061095491168d83610bde565b60405181906001600160a01b038e16907f7764d677932f710b9fdce7bfa11afac114ecad7a34c4ce456ad36663a610de9690600090a3505b8015610a0457600061099e848b6112b0565b6001600160a01b03808e1660009081526008602052604090208c90556005549192506109cc91168d83610bde565b60405181906001600160a01b038e16907f67860523dd6021a263934a6b352a920f2e1f2011a9cd97b713fe8b0ffe5e371190600090a3505b5050505050505050505050565b6105498133610c30565b610a258282610650565b6105135760008281526001602081815260408084206001600160a01b0386168086529252808420805460ff19169093179092559051339285917f2f8788117e7eff1d82e926ec794901d17c78024a50270940304540a733656f0d9190a45050565b610a908282610650565b156105135760008281526001602090815260408083206001600160a01b0385168085529252808320805460ff1916905551339285917ff6391f5c32d9c69d2a47ea670b442974b53935d1edc7fd64eb21e047a839171b9190a45050565b610af5610c89565b6000805460ff191690557f5db9ee0a495bf2e6ff9c91a7834c1ba4fdd244a5e8aa4e537bd38aeae4b073aa335b6040516001600160a01b03909116815260200160405180910390a1565b60005460ff1615610b855760405162461bcd60e51b815260206004820152601060248201526f14185d5cd8589b194e881c185d5cd95960821b6044820152606401610420565b565b610b8f610b3f565b6000805460ff191660011790557f62e78cea01bee320cd4e420270b5ea74000d11b0c9f74754ebdbfc544b05a258610b223390565b600082610bd2868685610cd2565b1490505b949350505050565b604080516001600160a01b038416602482015260448082018490528251808303909101815260649091019091526020810180516001600160e01b031663a9059cbb60e01b179052610494908490610d1e565b610c3a8282610650565b61051357610c4781610df0565b610c52836020610e02565b604051602001610c639291906112f3565b60408051601f198184030181529082905262461bcd60e51b825261042091600401611368565b60005460ff16610b855760405162461bcd60e51b815260206004820152601460248201527314185d5cd8589b194e881b9bdd081c185d5cd95960621b6044820152606401610420565b600081815b84811015610d1557610d0182878784818110610cf557610cf561139b565b90506020020135610fa5565b915080610d0d816113b1565b915050610cd7565b50949350505050565b6000610d73826040518060400160405280602081526020017f5361666545524332303a206c6f772d6c6576656c2063616c6c206661696c6564815250856001600160a01b0316610fd49092919063ffffffff16565b8051909150156104945780806020019051810190610d9191906113ca565b6104945760405162461bcd60e51b815260206004820152602a60248201527f5361666545524332303a204552433230206f7065726174696f6e20646964206e6044820152691bdd081cdd58d8d9595960b21b6064820152608401610420565b606061039e6001600160a01b03831660145b60606000610e118360026113ec565b610e1c906002611298565b67ffffffffffffffff811115610e3457610e3461140b565b6040519080825280601f01601f191660200182016040528015610e5e576020820181803683370190505b509050600360fc1b81600081518110610e7957610e7961139b565b60200101906001600160f81b031916908160001a905350600f60fb1b81600181518110610ea857610ea861139b565b60200101906001600160f81b031916908160001a9053506000610ecc8460026113ec565b610ed7906001611298565b90505b6001811115610f4f576f181899199a1a9b1b9c1cb0b131b232b360811b85600f1660108110610f0b57610f0b61139b565b1a60f81b828281518110610f2157610f2161139b565b60200101906001600160f81b031916908160001a90535060049490941c93610f4881611421565b9050610eda565b508315610f9e5760405162461bcd60e51b815260206004820181905260248201527f537472696e67733a20686578206c656e67746820696e73756666696369656e746044820152606401610420565b9392505050565b6000818310610fc1576000828152602084905260409020610f9e565b6000838152602083905260409020610f9e565b6060610bd6848460008585600080866001600160a01b03168587604051610ffb9190611438565b60006040518083038185875af1925050503d8060008114611038576040519150601f19603f3d011682016040523d82523d6000602084013e61103d565b606091505b509150915061104e87838387611059565b979650505050505050565b606083156110c85782516000036110c1576001600160a01b0385163b6110c15760405162461bcd60e51b815260206004820152601d60248201527f416464726573733a2063616c6c20746f206e6f6e2d636f6e74726163740000006044820152606401610420565b5081610bd6565b610bd683838151156110dd5781518083602001fd5b8060405162461bcd60e51b81526004016104209190611368565b60006020828403121561110957600080fd5b81356001600160e01b031981168114610f9e57600080fd5b60006020828403121561113357600080fd5b5035919050565b80356001600160a01b038116811461115157600080fd5b919050565b6000806040838503121561116957600080fd5b823591506111796020840161113a565b90509250929050565b60008060006060848603121561119757600080fd5b6111a08461113a565b92506111ae6020850161113a565b91506111bc6040850161113a565b90509250925092565b6000602082840312156111d757600080fd5b610f9e8261113a565b60008060008060008060a087890312156111f957600080fd5b6112028761113a565b9550602087013594506040870135935060608701359250608087013567ffffffffffffffff8082111561123457600080fd5b818901915089601f83011261124857600080fd5b81358181111561125757600080fd5b8a60208260051b850101111561126c57600080fd5b6020830194508093505050509295509295509295565b634e487b7160e01b600052601160045260246000fd5b600082198211156112ab576112ab611282565b500190565b6000828210156112c2576112c2611282565b500390565b60005b838110156112e25781810151838201526020016112ca565b838111156105b15750506000910152565b7f416363657373436f6e74726f6c3a206163636f756e742000000000000000000081526000835161132b8160178501602088016112c7565b7001034b99036b4b9b9b4b733903937b6329607d1b601791840191820152835161135c8160288401602088016112c7565b01602801949350505050565b60208152600082518060208401526113878160408501602087016112c7565b601f01601f19169190910160400192915050565b634e487b7160e01b600052603260045260246000fd5b6000600182016113c3576113c3611282565b5060010190565b6000602082840312156113dc57600080fd5b81518015158114610f9e57600080fd5b600081600019048311821515161561140657611406611282565b500290565b634e487b7160e01b600052604160045260246000fd5b60008161143057611430611282565b506000190190565b6000825161144a8184602087016112c7565b919091019291505056fea2646970667358221220a6af4276322cc3c55e626bd248dfb891c5bd849b069f95df2817c5c956c8de1e64736f6c634300080f0033",
  "linkReferences": {},
  "deployedLinkReferences": {}
}