{
  "_format": "hh-sol-artifact-1",
  "contractName": "LunchBox",
  "sourceName": "contracts/LunchBox.sol",
  "abi": [
    {
      "inputs": [
        {
          "internalType": "address",
          "name": "busd_",
          "type": "address"
        },
        {
          "internalType": "address",
          "name": "btc_",
          "type": "address"
        },
        {
          "internalType": "address",
          "name": "eth_",
          "type": "address"
        },
        {
          "internalType": "address",
          "name": "router_",
          "type": "address"
        }
      ],
      "stateMutability": "nonpayable",
      "type": "constructor"
    },
    {
      "inputs": [
        {
          "internalType": "uint256",
          "name": "x",
          "type": "uint256"
        }
      ],
      "name": "PRBMathUD60x18__FromUintOverflow",
      "type": "error"
    },
    {
      "inputs": [
        {
          "internalType": "uint256",
          "name": "prod1",
          "type": "uint256"
        }
      ],
      "name": "PRBMath__MulDivFixedPointOverflow",
      "type": "error"
    },
    {
      "inputs": [
        {
          "internalType": "uint256",
          "name": "prod1",
          "type": "uint256"
        },
        {
          "internalType": "uint256",
          "name": "denominator",
          "type": "uint256"
        }
      ],
      "name": "PRBMath__MulDivOverflow",
      "type": "error"
    },
    {
      "anonymous": false,
      "inputs": [
        {
          "indexed": true,
          "internalType": "uint256",
          "name": "cumulativeTotalSupplyFactor",
          "type": "uint256"
        }
      ],
      "name": "CumulativeTotalSupplyFactorUpdated",
      "type": "event"
    },
    {
      "anonymous": false,
      "inputs": [
        {
          "indexed": true,
          "internalType": "address",
          "name": "previousOwner",
          "type": "address"
        },
        {
          "indexed": true,
          "internalType": "address",
          "name": "newOwner",
          "type": "address"
        }
      ],
      "name": "OwnershipTransferred",
      "type": "event"
    },
    {
      "anonymous": false,
      "inputs": [
        {
          "indexed": true,
          "internalType": "address[]",
          "name": "destinations",
          "type": "address[]"
        },
        {
          "indexed": false,
          "internalType": "uint256[]",
          "name": "percentages",
          "type": "uint256[]"
        }
      ],
      "name": "RecipientsUpdated",
      "type": "event"
    },
    {
      "anonymous": false,
      "inputs": [
        {
          "indexed": false,
          "internalType": "uint256",
          "name": "reward",
          "type": "uint256"
        }
      ],
      "name": "RewardAdded",
      "type": "event"
    },
    {
      "anonymous": false,
      "inputs": [
        {
          "indexed": true,
          "internalType": "address",
          "name": "user",
          "type": "address"
        },
        {
          "indexed": false,
          "internalType": "uint256",
          "name": "reward",
          "type": "uint256"
        }
      ],
      "name": "RewardPaid",
      "type": "event"
    },
    {
      "anonymous": false,
      "inputs": [
        {
          "indexed": false,
          "internalType": "uint256",
          "name": "newDuration",
          "type": "uint256"
        }
      ],
      "name": "RewardsDurationUpdated",
      "type": "event"
    },
    {
      "anonymous": false,
      "inputs": [
        {
          "indexed": true,
          "internalType": "address",
          "name": "user",
          "type": "address"
        },
        {
          "indexed": false,
          "internalType": "uint256",
          "name": "amount",
          "type": "uint256"
        }
      ],
      "name": "Staked",
      "type": "event"
    },
    {
      "anonymous": false,
      "inputs": [
        {
          "indexed": true,
          "internalType": "address",
          "name": "user",
          "type": "address"
        },
        {
          "indexed": false,
          "internalType": "uint256",
          "name": "amount",
          "type": "uint256"
        }
      ],
      "name": "Withdrawn",
      "type": "event"
    },
    {
      "inputs": [],
      "name": "btc",
      "outputs": [
        {
          "internalType": "address",
          "name": "",
          "type": "address"
        }
      ],
      "stateMutability": "view",
      "type": "function"
    },
    {
      "inputs": [],
      "name": "btcSnacks",
      "outputs": [
        {
          "internalType": "address",
          "name": "",
          "type": "address"
        }
      ],
      "stateMutability": "view",
      "type": "function"
    },
    {
      "inputs": [
        {
          "internalType": "address",
          "name": "",
          "type": "address"
        }
      ],
      "name": "btcSnacksAmountStoredFor",
      "outputs": [
        {
          "internalType": "uint256",
          "name": "",
          "type": "uint256"
        }
      ],
      "stateMutability": "view",
      "type": "function"
    },
    {
      "inputs": [],
      "name": "busd",
      "outputs": [
        {
          "internalType": "address",
          "name": "",
          "type": "address"
        }
      ],
      "stateMutability": "view",
      "type": "function"
    },
    {
      "inputs": [
        {
          "internalType": "address",
          "name": "zoinks_",
          "type": "address"
        },
        {
          "internalType": "address",
          "name": "snacks_",
          "type": "address"
        },
        {
          "internalType": "address",
          "name": "btcSnacks_",
          "type": "address"
        },
        {
          "internalType": "address",
          "name": "ethSnacks_",
          "type": "address"
        },
        {
          "internalType": "address",
          "name": "snacksPool_",
          "type": "address"
        },
        {
          "internalType": "address",
          "name": "poolRewardDistributor_",
          "type": "address"
        },
        {
          "internalType": "address",
          "name": "seniorage_",
          "type": "address"
        }
      ],
      "name": "configure",
      "outputs": [],
      "stateMutability": "nonpayable",
      "type": "function"
    },
    {
      "inputs": [],
      "name": "cumulativeTotalSupplyFactor",
      "outputs": [
        {
          "internalType": "uint256",
          "name": "",
          "type": "uint256"
        }
      ],
      "stateMutability": "view",
      "type": "function"
    },
    {
      "inputs": [
        {
          "internalType": "address",
          "name": "user_",
          "type": "address"
        }
      ],
      "name": "earned",
      "outputs": [
        {
          "internalType": "uint256",
          "name": "",
          "type": "uint256"
        }
      ],
      "stateMutability": "view",
      "type": "function"
    },
    {
      "inputs": [],
      "name": "eth",
      "outputs": [
        {
          "internalType": "address",
          "name": "",
          "type": "address"
        }
      ],
      "stateMutability": "view",
      "type": "function"
    },
    {
      "inputs": [],
      "name": "ethSnacks",
      "outputs": [
        {
          "internalType": "address",
          "name": "",
          "type": "address"
        }
      ],
      "stateMutability": "view",
      "type": "function"
    },
    {
      "inputs": [
        {
          "internalType": "address",
          "name": "",
          "type": "address"
        }
      ],
      "name": "ethSnacksAmountStoredFor",
      "outputs": [
        {
          "internalType": "uint256",
          "name": "",
          "type": "uint256"
        }
      ],
      "stateMutability": "view",
      "type": "function"
    },
    {
      "inputs": [
        {
          "internalType": "address",
          "name": "user_",
          "type": "address"
        }
      ],
      "name": "getReward",
      "outputs": [],
      "stateMutability": "nonpayable",
      "type": "function"
    },
    {
      "inputs": [
        {
          "internalType": "address",
          "name": "",
          "type": "address"
        }
      ],
      "name": "lastCumulativeTotalSupplyFactorPerUser",
      "outputs": [
        {
          "internalType": "uint256",
          "name": "",
          "type": "uint256"
        }
      ],
      "stateMutability": "view",
      "type": "function"
    },
    {
      "inputs": [],
      "name": "lastTimeRewardApplicable",
      "outputs": [
        {
          "internalType": "uint256",
          "name": "",
          "type": "uint256"
        }
      ],
      "stateMutability": "view",
      "type": "function"
    },
    {
      "inputs": [],
      "name": "lastUpdateTime",
      "outputs": [
        {
          "internalType": "uint256",
          "name": "",
          "type": "uint256"
        }
      ],
      "stateMutability": "view",
      "type": "function"
    },
    {
      "inputs": [
        {
          "internalType": "uint256",
          "name": "reward_",
          "type": "uint256"
        }
      ],
      "name": "notifyRewardAmount",
      "outputs": [],
      "stateMutability": "nonpayable",
      "type": "function"
    },
    {
      "inputs": [],
      "name": "owner",
      "outputs": [
        {
          "internalType": "address",
          "name": "",
          "type": "address"
        }
      ],
      "stateMutability": "view",
      "type": "function"
    },
    {
      "inputs": [],
      "name": "periodFinish",
      "outputs": [
        {
          "internalType": "uint256",
          "name": "",
          "type": "uint256"
        }
      ],
      "stateMutability": "view",
      "type": "function"
    },
    {
      "inputs": [],
      "name": "poolRewardDistributor",
      "outputs": [
        {
          "internalType": "address",
          "name": "",
          "type": "address"
        }
      ],
      "stateMutability": "view",
      "type": "function"
    },
    {
      "inputs": [
        {
          "internalType": "uint256",
          "name": "",
          "type": "uint256"
        }
      ],
      "name": "recipients",
      "outputs": [
        {
          "internalType": "address",
          "name": "wallet",
          "type": "address"
        },
        {
          "internalType": "uint256",
          "name": "percentage",
          "type": "uint256"
        }
      ],
      "stateMutability": "view",
      "type": "function"
    },
    {
      "inputs": [],
      "name": "renounceOwnership",
      "outputs": [],
      "stateMutability": "nonpayable",
      "type": "function"
    },
    {
      "inputs": [],
      "name": "rewardPerToken",
      "outputs": [
        {
          "internalType": "uint256",
          "name": "",
          "type": "uint256"
        }
      ],
      "stateMutability": "view",
      "type": "function"
    },
    {
      "inputs": [],
      "name": "rewardPerTokenStored",
      "outputs": [
        {
          "internalType": "uint256",
          "name": "",
          "type": "uint256"
        }
      ],
      "stateMutability": "view",
      "type": "function"
    },
    {
      "inputs": [],
      "name": "rewardRate",
      "outputs": [
        {
          "internalType": "uint256",
          "name": "",
          "type": "uint256"
        }
      ],
      "stateMutability": "view",
      "type": "function"
    },
    {
      "inputs": [
        {
          "internalType": "address",
          "name": "",
          "type": "address"
        }
      ],
      "name": "rewards",
      "outputs": [
        {
          "internalType": "uint256",
          "name": "",
          "type": "uint256"
        }
      ],
      "stateMutability": "view",
      "type": "function"
    },
    {
      "inputs": [],
      "name": "rewardsDuration",
      "outputs": [
        {
          "internalType": "uint256",
          "name": "",
          "type": "uint256"
        }
      ],
      "stateMutability": "view",
      "type": "function"
    },
    {
      "inputs": [],
      "name": "router",
      "outputs": [
        {
          "internalType": "address",
          "name": "",
          "type": "address"
        }
      ],
      "stateMutability": "view",
      "type": "function"
    },
    {
      "inputs": [],
      "name": "seniorage",
      "outputs": [
        {
          "internalType": "address",
          "name": "",
          "type": "address"
        }
      ],
      "stateMutability": "view",
      "type": "function"
    },
    {
      "inputs": [
        {
          "internalType": "address[]",
          "name": "wallets_",
          "type": "address[]"
        },
        {
          "internalType": "uint256[]",
          "name": "percentages_",
          "type": "uint256[]"
        }
      ],
      "name": "setRecipients",
      "outputs": [],
      "stateMutability": "nonpayable",
      "type": "function"
    },
    {
      "inputs": [
        {
          "internalType": "uint256",
          "name": "rewardsDuration_",
          "type": "uint256"
        }
      ],
      "name": "setRewardsDuration",
      "outputs": [],
      "stateMutability": "nonpayable",
      "type": "function"
    },
    {
      "inputs": [],
      "name": "snacks",
      "outputs": [
        {
          "internalType": "address",
          "name": "",
          "type": "address"
        }
      ],
      "stateMutability": "view",
      "type": "function"
    },
    {
      "inputs": [
        {
          "internalType": "address",
          "name": "",
          "type": "address"
        }
      ],
      "name": "snacksAmountStoredFor",
      "outputs": [
        {
          "internalType": "uint256",
          "name": "",
          "type": "uint256"
        }
      ],
      "stateMutability": "view",
      "type": "function"
    },
    {
      "inputs": [],
      "name": "snacksPool",
      "outputs": [
        {
          "internalType": "address",
          "name": "",
          "type": "address"
        }
      ],
      "stateMutability": "view",
      "type": "function"
    },
    {
      "inputs": [
        {
          "internalType": "uint256",
          "name": "busdAmount_",
          "type": "uint256"
        }
      ],
      "name": "stakeForSeniorage",
      "outputs": [],
      "stateMutability": "nonpayable",
      "type": "function"
    },
    {
      "inputs": [
        {
          "internalType": "uint256",
          "name": "zoinksAmount_",
          "type": "uint256"
        },
        {
          "internalType": "uint256",
          "name": "btcAmount_",
          "type": "uint256"
        },
        {
          "internalType": "uint256",
          "name": "ethAmount_",
          "type": "uint256"
        },
        {
          "internalType": "uint256",
          "name": "snacksAmount_",
          "type": "uint256"
        },
        {
          "internalType": "uint256",
          "name": "btcSnacksAmount_",
          "type": "uint256"
        },
        {
          "internalType": "uint256",
          "name": "ethSnacksAmount_",
          "type": "uint256"
        },
        {
          "internalType": "uint256",
          "name": "zoinksBusdAmountOutMin_",
          "type": "uint256"
        },
        {
          "internalType": "uint256",
          "name": "btcBusdAmountOutMin_",
          "type": "uint256"
        },
        {
          "internalType": "uint256",
          "name": "ethBusdAmountOutMin_",
          "type": "uint256"
        }
      ],
      "name": "stakeForSeniorage",
      "outputs": [],
      "stateMutability": "nonpayable",
      "type": "function"
    },
    {
      "inputs": [
        {
          "internalType": "uint256",
          "name": "snacksAmount_",
          "type": "uint256"
        },
        {
          "internalType": "uint256",
          "name": "btcSnacksAmount_",
          "type": "uint256"
        },
        {
          "internalType": "uint256",
          "name": "ethSnacksAmount_",
          "type": "uint256"
        },
        {
          "internalType": "uint256",
          "name": "zoinksBusdAmountOutMin_",
          "type": "uint256"
        },
        {
          "internalType": "uint256",
          "name": "btcBusdAmountOutMin_",
          "type": "uint256"
        },
        {
          "internalType": "uint256",
          "name": "ethBusdAmountOutMin_",
          "type": "uint256"
        }
      ],
      "name": "stakeForSnacksPool",
      "outputs": [],
      "stateMutability": "nonpayable",
      "type": "function"
    },
    {
      "inputs": [
        {
          "internalType": "address",
          "name": "newOwner",
          "type": "address"
        }
      ],
      "name": "transferOwnership",
      "outputs": [],
      "stateMutability": "nonpayable",
      "type": "function"
    },
    {
      "inputs": [
        {
          "internalType": "address",
          "name": "user_",
          "type": "address"
        }
      ],
      "name": "updateRewardForUser",
      "outputs": [],
      "stateMutability": "nonpayable",
      "type": "function"
    },
    {
      "inputs": [
        {
          "internalType": "uint256",
          "name": "totalSupplyBefore_",
          "type": "uint256"
        }
      ],
      "name": "updateTotalSupplyFactor",
      "outputs": [],
      "stateMutability": "nonpayable",
      "type": "function"
    },
    {
      "inputs": [
        {
          "internalType": "address",
          "name": "",
          "type": "address"
        }
      ],
      "name": "userRewardPerTokenPaid",
      "outputs": [
        {
          "internalType": "uint256",
          "name": "",
          "type": "uint256"
        }
      ],
      "stateMutability": "view",
      "type": "function"
    },
    {
      "inputs": [],
      "name": "zoinks",
      "outputs": [
        {
          "internalType": "address",
          "name": "",
          "type": "address"
        }
      ],
      "stateMutability": "view",
      "type": "function"
    }
  ],
  "bytecode": "0x61010060405261a8c06001556200002260016200017360201b62002d7c1760201c565b6002553480156200003257600080fd5b5060405162003dd338038062003dd3833981016040819052620000559162000232565b6200006033620001c5565b6001600160a01b0384811660805283811660a081905283821660c05290821660e081905260405163095ea7b360e01b81526004810191909152600019602482015263095ea7b3906044016020604051808303816000875af1158015620000ca573d6000803e3d6000fd5b505050506040513d601f19601f82011682018060405250810190620000f091906200028f565b5060405163095ea7b360e01b81526001600160a01b038281166004830152600019602483015283169063095ea7b3906044016020604051808303816000875af115801562000142573d6000803e3d6000fd5b505050506040513d601f19601f820116820180604052508101906200016891906200028f565b5050505050620002ba565b60007812725dd1d243aba0e75fe645cc4873f9e65afe688c928e1f21821115620001b757604051633492ffd960e01b81526004810183905260240160405180910390fd5b50670de0b6b3a76400000290565b600080546001600160a01b038381166001600160a01b0319831681178455604051919092169283917f8be0079c531659141344cd1fd0a4f28419497f9722a3daafe3b4186f6b6457e09190a35050565b80516001600160a01b03811681146200022d57600080fd5b919050565b600080600080608085870312156200024957600080fd5b620002548562000215565b9350620002646020860162000215565b9250620002746040860162000215565b9150620002846060860162000215565b905092959194509250565b600060208284031215620002a257600080fd5b81518015158114620002b357600080fd5b9392505050565b60805160a05160c05160e051613a5362000380600039600081816105ac01528181611050015281816111ed0152818161138a01528181611c7301528181611eed015281816121670152818161292b01526129bb01526000818161044601528181610a8e015281816112b601528181611333015261211001526000818161049101528181610a5301528181611119015281816111960152611e9601526000818161035101528181610845015281816108fc01528181610f240152611aa30152613a536000f3fe608060405234801561001057600080fd5b50600436106102465760003560e01c806381f640611161013b578063cc1a378f116100b8578063ea1a187c1161007c578063ea1a187c14610558578063ebe2b12b14610578578063ec4460c714610581578063f2fde38b14610594578063f887ea40146105a757600080fd5b8063cc1a378f146104e2578063cd3daf9d146104f5578063d1bc76a1146104fd578063daa833fa1461052f578063df136d651461054f57600080fd5b80638da5cb5b116100ff5780638da5cb5b1461047b578063a28d57d81461048c578063ae373c1b146104b3578063c00007b0146104c6578063c8f33c91146104d957600080fd5b806381f64061146104055780638765e3381461040e5780638b876347146104215780638c7c9e0c146104415780638d5c5ef01461046857600080fd5b80633c6b16ab116101c95780635a41dbe71161018d5780635a41dbe7146103b95780635c064139146103d9578063715018a6146103ec5780637b0a47ee146103f457806380faa57d146103fd57600080fd5b80633c6b16ab146103395780633ca5b2341461034c578063512eb14b1461037357806354a9b3561461038657806356b2f01f146103a657600080fd5b806312411bc11161021057806312411bc1146102e45780631343575a146102f757806328f8c0051461030a578063304330501461031d578063386a95251461033057600080fd5b806256c9301461024b5780628cc2621461027b5780630244234f1461029c57806303f45178146102af5780630700037d146102c4575b600080fd5b60095461025e906001600160a01b031681565b6040516001600160a01b0390911681526020015b60405180910390f35b61028e610289366004613393565b6105ce565b604051908152602001610272565b60085461025e906001600160a01b031681565b6102c26102bd3660046133ae565b610777565b005b61028e6102d2366004613393565b600e6020526000908152604090205481565b6102c26102f23660046133c7565b610970565b600c5461025e906001600160a01b031681565b6102c26103183660046133ae565b611517565b6102c261032b366004613393565b61165c565b61028e60015481565b6102c26103473660046133ae565b611711565b61025e7f000000000000000000000000000000000000000000000000000000000000000081565b60075461025e906001600160a01b031681565b61028e610394366004613393565b60106020526000908152604090205481565b600a5461025e906001600160a01b031681565b61028e6103c7366004613393565b60126020526000908152604090205481565b600d5461025e906001600160a01b031681565b6102c261199f565b61028e60065481565b61028e6119b3565b61028e60025481565b600b5461025e906001600160a01b031681565b61028e61042f366004613393565b600f6020526000908152604090205481565b61025e7f000000000000000000000000000000000000000000000000000000000000000081565b6102c2610476366004613426565b6119ca565b6000546001600160a01b031661025e565b61025e7f000000000000000000000000000000000000000000000000000000000000000081565b6102c26104c136600461353f565b612341565b6102c26104d4366004613393565b6125a6565b61028e60045481565b6102c26104f03660046133ae565b6126e8565b61028e61278d565b61051061050b3660046133ae565b61286b565b604080516001600160a01b039093168352602083019190915201610272565b61028e61053d366004613393565b60136020526000908152604090205481565b61028e60035481565b61028e610566366004613393565b60116020526000908152604090205481565b61028e60055481565b6102c261058f3660046135ff565b6128a3565b6102c26105a2366004613393565b612d06565b61025e7f000000000000000000000000000000000000000000000000000000000000000081565b6001600160a01b038116600090815260136020526040812054818181036105f85750600254610608565b6002546106059083612dc9565b90505b6001600160a01b0384166000908152600f602052604081205461062b9083612dc9565b6001600160a01b0386166000908152600e602052604081205491925090670de0b6b3a76400008361065a61278d565b610664919061369b565b600b5460405163f8b2cb4f60e01b81526001600160a01b038b811660048301529091169063f8b2cb4f90602401602060405180830381865afa1580156106ae573d6000803e3d6000fd5b505050506040513d601f19601f820116820180604052508101906106d291906136b2565b6106dc91906136cb565b6106e69190613700565b6106f09190613722565b600b5460405163d1e540fb60e01b81526001600160a01b03898116600483015292935091169063d1e540fb90602401602060405180830381865afa15801561073c573d6000803e3d6000fd5b505050506040513d601f19601f82011682018060405250810190610760919061373a565b61076b57600061076d565b805b9695505050505050565b600d546001600160a01b031633146107aa5760405162461bcd60e51b81526004016107a19061375c565b60405180910390fd5b60006107b461278d565b6003556107bf6119b3565b6004556001600160a01b03811615610832576107da816105ce565b6001600160a01b0382166000908152600e6020908152604080832093909355600354600f82528383205560025460139091529190205414610832576002546001600160a01b0382166000908152601360205260409020555b81156109375761086d6001600160a01b037f000000000000000000000000000000000000000000000000000000000000000016333085612de5565b60005b6014548110156109355761092360148281548110610890576108906137aa565b906000526020600020906002020160000160009054906101000a90046001600160a01b0316612710601484815481106108cb576108cb6137aa565b906000526020600020906002020160010154866108e891906136cb565b6108f29190613700565b6001600160a01b037f0000000000000000000000000000000000000000000000000000000000000000169190612e56565b8061092d816137c0565b915050610870565b505b60405182815233907f9e71bc8eea02a63969f509818f2dafb9254532904319f9dbda79b67bd34a5f3d9060200160405180910390a25050565b600d546001600160a01b0316331461099a5760405162461bcd60e51b81526004016107a19061375c565b60006109a461278d565b6003556109af6119b3565b6004556001600160a01b03811615610a22576109ca816105ce565b6001600160a01b0382166000908152600e6020908152604080832093909355600354600f82528383205560025460139091529190205414610a22576002546001600160a01b0382166000908152601360205260409020555b8915610a4057600754610a40906001600160a01b031633308d612de5565b8815610a7b57610a7b6001600160a01b037f00000000000000000000000000000000000000000000000000000000000000001633308c612de5565b8715610ab657610ab66001600160a01b037f00000000000000000000000000000000000000000000000000000000000000001633308b612de5565b8615610c2357600854610ad4906001600160a01b031633308a612de5565b33600090815260106020526040812054610aee9089613722565b60085460405163150123c960e31b8152600481018390529192506001600160a01b03169063a8091e4890602401602060405180830381865afa158015610b38573d6000803e3d6000fd5b505050506040513d601f19601f82011682018060405250810190610b5c919061373a565b15610bfc5760085460405163db006a7560e01b8152600481018390526001600160a01b039091169063db006a75906024016020604051808303816000875af1158015610bac573d6000803e3d6000fd5b505050506040513d601f19601f82011682018060405250810190610bd091906136b2565b503360009081526010602052604090205415610bf757336000908152601060205260408120555b610c21565b33600090815260106020526040812080548a9290610c1b908490613722565b90915550505b505b8515610d9057600954610c41906001600160a01b0316333089612de5565b33600090815260116020526040812054610c5b9088613722565b60095460405163150123c960e31b8152600481018390529192506001600160a01b03169063a8091e4890602401602060405180830381865afa158015610ca5573d6000803e3d6000fd5b505050506040513d601f19601f82011682018060405250810190610cc9919061373a565b15610d695760095460405163db006a7560e01b8152600481018390526001600160a01b039091169063db006a75906024016020604051808303816000875af1158015610d19573d6000803e3d6000fd5b505050506040513d601f19601f82011682018060405250810190610d3d91906136b2565b503360009081526011602052604090205415610d6457336000908152601160205260408120555b610d8e565b3360009081526011602052604081208054899290610d88908490613722565b90915550505b505b8415610efd57600a54610dae906001600160a01b0316333088612de5565b33600090815260126020526040812054610dc89087613722565b600a5460405163150123c960e31b8152600481018390529192506001600160a01b03169063a8091e4890602401602060405180830381865afa158015610e12573d6000803e3d6000fd5b505050506040513d601f19601f82011682018060405250810190610e36919061373a565b15610ed657600a5460405163db006a7560e01b8152600481018390526001600160a01b039091169063db006a75906024016020604051808303816000875af1158015610e86573d6000803e3d6000fd5b505050506040513d601f19601f82011682018060405250810190610eaa91906136b2565b503360009081526012602052604090205415610ed157336000908152601260205260408120555b610efb565b3360009081526012602052604081208054889290610ef5908490613722565b90915550505b505b604080516002808252606082018352600092839291906020830190803683370190505090507f000000000000000000000000000000000000000000000000000000000000000081600181518110610f5657610f566137aa565b6001600160a01b03929092166020928302919091018201526040805160028082526060820183526000939192909183019080368337019050506007546040516370a0823160e01b81523060048201529192506000916001600160a01b03909116906370a0823190602401602060405180830381865afa158015610fdd573d6000803e3d6000fd5b505050506040513d601f19601f8201168201806040525081019061100191906136b2565b905080156111015760075483516001600160a01b0390911690849060009061102b5761102b6137aa565b6001600160a01b0392831660209182029290920101526040516338ed173960e01b81527f0000000000000000000000000000000000000000000000000000000000000000909116906338ed17399061108f9084908c908890309042906004016137d9565b6000604051808303816000875af11580156110ae573d6000803e3d6000fd5b505050506040513d6000823e601f3d908101601f191682016040526110d6919081019061384a565b9150816001815181106110eb576110eb6137aa565b6020026020010151846110fe9190613722565b93505b6040516370a0823160e01b81523060048201526000907f00000000000000000000000000000000000000000000000000000000000000006001600160a01b0316906370a0823190602401602060405180830381865afa158015611168573d6000803e3d6000fd5b505050506040513d601f19601f8201168201806040525081019061118c91906136b2565b9050801561129e577f0000000000000000000000000000000000000000000000000000000000000000846000815181106111c8576111c86137aa565b6001600160a01b0392831660209182029290920101526040516338ed173960e01b81527f0000000000000000000000000000000000000000000000000000000000000000909116906338ed17399061122c9084908c908990309042906004016137d9565b6000604051808303816000875af115801561124b573d6000803e3d6000fd5b505050506040513d6000823e601f3d908101601f19168201604052611273919081019061384a565b925082600181518110611288576112886137aa565b60200260200101518561129b9190613722565b94505b6040516370a0823160e01b81523060048201526000907f00000000000000000000000000000000000000000000000000000000000000006001600160a01b0316906370a0823190602401602060405180830381865afa158015611305573d6000803e3d6000fd5b505050506040513d601f19601f8201168201806040525081019061132991906136b2565b9050801561143b577f000000000000000000000000000000000000000000000000000000000000000085600081518110611365576113656137aa565b6001600160a01b0392831660209182029290920101526040516338ed173960e01b81527f0000000000000000000000000000000000000000000000000000000000000000909116906338ed1739906113c99084908c908a90309042906004016137d9565b6000604051808303816000875af11580156113e8573d6000803e3d6000fd5b505050506040513d6000823e601f3d908101601f19168201604052611410919081019061384a565b935083600181518110611425576114256137aa565b6020026020010151866114389190613722565b95505b85156114d05760005b6014548110156114ce576114bc60148281548110611464576114646137aa565b906000526020600020906002020160000160009054906101000a90046001600160a01b03166127106014848154811061149f5761149f6137aa565b9060005260206000209060020201600101548a6108e891906136cb565b806114c6816137c0565b915050611444565b505b60405186815233907f9e71bc8eea02a63969f509818f2dafb9254532904319f9dbda79b67bd34a5f3d9060200160405180910390a250505050505050505050505050505050565b6008546001600160a01b031633146115855760405162461bcd60e51b815260206004820152602b60248201527f4c756e6368426f783a2063616c6c6572206973206e6f742074686520536e616360448201526a1adcc818dbdb9d1c9858dd60aa1b60648201526084016107a1565b801561165957600b5460408051636104f6e760e01b815290516000926001600160a01b031691636104f6e79160048083019260209291908290030181865afa1580156115d5573d6000803e3d6000fd5b505050506040513d601f19601f820116820180604052508101906115f991906136b2565b905060006116078284612dc9565b6002549091506116179082612e86565b6002556003546116279082612dc9565b6003556002546040517fe2daeee94350c9d6db1f79190ecb21579701673c2b81c011763dc6f29317305d90600090a250505b50565b600b546001600160a01b031633146116865760405162461bcd60e51b81526004016107a1906138d0565b8061168f61278d565b60035561169a6119b3565b6004556001600160a01b0381161561170d576116b5816105ce565b6001600160a01b0382166000908152600e6020908152604080832093909355600354600f8252838320556002546013909152919020541461170d576002546001600160a01b0382166000908152601360205260409020555b5050565b600c546001600160a01b031633146117915760405162461bcd60e51b815260206004820152603a60248201527f4c756e6368426f783a2063616c6c6572206973206e6f742074686520506f6f6c60448201527f5265776172644469737472696275746f7220636f6e747261637400000000000060648201526084016107a1565b600061179b61278d565b6003556117a66119b3565b6004556001600160a01b03811615611819576117c1816105ce565b6001600160a01b0382166000908152600e6020908152604080832093909355600354600f82528383205560025460139091529190205414611819576002546001600160a01b0382166000908152601360205260409020555b60055442106118375760015461182f9083613700565b600655611879565b600042600554611847919061369b565b905060006006548261185991906136cb565b6001549091506118698286613722565b6118739190613700565b60065550505b6008546040516370a0823160e01b81523060048201526000916001600160a01b0316906370a0823190602401602060405180830381865afa1580156118c2573d6000803e3d6000fd5b505050506040513d601f19601f820116820180604052508101906118e691906136b2565b9050600154816118f69190613700565b60065411156119525760405162461bcd60e51b815260206004820152602260248201527f4c756e6368426f783a2070726f76696465642072657761726420746f6f2068696044820152610ced60f31b60648201526084016107a1565b42600481905560015461196491613722565b6005556040518381527fde88a922e0d3b88b24e9623efeb464919c6bf9f66857a65e2bfcf2ce87a9433d9060200160405180910390a1505050565b6119a7612e92565b6119b16000612eec565b565b600060055442106119c5575060055490565b504290565b600b546001600160a01b031633146119f45760405162461bcd60e51b81526004016107a1906138d0565b60006119fe61278d565b600355611a096119b3565b6004556001600160a01b03811615611a7c57611a24816105ce565b6001600160a01b0382166000908152600e6020908152604080832093909355600354600f82528383205560025460139091529190205414611a7c576002546001600160a01b0382166000908152601360205260409020555b604080516002808252606082018352600092839291906020830190803683370190505090507f000000000000000000000000000000000000000000000000000000000000000081600181518110611ad557611ad56137aa565b6001600160a01b039290921660209283029190910182015260408051600280825260608201835260009391929091830190803683370190505090508915611d7757600854611b2e906001600160a01b031633308d612de5565b33600090815260106020526040812054611b48908c613722565b60085460405163150123c960e31b8152600481018390529192506001600160a01b03169063a8091e4890602401602060405180830381865afa158015611b92573d6000803e3d6000fd5b505050506040513d601f19601f82011682018060405250810190611bb6919061373a565b15611d505760085460405163db006a7560e01b8152600481018390526000916001600160a01b03169063db006a75906024016020604051808303816000875af1158015611c07573d6000803e3d6000fd5b505050506040513d601f19601f82011682018060405250810190611c2b91906136b2565b60075485519192506001600160a01b0316908590600090611c4e57611c4e6137aa565b6001600160a01b0392831660209182029290920101526040516338ed173960e01b81527f0000000000000000000000000000000000000000000000000000000000000000909116906338ed173990611cb29084908d908990309042906004016137d9565b6000604051808303816000875af1158015611cd1573d6000803e3d6000fd5b505050506040513d6000823e601f3d908101601f19168201604052611cf9919081019061384a565b925082600181518110611d0e57611d0e6137aa565b602002602001015185611d219190613722565b3360009081526010602052604090205490955015611d4a57336000908152601060205260408120555b50611d75565b33600090815260106020526040812080548d9290611d6f908490613722565b90915550505b505b8815611ff157600954611d95906001600160a01b031633308c612de5565b33600090815260116020526040812054611daf908b613722565b60095460405163150123c960e31b8152600481018390529192506001600160a01b03169063a8091e4890602401602060405180830381865afa158015611df9573d6000803e3d6000fd5b505050506040513d601f19601f82011682018060405250810190611e1d919061373a565b15611fca5760095460405163db006a7560e01b8152600481018390526000916001600160a01b03169063db006a75906024016020604051808303816000875af1158015611e6e573d6000803e3d6000fd5b505050506040513d601f19601f82011682018060405250810190611e9291906136b2565b90507f000000000000000000000000000000000000000000000000000000000000000084600081518110611ec857611ec86137aa565b6001600160a01b0392831660209182029290920101526040516338ed173960e01b81527f0000000000000000000000000000000000000000000000000000000000000000909116906338ed173990611f2c9084908c908990309042906004016137d9565b6000604051808303816000875af1158015611f4b573d6000803e3d6000fd5b505050506040513d6000823e601f3d908101601f19168201604052611f73919081019061384a565b925082600181518110611f8857611f886137aa565b602002602001015185611f9b9190613722565b3360009081526011602052604090205490955015611fc457336000908152601160205260408120555b50611fef565b33600090815260116020526040812080548c9290611fe9908490613722565b90915550505b505b871561226b57600a5461200f906001600160a01b031633308b612de5565b33600090815260126020526040812054612029908a613722565b600a5460405163150123c960e31b8152600481018390529192506001600160a01b03169063a8091e4890602401602060405180830381865afa158015612073573d6000803e3d6000fd5b505050506040513d601f19601f82011682018060405250810190612097919061373a565b1561224457600a5460405163db006a7560e01b8152600481018390526000916001600160a01b03169063db006a75906024016020604051808303816000875af11580156120e8573d6000803e3d6000fd5b505050506040513d601f19601f8201168201806040525081019061210c91906136b2565b90507f000000000000000000000000000000000000000000000000000000000000000084600081518110612142576121426137aa565b6001600160a01b0392831660209182029290920101526040516338ed173960e01b81527f0000000000000000000000000000000000000000000000000000000000000000909116906338ed1739906121a69084908b908990309042906004016137d9565b6000604051808303816000875af11580156121c5573d6000803e3d6000fd5b505050506040513d6000823e601f3d908101601f191682016040526121ed919081019061384a565b925082600181518110612202576122026137aa565b6020026020010151856122159190613722565b336000908152601260205260409020549095501561223e57336000908152601260205260408120555b50612269565b33600090815260126020526040812080548b9290612263908490613722565b90915550505b505b82156123005760005b6014548110156122fe576122ec60148281548110612294576122946137aa565b906000526020600020906002020160000160009054906101000a90046001600160a01b0316612710601484815481106122cf576122cf6137aa565b906000526020600020906002020160010154876108e891906136cb565b806122f6816137c0565b915050612274565b505b60405183815233907f9e71bc8eea02a63969f509818f2dafb9254532904319f9dbda79b67bd34a5f3d9060200160405180910390a250505050505050505050565b612349612e92565b805182518114801561235a57508015155b6123a65760405162461bcd60e51b815260206004820152601f60248201527f4c756e6368426f783a20696e76616c6964206172726179206c656e677468730060448201526064016107a1565b6000805b828110156123eb578381815181106123c4576123c46137aa565b6020026020010151826123d79190613722565b9150806123e3816137c0565b9150506123aa565b5061271081146124495760405162461bcd60e51b8152602060048201526024808201527f4c756e6368426f783a20696e76616c69642073756d206f662070657263656e746044820152636167657360e01b60648201526084016107a1565b61245560146000613331565b60005b82811015612552576040805180820190915260008082526020820152858281518110612486576124866137aa565b60209081029190910101516001600160a01b0316815284518590839081106124b0576124b06137aa565b6020908102919091018101519082019081526014805460018101825560009190915291517fce6d7b5282bd9a3661ae061feed1dbda4e52ab073b1f9285be6e155d9c38d4ec600290930292830180546001600160a01b0319166001600160a01b03909216919091179055517fce6d7b5282bd9a3661ae061feed1dbda4e52ab073b1f9285be6e155d9c38d4ed909101558061254a816137c0565b915050612458565b5083604051612561919061391f565b60405180910390207f8c9f152d7c0d7400a8b012ae741ccf50d62ac36f2828130d4b8b2c16dc8be0fd84604051612598919061395e565b60405180910390a250505050565b600b546001600160a01b031633146125d05760405162461bcd60e51b81526004016107a1906138d0565b806125d961278d565b6003556125e46119b3565b6004556001600160a01b03811615612657576125ff816105ce565b6001600160a01b0382166000908152600e6020908152604080832093909355600354600f82528383205560025460139091529190205414612657576002546001600160a01b0382166000908152601360205260409020555b6001600160a01b0382166000908152600e602052604090205480156126e3576001600160a01b038084166000908152600e602052604081205560085461269f91168483612e56565b826001600160a01b03167fe2403640ba68fed3a2f88b7557551d1993f84b99bb10ff833f0cf8db0c5e0486826040516126da91815260200190565b60405180910390a25b505050565b6126f0612e92565b60055442116127525760405162461bcd60e51b815260206004820152602860248201527f4c756e6368426f783a206475726174696f6e2063616e6e6f74206265206368616044820152676e676564206e6f7760c01b60648201526084016107a1565b60018190556040518181527ffb46ca5a5e06d4540d6387b930a7c978bce0db5f449ec6b3f5d07c6e1d44f2d39060200160405180910390a150565b600080600b60009054906101000a90046001600160a01b03166001600160a01b0316636104f6e76040518163ffffffff1660e01b8152600401602060405180830381865afa1580156127e3573d6000803e3d6000fd5b505050506040513d601f19601f8201168201806040525081019061280791906136b2565b90508060000361281957505060035490565b6003548160065460045461282b6119b3565b612835919061369b565b61283f91906136cb565b61285190670de0b6b3a76400006136cb565b61285b9190613700565b6128659190613722565b91505090565b6014818154811061287b57600080fd5b6000918252602090912060029091020180546001909101546001600160a01b03909116915082565b6128ab612e92565b600780546001600160a01b03199081166001600160a01b038a81169182179093556008805483168a8516179055600980548316898516179055600a80548316888516179055600b80548316878516179055600c80548316868516179055600d805490921684841617909155604051636eb1769f60e11b81523060048201527f000000000000000000000000000000000000000000000000000000000000000090921660248301529063dd62ed3e90604401602060405180830381865afa158015612979573d6000803e3d6000fd5b505050506040513d601f19601f8201168201806040525081019061299d91906136b2565b600003612a3a5760405163095ea7b360e01b81526001600160a01b037f000000000000000000000000000000000000000000000000000000000000000081166004830152600019602483015288169063095ea7b3906044016020604051808303816000875af1158015612a14573d6000803e3d6000fd5b505050506040513d601f19601f82011682018060405250810190612a38919061373a565b505b604051636eb1769f60e11b81523060048201526001600160a01b03878116602483015288169063dd62ed3e90604401602060405180830381865afa158015612a86573d6000803e3d6000fd5b505050506040513d601f19601f82011682018060405250810190612aaa91906136b2565b600003612b275760405163095ea7b360e01b81526001600160a01b038781166004830152600019602483015288169063095ea7b3906044016020604051808303816000875af1158015612b01573d6000803e3d6000fd5b505050506040513d601f19601f82011682018060405250810190612b25919061373a565b505b604051636eb1769f60e11b81523060048201526001600160a01b038616602482018190529063dd62ed3e90604401602060405180830381865afa158015612b72573d6000803e3d6000fd5b505050506040513d601f19601f82011682018060405250810190612b9691906136b2565b600003612c125760405163095ea7b360e01b81526001600160a01b0386166004820181905260001960248301529063095ea7b3906044016020604051808303816000875af1158015612bec573d6000803e3d6000fd5b505050506040513d601f19601f82011682018060405250810190612c10919061373a565b505b604051636eb1769f60e11b81523060048201526001600160a01b038516602482018190529063dd62ed3e90604401602060405180830381865afa158015612c5d573d6000803e3d6000fd5b505050506040513d601f19601f82011682018060405250810190612c8191906136b2565b600003612cfd5760405163095ea7b360e01b81526001600160a01b0385166004820181905260001960248301529063095ea7b3906044016020604051808303816000875af1158015612cd7573d6000803e3d6000fd5b505050506040513d601f19601f82011682018060405250810190612cfb919061373a565b505b50505050505050565b612d0e612e92565b6001600160a01b038116612d735760405162461bcd60e51b815260206004820152602660248201527f4f776e61626c653a206e6577206f776e657220697320746865207a65726f206160448201526564647265737360d01b60648201526084016107a1565b61165981612eec565b60007812725dd1d243aba0e75fe645cc4873f9e65afe688c928e1f21821115612dbb57604051633492ffd960e01b8152600481018390526024016107a1565b50670de0b6b3a76400000290565b6000612dde83670de0b6b3a764000084612f3c565b9392505050565b6040516001600160a01b0380851660248301528316604482015260648101829052612e509085906323b872dd60e01b906084015b60408051601f198184030181529190526020810180516001600160e01b03166001600160e01b031990931692909217909152613008565b50505050565b6040516001600160a01b0383166024820152604481018290526126e390849063a9059cbb60e01b90606401612e19565b6000612dde83836130da565b6000546001600160a01b031633146119b15760405162461bcd60e51b815260206004820181905260248201527f4f776e61626c653a2063616c6c6572206973206e6f7420746865206f776e657260448201526064016107a1565b600080546001600160a01b038381166001600160a01b0319831681178455604051919092169283917f8be0079c531659141344cd1fd0a4f28419497f9722a3daafe3b4186f6b6457e09190a35050565b6000808060001985870985870292508281108382030391505080600003612f7657838281612f6c57612f6c6136ea565b0492505050612dde565b838110612fa057604051631dcf306360e21b815260048101829052602481018590526044016107a1565b600084868809600260036001881981018916988990049182028318808302840302808302840302808302840302808302840302808302840302918202909203026000889003889004909101858311909403939093029303949094049190911702949350505050565b600061305d826040518060400160405280602081526020017f5361666545524332303a206c6f772d6c6576656c2063616c6c206661696c6564815250856001600160a01b03166131a19092919063ffffffff16565b8051909150156126e3578080602001905181019061307b919061373a565b6126e35760405162461bcd60e51b815260206004820152602a60248201527f5361666545524332303a204552433230206f7065726174696f6e20646964206e6044820152691bdd081cdd58d8d9595960b21b60648201526084016107a1565b60008080600019848609848602925082811083820303915050670de0b6b3a7640000811061311e5760405163698d9a0160e11b8152600481018290526024016107a1565b600080670de0b6b3a764000086880991506706f05b59d3b1ffff821190508260000361315c5780670de0b6b3a764000085040194505050505061319b565b620400008285030493909111909103600160ee1b02919091177faccb18165bd6fe31ae1cf318dc5b51eee0e1ba569b88cd74c1773b91fac10669020190505b92915050565b60606131b084846000856131b8565b949350505050565b6060824710156132195760405162461bcd60e51b815260206004820152602660248201527f416464726573733a20696e73756666696369656e742062616c616e636520666f6044820152651c8818d85b1b60d21b60648201526084016107a1565b600080866001600160a01b0316858760405161323591906139ce565b60006040518083038185875af1925050503d8060008114613272576040519150601f19603f3d011682016040523d82523d6000602084013e613277565b606091505b509150915061328887838387613293565b979650505050505050565b606083156133025782516000036132fb576001600160a01b0385163b6132fb5760405162461bcd60e51b815260206004820152601d60248201527f416464726573733a2063616c6c20746f206e6f6e2d636f6e747261637400000060448201526064016107a1565b50816131b0565b6131b083838151156133175781518083602001fd5b8060405162461bcd60e51b81526004016107a191906139ea565b508054600082556002029060005260206000209081019061165991905b808211156133735780546001600160a01b03191681556000600182015560020161334e565b5090565b80356001600160a01b038116811461338e57600080fd5b919050565b6000602082840312156133a557600080fd5b612dde82613377565b6000602082840312156133c057600080fd5b5035919050565b60008060008060008060008060006101208a8c0312156133e657600080fd5b505087359960208901359950604089013598606081013598506080810135975060a0810135965060c0810135955060e08101359450610100013592509050565b60008060008060008060c0878903121561343f57600080fd5b505084359660208601359650604086013595606081013595506080810135945060a0013592509050565b634e487b7160e01b600052604160045260246000fd5b604051601f8201601f1916810167ffffffffffffffff811182821017156134a8576134a8613469565b604052919050565b600067ffffffffffffffff8211156134ca576134ca613469565b5060051b60200190565b600082601f8301126134e557600080fd5b813560206134fa6134f5836134b0565b61347f565b82815260059290921b8401810191818101908684111561351957600080fd5b8286015b84811015613534578035835291830191830161351d565b509695505050505050565b6000806040838503121561355257600080fd5b823567ffffffffffffffff8082111561356a57600080fd5b818501915085601f83011261357e57600080fd5b8135602061358e6134f5836134b0565b82815260059290921b840181019181810190898411156135ad57600080fd5b948201945b838610156135d2576135c386613377565b825294820194908201906135b2565b965050860135925050808211156135e857600080fd5b506135f5858286016134d4565b9150509250929050565b600080600080600080600060e0888a03121561361a57600080fd5b61362388613377565b965061363160208901613377565b955061363f60408901613377565b945061364d60608901613377565b935061365b60808901613377565b925061366960a08901613377565b915061367760c08901613377565b905092959891949750929550565b634e487b7160e01b600052601160045260246000fd5b6000828210156136ad576136ad613685565b500390565b6000602082840312156136c457600080fd5b5051919050565b60008160001904831182151516156136e5576136e5613685565b500290565b634e487b7160e01b600052601260045260246000fd5b60008261371d57634e487b7160e01b600052601260045260246000fd5b500490565b6000821982111561373557613735613685565b500190565b60006020828403121561374c57600080fd5b81518015158114612dde57600080fd5b6020808252602e908201527f4c756e6368426f783a2063616c6c6572206973206e6f74207468652053656e6960408201526d1bdc9859d94818dbdb9d1c9858dd60921b606082015260800190565b634e487b7160e01b600052603260045260246000fd5b6000600182016137d2576137d2613685565b5060010190565b600060a082018783526020878185015260a0604085015281875180845260c086019150828901935060005b818110156138295784516001600160a01b031683529383019391830191600101613804565b50506001600160a01b03969096166060850152505050608001529392505050565b6000602080838503121561385d57600080fd5b825167ffffffffffffffff81111561387457600080fd5b8301601f8101851361388557600080fd5b80516138936134f5826134b0565b81815260059190911b820183019083810190878311156138b257600080fd5b928401925b82841015613288578351825292840192908401906138b7565b6020808252602f908201527f4c756e6368426f783a2063616c6c6572206973206e6f742074686520536e616360408201526e1adcd41bdbdb0818dbdb9d1c9858dd608a1b606082015260800190565b815160009082906020808601845b838110156139525781516001600160a01b03168552938201939082019060010161392d565b50929695505050505050565b6020808252825182820181905260009190848201906040850190845b818110156139965783518352928401929184019160010161397a565b50909695505050505050565b60005b838110156139bd5781810151838201526020016139a5565b83811115612e505750506000910152565b600082516139e08184602087016139a2565b9190910192915050565b6020815260008251806020840152613a098160408501602087016139a2565b601f01601f1916919091016040019291505056fea26469706673582212209c7b8960775db526a3b060acd7177a437dceab14cf05e8613398c4d1dbd7ffcd64736f6c634300080f0033",
  "linkReferences": {},
  "deployedLinkReferences": {}
}