{
  "_format": "hh-sol-artifact-1",
  "contractName": "PancakeSwapPool",
  "sourceName": "contracts/PancakeSwapPool.sol",
  "abi": [
    {
      "inputs": [
        {
          "internalType": "address",
          "name": "cakeLP_",
          "type": "address"
        },
        {
          "internalType": "address",
          "name": "poolRewardDistributor_",
          "type": "address"
        },
        {
          "internalType": "address",
          "name": "seniorage_",
          "type": "address"
        },
        {
          "internalType": "address[]",
          "name": "rewardTokens_",
          "type": "address[]"
        }
      ],
      "stateMutability": "nonpayable",
      "type": "constructor"
    },
    {
      "anonymous": false,
      "inputs": [
        {
          "indexed": false,
          "internalType": "address",
          "name": "account",
          "type": "address"
        }
      ],
      "name": "Paused",
      "type": "event"
    },
    {
      "anonymous": false,
      "inputs": [
        {
          "indexed": true,
          "internalType": "address",
          "name": "poolRewardDistributor",
          "type": "address"
        }
      ],
      "name": "PoolRewardDistributorUpdated",
      "type": "event"
    },
    {
      "anonymous": false,
      "inputs": [
        {
          "indexed": true,
          "internalType": "address",
          "name": "rewardToken",
          "type": "address"
        },
        {
          "indexed": false,
          "internalType": "uint256",
          "name": "reward",
          "type": "uint256"
        }
      ],
      "name": "RewardAdded",
      "type": "event"
    },
    {
      "anonymous": false,
      "inputs": [
        {
          "indexed": true,
          "internalType": "address",
          "name": "rewardToken",
          "type": "address"
        },
        {
          "indexed": true,
          "internalType": "address",
          "name": "user",
          "type": "address"
        },
        {
          "indexed": false,
          "internalType": "uint256",
          "name": "reward",
          "type": "uint256"
        }
      ],
      "name": "RewardPaid",
      "type": "event"
    },
    {
      "anonymous": false,
      "inputs": [
        {
          "indexed": false,
          "internalType": "uint256",
          "name": "newDuration",
          "type": "uint256"
        }
      ],
      "name": "RewardsDurationUpdated",
      "type": "event"
    },
    {
      "anonymous": false,
      "inputs": [
        {
          "indexed": true,
          "internalType": "bytes32",
          "name": "role",
          "type": "bytes32"
        },
        {
          "indexed": true,
          "internalType": "bytes32",
          "name": "previousAdminRole",
          "type": "bytes32"
        },
        {
          "indexed": true,
          "internalType": "bytes32",
          "name": "newAdminRole",
          "type": "bytes32"
        }
      ],
      "name": "RoleAdminChanged",
      "type": "event"
    },
    {
      "anonymous": false,
      "inputs": [
        {
          "indexed": true,
          "internalType": "bytes32",
          "name": "role",
          "type": "bytes32"
        },
        {
          "indexed": true,
          "internalType": "address",
          "name": "account",
          "type": "address"
        },
        {
          "indexed": true,
          "internalType": "address",
          "name": "sender",
          "type": "address"
        }
      ],
      "name": "RoleGranted",
      "type": "event"
    },
    {
      "anonymous": false,
      "inputs": [
        {
          "indexed": true,
          "internalType": "bytes32",
          "name": "role",
          "type": "bytes32"
        },
        {
          "indexed": true,
          "internalType": "address",
          "name": "account",
          "type": "address"
        },
        {
          "indexed": true,
          "internalType": "address",
          "name": "sender",
          "type": "address"
        }
      ],
      "name": "RoleRevoked",
      "type": "event"
    },
    {
      "anonymous": false,
      "inputs": [
        {
          "indexed": true,
          "internalType": "address",
          "name": "seniorage",
          "type": "address"
        }
      ],
      "name": "SeniorageUpdated",
      "type": "event"
    },
    {
      "anonymous": false,
      "inputs": [
        {
          "indexed": true,
          "internalType": "address",
          "name": "user",
          "type": "address"
        },
        {
          "indexed": false,
          "internalType": "uint256",
          "name": "amount",
          "type": "uint256"
        }
      ],
      "name": "Staked",
      "type": "event"
    },
    {
      "anonymous": false,
      "inputs": [
        {
          "indexed": false,
          "internalType": "address",
          "name": "account",
          "type": "address"
        }
      ],
      "name": "Unpaused",
      "type": "event"
    },
    {
      "anonymous": false,
      "inputs": [
        {
          "indexed": true,
          "internalType": "address",
          "name": "user",
          "type": "address"
        },
        {
          "indexed": false,
          "internalType": "uint256",
          "name": "amount",
          "type": "uint256"
        }
      ],
      "name": "Withdrawn",
      "type": "event"
    },
    {
      "inputs": [],
      "name": "AUTHORITY_ROLE",
      "outputs": [
        {
          "internalType": "bytes32",
          "name": "",
          "type": "bytes32"
        }
      ],
      "stateMutability": "view",
      "type": "function"
    },
    {
      "inputs": [],
      "name": "DEFAULT_ADMIN_ROLE",
      "outputs": [
        {
          "internalType": "bytes32",
          "name": "",
          "type": "bytes32"
        }
      ],
      "stateMutability": "view",
      "type": "function"
    },
    {
      "inputs": [],
      "name": "PAUSER_ROLE",
      "outputs": [
        {
          "internalType": "bytes32",
          "name": "",
          "type": "bytes32"
        }
      ],
      "stateMutability": "view",
      "type": "function"
    },
    {
      "inputs": [
        {
          "internalType": "address",
          "name": "rewardToken_",
          "type": "address"
        },
        {
          "internalType": "address",
          "name": "user_",
          "type": "address"
        },
        {
          "internalType": "uint256",
          "name": "duration_",
          "type": "uint256"
        }
      ],
      "name": "calculatePotentialReward",
      "outputs": [
        {
          "internalType": "uint256",
          "name": "",
          "type": "uint256"
        }
      ],
      "stateMutability": "view",
      "type": "function"
    },
    {
      "inputs": [
        {
          "internalType": "address",
          "name": "user_",
          "type": "address"
        },
        {
          "internalType": "address",
          "name": "rewardToken_",
          "type": "address"
        }
      ],
      "name": "earned",
      "outputs": [
        {
          "internalType": "uint256",
          "name": "",
          "type": "uint256"
        }
      ],
      "stateMutability": "view",
      "type": "function"
    },
    {
      "inputs": [],
      "name": "exit",
      "outputs": [],
      "stateMutability": "nonpayable",
      "type": "function"
    },
    {
      "inputs": [
        {
          "internalType": "address",
          "name": "user_",
          "type": "address"
        }
      ],
      "name": "getBalance",
      "outputs": [
        {
          "internalType": "uint256",
          "name": "",
          "type": "uint256"
        }
      ],
      "stateMutability": "view",
      "type": "function"
    },
    {
      "inputs": [],
      "name": "getReward",
      "outputs": [],
      "stateMutability": "nonpayable",
      "type": "function"
    },
    {
      "inputs": [
        {
          "internalType": "address",
          "name": "rewardToken_",
          "type": "address"
        }
      ],
      "name": "getRewardForDuration",
      "outputs": [
        {
          "internalType": "uint256",
          "name": "",
          "type": "uint256"
        }
      ],
      "stateMutability": "view",
      "type": "function"
    },
    {
      "inputs": [
        {
          "internalType": "uint256",
          "name": "index_",
          "type": "uint256"
        }
      ],
      "name": "getRewardToken",
      "outputs": [
        {
          "internalType": "address",
          "name": "",
          "type": "address"
        }
      ],
      "stateMutability": "view",
      "type": "function"
    },
    {
      "inputs": [],
      "name": "getRewardTokensCount",
      "outputs": [
        {
          "internalType": "uint256",
          "name": "",
          "type": "uint256"
        }
      ],
      "stateMutability": "view",
      "type": "function"
    },
    {
      "inputs": [
        {
          "internalType": "bytes32",
          "name": "role",
          "type": "bytes32"
        }
      ],
      "name": "getRoleAdmin",
      "outputs": [
        {
          "internalType": "bytes32",
          "name": "",
          "type": "bytes32"
        }
      ],
      "stateMutability": "view",
      "type": "function"
    },
    {
      "inputs": [],
      "name": "getTotalSupply",
      "outputs": [
        {
          "internalType": "uint256",
          "name": "",
          "type": "uint256"
        }
      ],
      "stateMutability": "view",
      "type": "function"
    },
    {
      "inputs": [
        {
          "internalType": "bytes32",
          "name": "role",
          "type": "bytes32"
        },
        {
          "internalType": "address",
          "name": "account",
          "type": "address"
        }
      ],
      "name": "grantRole",
      "outputs": [],
      "stateMutability": "nonpayable",
      "type": "function"
    },
    {
      "inputs": [
        {
          "internalType": "bytes32",
          "name": "role",
          "type": "bytes32"
        },
        {
          "internalType": "address",
          "name": "account",
          "type": "address"
        }
      ],
      "name": "hasRole",
      "outputs": [
        {
          "internalType": "bool",
          "name": "",
          "type": "bool"
        }
      ],
      "stateMutability": "view",
      "type": "function"
    },
    {
      "inputs": [
        {
          "internalType": "address",
          "name": "rewardToken_",
          "type": "address"
        }
      ],
      "name": "lastTimeRewardApplicable",
      "outputs": [
        {
          "internalType": "uint256",
          "name": "",
          "type": "uint256"
        }
      ],
      "stateMutability": "view",
      "type": "function"
    },
    {
      "inputs": [
        {
          "internalType": "address",
          "name": "",
          "type": "address"
        }
      ],
      "name": "lastUpdateTimePerToken",
      "outputs": [
        {
          "internalType": "uint256",
          "name": "",
          "type": "uint256"
        }
      ],
      "stateMutability": "view",
      "type": "function"
    },
    {
      "inputs": [
        {
          "internalType": "address",
          "name": "rewardToken_",
          "type": "address"
        },
        {
          "internalType": "uint256",
          "name": "reward_",
          "type": "uint256"
        }
      ],
      "name": "notifyRewardAmount",
      "outputs": [],
      "stateMutability": "nonpayable",
      "type": "function"
    },
    {
      "inputs": [],
      "name": "pause",
      "outputs": [],
      "stateMutability": "nonpayable",
      "type": "function"
    },
    {
      "inputs": [],
      "name": "paused",
      "outputs": [
        {
          "internalType": "bool",
          "name": "",
          "type": "bool"
        }
      ],
      "stateMutability": "view",
      "type": "function"
    },
    {
      "inputs": [
        {
          "internalType": "address",
          "name": "",
          "type": "address"
        }
      ],
      "name": "periodFinishPerToken",
      "outputs": [
        {
          "internalType": "uint256",
          "name": "",
          "type": "uint256"
        }
      ],
      "stateMutability": "view",
      "type": "function"
    },
    {
      "inputs": [],
      "name": "poolRewardDistributor",
      "outputs": [
        {
          "internalType": "address",
          "name": "",
          "type": "address"
        }
      ],
      "stateMutability": "view",
      "type": "function"
    },
    {
      "inputs": [
        {
          "internalType": "bytes32",
          "name": "role",
          "type": "bytes32"
        },
        {
          "internalType": "address",
          "name": "account",
          "type": "address"
        }
      ],
      "name": "renounceRole",
      "outputs": [],
      "stateMutability": "nonpayable",
      "type": "function"
    },
    {
      "inputs": [
        {
          "internalType": "bytes32",
          "name": "role",
          "type": "bytes32"
        },
        {
          "internalType": "address",
          "name": "account",
          "type": "address"
        }
      ],
      "name": "revokeRole",
      "outputs": [],
      "stateMutability": "nonpayable",
      "type": "function"
    },
    {
      "inputs": [
        {
          "internalType": "address",
          "name": "rewardToken_",
          "type": "address"
        }
      ],
      "name": "rewardPerToken",
      "outputs": [
        {
          "internalType": "uint256",
          "name": "",
          "type": "uint256"
        }
      ],
      "stateMutability": "view",
      "type": "function"
    },
    {
      "inputs": [
        {
          "internalType": "address",
          "name": "",
          "type": "address"
        }
      ],
      "name": "rewardPerTokenStored",
      "outputs": [
        {
          "internalType": "uint256",
          "name": "",
          "type": "uint256"
        }
      ],
      "stateMutability": "view",
      "type": "function"
    },
    {
      "inputs": [
        {
          "internalType": "address",
          "name": "",
          "type": "address"
        }
      ],
      "name": "rewardRates",
      "outputs": [
        {
          "internalType": "uint256",
          "name": "",
          "type": "uint256"
        }
      ],
      "stateMutability": "view",
      "type": "function"
    },
    {
      "inputs": [
        {
          "internalType": "address",
          "name": "",
          "type": "address"
        },
        {
          "internalType": "address",
          "name": "",
          "type": "address"
        }
      ],
      "name": "rewards",
      "outputs": [
        {
          "internalType": "uint256",
          "name": "",
          "type": "uint256"
        }
      ],
      "stateMutability": "view",
      "type": "function"
    },
    {
      "inputs": [],
      "name": "rewardsDuration",
      "outputs": [
        {
          "internalType": "uint256",
          "name": "",
          "type": "uint256"
        }
      ],
      "stateMutability": "view",
      "type": "function"
    },
    {
      "inputs": [],
      "name": "seniorage",
      "outputs": [
        {
          "internalType": "address",
          "name": "",
          "type": "address"
        }
      ],
      "stateMutability": "view",
      "type": "function"
    },
    {
      "inputs": [
        {
          "internalType": "address",
          "name": "poolRewardDistributor_",
          "type": "address"
        }
      ],
      "name": "setPoolRewardDistributor",
      "outputs": [],
      "stateMutability": "nonpayable",
      "type": "function"
    },
    {
      "inputs": [
        {
          "internalType": "uint256",
          "name": "rewardsDuration_",
          "type": "uint256"
        }
      ],
      "name": "setRewardsDuration",
      "outputs": [],
      "stateMutability": "nonpayable",
      "type": "function"
    },
    {
      "inputs": [
        {
          "internalType": "address",
          "name": "seniorage_",
          "type": "address"
        }
      ],
      "name": "setSeniorage",
      "outputs": [],
      "stateMutability": "nonpayable",
      "type": "function"
    },
    {
      "inputs": [
        {
          "internalType": "uint256",
          "name": "amount_",
          "type": "uint256"
        }
      ],
      "name": "stake",
      "outputs": [],
      "stateMutability": "nonpayable",
      "type": "function"
    },
    {
      "inputs": [],
      "name": "stakingToken",
      "outputs": [
        {
          "internalType": "address",
          "name": "",
          "type": "address"
        }
      ],
      "stateMutability": "view",
      "type": "function"
    },
    {
      "inputs": [
        {
          "internalType": "bytes4",
          "name": "interfaceId",
          "type": "bytes4"
        }
      ],
      "name": "supportsInterface",
      "outputs": [
        {
          "internalType": "bool",
          "name": "",
          "type": "bool"
        }
      ],
      "stateMutability": "view",
      "type": "function"
    },
    {
      "inputs": [],
      "name": "unpause",
      "outputs": [],
      "stateMutability": "nonpayable",
      "type": "function"
    },
    {
      "inputs": [
        {
          "internalType": "address",
          "name": "",
          "type": "address"
        }
      ],
      "name": "userLastDepositTime",
      "outputs": [
        {
          "internalType": "uint256",
          "name": "",
          "type": "uint256"
        }
      ],
      "stateMutability": "view",
      "type": "function"
    },
    {
      "inputs": [
        {
          "internalType": "address",
          "name": "",
          "type": "address"
        },
        {
          "internalType": "address",
          "name": "",
          "type": "address"
        }
      ],
      "name": "userRewardPerTokenPaid",
      "outputs": [
        {
          "internalType": "uint256",
          "name": "",
          "type": "uint256"
        }
      ],
      "stateMutability": "view",
      "type": "function"
    },
    {
      "inputs": [
        {
          "internalType": "uint256",
          "name": "amount_",
          "type": "uint256"
        }
      ],
      "name": "withdraw",
      "outputs": [],
      "stateMutability": "nonpayable",
      "type": "function"
    }
  ],
  "bytecode": "0x60a060405261a8c06003553480156200001757600080fd5b5060405162002427380380620024278339810160408190526200003a9162000255565b6000805460ff19168155849084908490849062000058903362000127565b620000847f65d7a28e3265b37a6474929f336521b332c1681b933f6cb9f3376673440d862a3362000127565b60016002556001600160a01b03848116608052600580546001600160a01b0319908116868416179091556006805490911691841691909117905560005b8151811015620001185762000102828281518110620000e457620000e462000360565b6020026020010151600f620001b060201b620012d01790919060201c565b50806200010f8162000376565b915050620000c1565b5050505050505050506200039e565b60008281526001602090815260408083206001600160a01b038516845290915290205460ff16620001ac5760008281526001602081815260408084206001600160a01b0386168086529252808420805460ff19169093179092559051339285917f2f8788117e7eff1d82e926ec794901d17c78024a50270940304540a733656f0d9190a45b5050565b6000620001c7836001600160a01b038416620001d0565b90505b92915050565b60008181526001830160205260408120546200021957508154600181810184556000848152602080822090930184905584548482528286019093526040902091909155620001ca565b506000620001ca565b80516001600160a01b03811681146200023a57600080fd5b919050565b634e487b7160e01b600052604160045260246000fd5b600080600080608085870312156200026c57600080fd5b620002778562000222565b935060206200028881870162000222565b9350620002986040870162000222565b60608701519093506001600160401b0380821115620002b657600080fd5b818801915088601f830112620002cb57600080fd5b815181811115620002e057620002e06200023f565b8060051b604051601f19603f830116810181811085821117156200030857620003086200023f565b60405291825284820192508381018501918b8311156200032757600080fd5b938501935b828510156200035057620003408562000222565b845293850193928501926200032c565b989b979a50959850505050505050565b634e487b7160e01b600052603260045260246000fd5b6000600182016200039757634e487b7160e01b600052601160045260246000fd5b5060010190565b608051612058620003cf6000396000818161048201528181610874015281816108b50152610c8c01526120586000f3fe608060405234801561001057600080fd5b50600436106102485760003560e01c8063638634ee1161013b578063bcd11014116100b8578063e63ab1e91161007c578063e63ab1e914610561578063e70b9e2714610588578063e9fad8ee146105b3578063f1229777146105bb578063f8b2cb4f146105ce57600080fd5b8063bcd110141461050d578063c4e41b2214610520578063c635439114610528578063cc1a378f1461053b578063d547741f1461054e57600080fd5b806391d14854116100ff57806391d14854146104ac5780639ce43f90146104bf578063a217fddf146104df578063a694fc3a146104e7578063b66503cf146104fa57600080fd5b8063638634ee1461041f578063665714a9146104325780637035ab981461045257806372f702f31461047d5780638456cb59146104a457600080fd5b806336568abe116101c95780633f4ba83a1161018d5780633f4ba83a146103b25780634a3fba0e146103ba578063518cb95c146103e15780635c064139146104015780635c975abb1461041457600080fd5b806336568abe1461035b578063386a95251461036e5780633a453587146103775780633d18b9121461038a5780633d3b26031461039257600080fd5b8063248a9ca311610210578063248a9ca3146102e957806328bcf07a1461030d5780632d9e88e11461032d5780632e1a7d4d146103355780632f2ff15d1461034857600080fd5b806301ffc9a71461024d5780631343575a14610275578063134b6edb146102a0578063211dc32d146102b3578063219e272b146102d4575b600080fd5b61026061025b366004611c9e565b6105f7565b60405190151581526020015b60405180910390f35b600554610288906001600160a01b031681565b6040516001600160a01b03909116815260200161026c565b6102886102ae366004611cc8565b61062e565b6102c66102c1366004611cfd565b61063b565b60405190815260200161026c565b6102e76102e2366004611d30565b610704565b005b6102c66102f7366004611cc8565b6000908152600160208190526040909120015490565b6102c661031b366004611d30565b600a6020526000908152604090205481565b6102c661075a565b6102e7610343366004611cc8565b61076b565b6102e7610356366004611d4b565b610928565b6102e7610369366004611d4b565b610953565b6102c660035481565b6102c6610385366004611d6e565b6109d1565b6102e7610a93565b6102c66103a0366004611d30565b600c6020526000908152604090205481565b6102e7610ac2565b6102c67fd565e3fc066df348a5cbc05a8d6323e00552838041cea2d84cc59876ba37735d81565b6102c66103ef366004611d30565b600b6020526000908152604090205481565b600654610288906001600160a01b031681565b60005460ff16610260565b6102c661042d366004611d30565b610af4565b6102c6610440366004611d30565b600d6020526000908152604090205481565b6102c6610460366004611cfd565b600760209081526000928352604080842090915290825290205481565b6102887f000000000000000000000000000000000000000000000000000000000000000081565b6102e7610b66565b6102606104ba366004611d4b565b610b98565b6102c66104cd366004611d30565b60096020526000908152604090205481565b6102c6600081565b6102e76104f5366004611cc8565b610bc3565b6102e7610508366004611daa565b610cfc565b6102c661051b366004611d30565b611009565b6004546102c6565b6102e7610536366004611d30565b611059565b6102e7610549366004611cc8565b6110af565b6102e761055c366004611d4b565b6111c3565b6102c67f65d7a28e3265b37a6474929f336521b332c1681b933f6cb9f3376673440d862a81565b6102c6610596366004611cfd565b600860209081526000928352604080842090915290825290205481565b6102e76111e9565b6102c66105c9366004611d30565b611212565b6102c66105dc366004611d30565b6001600160a01b03166000908152600e602052604090205490565b60006001600160e01b03198216637965db0b60e01b148061062857506301ffc9a760e01b6001600160e01b03198316145b92915050565b6000610628600f836112ec565b600081610649600f826112f8565b61066e5760405162461bcd60e51b815260040161066590611dd4565b60405180910390fd5b6001600160a01b038085166000818152600860209081526040808320948816835293815283822054600782528483209383529290529190912054670de0b6b3a7640000906106bb86611212565b6106c59190611e2b565b6001600160a01b0387166000908152600e60205260409020546106e89190611e42565b6106f29190611e61565b6106fc9190611e83565b949350505050565b600061070f8161131a565b600580546001600160a01b0319166001600160a01b0384169081179091556040517f5064075462c42cb8990606a17f9e34f618170138c4bd1ba9dc4e7cf9fe750ae690600090a25050565b6000610766600f611324565b905090565b61077361132e565b61077b611374565b33610785816113cb565b600082116107e45760405162461bcd60e51b815260206004820152602660248201527f4d756c7469706c65526577617264506f6f6c3a2063616e206e6f74207769746860448201526506472617720360d41b6064820152608401610665565b81600460008282546107f69190611e2b565b9091555050336000908152600e60205260408120805484929061081a908490611e2b565b9091555050336000908152600d602052604081205461083c9062015180611e83565b4210156108555761084e600284611e61565b9050610863565b610860600a84611e61565b90505b60065461089d906001600160a01b037f00000000000000000000000000000000000000000000000000000000000000008116911683611405565b6108dc336108ab8386611e2b565b6001600160a01b037f0000000000000000000000000000000000000000000000000000000000000000169190611405565b337f7084f5476618d8e60b11ef0d7d3f06914655adb8793e28ff7f018d4c76d505d56109088386611e2b565b60405190815260200160405180910390a250506109256001600255565b50565b600082815260016020819052604090912001546109448161131a565b61094e8383611468565b505050565b6001600160a01b03811633146109c35760405162461bcd60e51b815260206004820152602f60248201527f416363657373436f6e74726f6c3a2063616e206f6e6c792072656e6f756e636560448201526e103937b632b9903337b91039b2b63360891b6064820152608401610665565b6109cd82826114d3565b5050565b6000836109df600f826112f8565b6109fb5760405162461bcd60e51b815260040161066590611dd4565b6001600160a01b038085166000818152600860209081526040808320948a16835293815283822054600782528483209383529290529190912054670de0b6b3a764000090610a49888761153a565b610a539190611e2b565b6001600160a01b0387166000908152600e6020526040902054610a769190611e42565b610a809190611e61565b610a8a9190611e83565b95945050505050565b610a9b61132e565b610aa3611374565b33610aad816113cb565b610ab56115a1565b50610ac06001600255565b565b7f65d7a28e3265b37a6474929f336521b332c1681b933f6cb9f3376673440d862a610aec8161131a565b610925611676565b600081610b02600f826112f8565b610b1e5760405162461bcd60e51b815260040161066590611dd4565b6001600160a01b0383166000908152600b60205260409020544210610b5b576001600160a01b0383166000908152600b6020526040902054610b5d565b425b91505b50919050565b7f65d7a28e3265b37a6474929f336521b332c1681b933f6cb9f3376673440d862a610b908161131a565b6109256116c8565b60009182526001602090815260408084206001600160a01b0393909316845291905290205460ff1690565b610bcb61132e565b610bd3611374565b33610bdd816113cb565b60008211610c395760405162461bcd60e51b815260206004820152602360248201527f4d756c7469706c65526577617264506f6f6c3a2063616e206e6f74207374616b60448201526206520360ec1b6064820152608401610665565b8160046000828254610c4b9190611e83565b9091555050336000908152600e602052604081208054849290610c6f908490611e83565b9091555050336000818152600d60205260409020429055610cbc907f00000000000000000000000000000000000000000000000000000000000000006001600160a01b0316903085611705565b60405182815233907f9e71bc8eea02a63969f509818f2dafb9254532904319f9dbda79b67bd34a5f3d9060200160405180910390a2506109256001600255565b6005546001600160a01b03163314610d8a5760405162461bcd60e51b8152602060048201526044602482018190527f4d756c7469706c65526577617264506f6f6c3a2063616c6c6572206973206e6f908201527f742074686520506f6f6c5265776172644469737472696275746f7220636f6e746064820152631c9858dd60e21b608482015260a401610665565b81610d96600f826112f8565b610db25760405162461bcd60e51b815260040161066590611dd4565b826000610dbf8282611743565b6001600160a01b0385166000908152600b60205260409020544210610e0957600354610deb9085611e61565b6001600160a01b0386166000908152600c6020526040902055610e8a565b6001600160a01b0385166000908152600b6020526040812054610e2d904290611e2b565b6001600160a01b0387166000908152600c602052604081205491925090610e549083611e42565b600354909150610e648288611e83565b610e6e9190611e61565b6001600160a01b0388166000908152600c602052604090205550505b6040516370a0823160e01b81523060048201526000906001600160a01b038716906370a0823190602401602060405180830381865afa158015610ed1573d6000803e3d6000fd5b505050506040513d601f19601f82011682018060405250810190610ef59190611e9b565b905060035481610f059190611e61565b6001600160a01b0387166000908152600c60205260409020541115610f815760405162461bcd60e51b815260206004820152602c60248201527f4d756c7469706c65526577617264506f6f6c3a2070726f76696465642072657760448201526b0c2e4c840e8dede40d0d2ced60a31b6064820152608401610665565b6001600160a01b0386166000908152600a602052604090204290819055600354610faa91611e83565b6001600160a01b0387166000818152600b6020526040908190209290925590517fac24935fd910bc682b5ccb1a07b718cadf8cf2f6d1404c4f3ddc3662dae40e2990610ff99088815260200190565b60405180910390a2505050505050565b600081611017600f826112f8565b6110335760405162461bcd60e51b815260040161066590611dd4565b6003546001600160a01b0384166000908152600c6020526040902054610b5d9190611e42565b60006110648161131a565b600680546001600160a01b0319166001600160a01b0384169081179091556040517f8144383095088e23785af5f7c03b8e1fc82a0d3936c0cc4444b2bc04e737575790600090a25050565b60006110ba8161131a565b600160005b6110c9600f611324565b81101561118557600b60006110df600f846112ec565b6001600160a01b03166001600160a01b0316815260200190815260200160002054421161110b57600091505b816111735760405162461bcd60e51b815260206004820152603260248201527f4d756c7469706c65526577617264506f6f6c3a206475726174696f6e2063616e6044820152716e6f74206265206368616e676564206e6f7760701b6064820152608401610665565b8061117d81611eb4565b9150506110bf565b5060038390556040518381527ffb46ca5a5e06d4540d6387b930a7c978bce0db5f449ec6b3f5d07c6e1d44f2d39060200160405180910390a1505050565b600082815260016020819052604090912001546111df8161131a565b61094e83836114d3565b6111f161132e565b336000908152600e602052604090205461120a9061076b565b610ac0610a93565b600081611220600f826112f8565b61123c5760405162461bcd60e51b815260040161066590611dd4565b600061124760045490565b90508060000361127257506001600160a01b0383166000908152600960205260409020549150610b60565b6001600160a01b038416600090815260096020908152604080832054600c835281842054600a9093529220548391906112aa88610af4565b6112b49190611e2b565b6112be9190611e42565b6106e890670de0b6b3a7640000611e42565b60006112e5836001600160a01b0384166117e0565b9392505050565b60006112e5838361182f565b6001600160a01b038116600090815260018301602052604081205415156112e5565b6109258133611859565b6000610628825490565b60005460ff1615610ac05760405162461bcd60e51b815260206004820152601060248201526f14185d5cd8589b194e881c185d5cd95960821b6044820152606401610665565b60028054036113c55760405162461bcd60e51b815260206004820152601f60248201527f5265656e7472616e637947756172643a207265656e7472616e742063616c6c006044820152606401610665565b60028055565b60005b6113d8600f611324565b8110156109cd576113f36113ed600f836112ec565b83611743565b806113fd81611eb4565b9150506113ce565b6040516001600160a01b03831660248201526044810182905261094e90849063a9059cbb60e01b906064015b60408051601f198184030181529190526020810180516001600160e01b03166001600160e01b0319909316929092179091526118b2565b6114728282610b98565b6109cd5760008281526001602081815260408084206001600160a01b0386168086529252808420805460ff19169093179092559051339285917f2f8788117e7eff1d82e926ec794901d17c78024a50270940304540a733656f0d9190a45050565b6114dd8282610b98565b156109cd5760008281526001602090815260408083206001600160a01b0385168085529252808320805460ff1916905551339285917ff6391f5c32d9c69d2a47ea670b442974b53935d1edc7fd64eb21e047a839171b9190a45050565b60008061154660045490565b9050806000036115705750506001600160a01b038216600090815260096020526040902054610628565b6001600160a01b038416600090815260096020908152604080832054600c9092529091205482906112be9086611e42565b60005b6115ae600f611324565b8110156109255760006115c2600f836112ec565b3360009081526008602090815260408083206001600160a01b03851684529091529020549091508015611661573360008181526008602090815260408083206001600160a01b03871680855292528220919091556116209183611405565b60405181815233906001600160a01b038416907f540798df468d7b23d11f156fdb954cb19ad414d150722a7b6d55ba369dea792e9060200160405180910390a35b5050808061166e90611eb4565b9150506115a4565b61167e611984565b6000805460ff191690557f5db9ee0a495bf2e6ff9c91a7834c1ba4fdd244a5e8aa4e537bd38aeae4b073aa335b6040516001600160a01b03909116815260200160405180910390a1565b6116d061132e565b6000805460ff191660011790557f62e78cea01bee320cd4e420270b5ea74000d11b0c9f74754ebdbfc544b05a2586116ab3390565b6040516001600160a01b038085166024830152831660448201526064810182905261173d9085906323b872dd60e01b90608401611431565b50505050565b61174c82611212565b6001600160a01b03831660009081526009602052604090205561176e82610af4565b6001600160a01b038084166000908152600a60205260409020919091558116156109cd5761179c818361063b565b6001600160a01b0391821660008181526008602090815260408083209690951682529485528381209290925560098452828220546007855283832091835293522055565b600081815260018301602052604081205461182757508154600181810184556000848152602080822090930184905584548482528286019093526040902091909155610628565b506000610628565b600082600001828154811061184657611846611ecd565b9060005260206000200154905092915050565b6118638282610b98565b6109cd57611870816119cd565b61187b8360206119df565b60405160200161188c929190611f0f565b60408051601f198184030181529082905262461bcd60e51b825261066591600401611f84565b6000611907826040518060400160405280602081526020017f5361666545524332303a206c6f772d6c6576656c2063616c6c206661696c6564815250856001600160a01b0316611b7b9092919063ffffffff16565b80519091501561094e57808060200190518101906119259190611fb7565b61094e5760405162461bcd60e51b815260206004820152602a60248201527f5361666545524332303a204552433230206f7065726174696f6e20646964206e6044820152691bdd081cdd58d8d9595960b21b6064820152608401610665565b60005460ff16610ac05760405162461bcd60e51b815260206004820152601460248201527314185d5cd8589b194e881b9bdd081c185d5cd95960621b6044820152606401610665565b60606106286001600160a01b03831660145b606060006119ee836002611e42565b6119f9906002611e83565b67ffffffffffffffff811115611a1157611a11611fd9565b6040519080825280601f01601f191660200182016040528015611a3b576020820181803683370190505b509050600360fc1b81600081518110611a5657611a56611ecd565b60200101906001600160f81b031916908160001a905350600f60fb1b81600181518110611a8557611a85611ecd565b60200101906001600160f81b031916908160001a9053506000611aa9846002611e42565b611ab4906001611e83565b90505b6001811115611b2c576f181899199a1a9b1b9c1cb0b131b232b360811b85600f1660108110611ae857611ae8611ecd565b1a60f81b828281518110611afe57611afe611ecd565b60200101906001600160f81b031916908160001a90535060049490941c93611b2581611fef565b9050611ab7565b5083156112e55760405162461bcd60e51b815260206004820181905260248201527f537472696e67733a20686578206c656e67746820696e73756666696369656e746044820152606401610665565b60606106fc848460008585600080866001600160a01b03168587604051611ba29190612006565b60006040518083038185875af1925050503d8060008114611bdf576040519150601f19603f3d011682016040523d82523d6000602084013e611be4565b606091505b5091509150611bf587838387611c00565b979650505050505050565b60608315611c6f578251600003611c68576001600160a01b0385163b611c685760405162461bcd60e51b815260206004820152601d60248201527f416464726573733a2063616c6c20746f206e6f6e2d636f6e74726163740000006044820152606401610665565b50816106fc565b6106fc8383815115611c845781518083602001fd5b8060405162461bcd60e51b81526004016106659190611f84565b600060208284031215611cb057600080fd5b81356001600160e01b0319811681146112e557600080fd5b600060208284031215611cda57600080fd5b5035919050565b80356001600160a01b0381168114611cf857600080fd5b919050565b60008060408385031215611d1057600080fd5b611d1983611ce1565b9150611d2760208401611ce1565b90509250929050565b600060208284031215611d4257600080fd5b6112e582611ce1565b60008060408385031215611d5e57600080fd5b82359150611d2760208401611ce1565b600080600060608486031215611d8357600080fd5b611d8c84611ce1565b9250611d9a60208501611ce1565b9150604084013590509250925092565b60008060408385031215611dbd57600080fd5b611dc683611ce1565b946020939093013593505050565b60208082526021908201527f4d756c7469706c65526577617264506f6f6c3a20696e76616c696420746f6b656040820152603760f91b606082015260800190565b634e487b7160e01b600052601160045260246000fd5b600082821015611e3d57611e3d611e15565b500390565b6000816000190483118215151615611e5c57611e5c611e15565b500290565b600082611e7e57634e487b7160e01b600052601260045260246000fd5b500490565b60008219821115611e9657611e96611e15565b500190565b600060208284031215611ead57600080fd5b5051919050565b600060018201611ec657611ec6611e15565b5060010190565b634e487b7160e01b600052603260045260246000fd5b60005b83811015611efe578181015183820152602001611ee6565b8381111561173d5750506000910152565b7f416363657373436f6e74726f6c3a206163636f756e7420000000000000000000815260008351611f47816017850160208801611ee3565b7001034b99036b4b9b9b4b733903937b6329607d1b6017918401918201528351611f78816028840160208801611ee3565b01602801949350505050565b6020815260008251806020840152611fa3816040850160208701611ee3565b601f01601f19169190910160400192915050565b600060208284031215611fc957600080fd5b815180151581146112e557600080fd5b634e487b7160e01b600052604160045260246000fd5b600081611ffe57611ffe611e15565b506000190190565b60008251612018818460208701611ee3565b919091019291505056fea2646970667358221220caab853462e9d7173d4df8969c3b90ec48ca9814fcc633b8384ae0ec52c6526b64736f6c634300080f0033",
  "linkReferences": {},
  "deployedLinkReferences": {}
}