{
  "_format": "hh-sol-artifact-1",
  "contractName": "PoolRewardDistributor",
  "sourceName": "contracts/PoolRewardDistributor.sol",
  "abi": [
    {
      "inputs": [
        {
          "internalType": "address",
          "name": "busd_",
          "type": "address"
        },
        {
          "internalType": "address",
          "name": "router_",
          "type": "address"
        }
      ],
      "stateMutability": "nonpayable",
      "type": "constructor"
    },
    {
      "anonymous": false,
      "inputs": [
        {
          "indexed": false,
          "internalType": "address",
          "name": "account",
          "type": "address"
        }
      ],
      "name": "Paused",
      "type": "event"
    },
    {
      "anonymous": false,
      "inputs": [
        {
          "indexed": true,
          "internalType": "bytes32",
          "name": "role",
          "type": "bytes32"
        },
        {
          "indexed": true,
          "internalType": "bytes32",
          "name": "previousAdminRole",
          "type": "bytes32"
        },
        {
          "indexed": true,
          "internalType": "bytes32",
          "name": "newAdminRole",
          "type": "bytes32"
        }
      ],
      "name": "RoleAdminChanged",
      "type": "event"
    },
    {
      "anonymous": false,
      "inputs": [
        {
          "indexed": true,
          "internalType": "bytes32",
          "name": "role",
          "type": "bytes32"
        },
        {
          "indexed": true,
          "internalType": "address",
          "name": "account",
          "type": "address"
        },
        {
          "indexed": true,
          "internalType": "address",
          "name": "sender",
          "type": "address"
        }
      ],
      "name": "RoleGranted",
      "type": "event"
    },
    {
      "anonymous": false,
      "inputs": [
        {
          "indexed": true,
          "internalType": "bytes32",
          "name": "role",
          "type": "bytes32"
        },
        {
          "indexed": true,
          "internalType": "address",
          "name": "account",
          "type": "address"
        },
        {
          "indexed": true,
          "internalType": "address",
          "name": "sender",
          "type": "address"
        }
      ],
      "name": "RoleRevoked",
      "type": "event"
    },
    {
      "anonymous": false,
      "inputs": [
        {
          "indexed": false,
          "internalType": "address",
          "name": "account",
          "type": "address"
        }
      ],
      "name": "Unpaused",
      "type": "event"
    },
    {
      "inputs": [],
      "name": "AUTHORITY_ROLE",
      "outputs": [
        {
          "internalType": "bytes32",
          "name": "",
          "type": "bytes32"
        }
      ],
      "stateMutability": "view",
      "type": "function"
    },
    {
      "inputs": [],
      "name": "DEFAULT_ADMIN_ROLE",
      "outputs": [
        {
          "internalType": "bytes32",
          "name": "",
          "type": "bytes32"
        }
      ],
      "stateMutability": "view",
      "type": "function"
    },
    {
      "inputs": [],
      "name": "PAUSER_ROLE",
      "outputs": [
        {
          "internalType": "bytes32",
          "name": "",
          "type": "bytes32"
        }
      ],
      "stateMutability": "view",
      "type": "function"
    },
    {
      "inputs": [],
      "name": "apeSwapPool",
      "outputs": [
        {
          "internalType": "address",
          "name": "",
          "type": "address"
        }
      ],
      "stateMutability": "view",
      "type": "function"
    },
    {
      "inputs": [],
      "name": "biSwapPool",
      "outputs": [
        {
          "internalType": "address",
          "name": "",
          "type": "address"
        }
      ],
      "stateMutability": "view",
      "type": "function"
    },
    {
      "inputs": [],
      "name": "btcSnacks",
      "outputs": [
        {
          "internalType": "address",
          "name": "",
          "type": "address"
        }
      ],
      "stateMutability": "view",
      "type": "function"
    },
    {
      "inputs": [],
      "name": "busd",
      "outputs": [
        {
          "internalType": "address",
          "name": "",
          "type": "address"
        }
      ],
      "stateMutability": "view",
      "type": "function"
    },
    {
      "inputs": [
        {
          "internalType": "address",
          "name": "zoinks_",
          "type": "address"
        },
        {
          "internalType": "address",
          "name": "snacks_",
          "type": "address"
        },
        {
          "internalType": "address",
          "name": "btcSnacks_",
          "type": "address"
        },
        {
          "internalType": "address",
          "name": "ethSnacks_",
          "type": "address"
        },
        {
          "internalType": "address",
          "name": "apeSwapPool_",
          "type": "address"
        },
        {
          "internalType": "address",
          "name": "biSwapPool_",
          "type": "address"
        },
        {
          "internalType": "address",
          "name": "pancakeSwapPool_",
          "type": "address"
        },
        {
          "internalType": "address",
          "name": "snacksPool_",
          "type": "address"
        },
        {
          "internalType": "address",
          "name": "lunchBox_",
          "type": "address"
        },
        {
          "internalType": "address",
          "name": "seniorage_",
          "type": "address"
        },
        {
          "internalType": "address",
          "name": "authority_",
          "type": "address"
        }
      ],
      "name": "configure",
      "outputs": [],
      "stateMutability": "nonpayable",
      "type": "function"
    },
    {
      "inputs": [
        {
          "internalType": "uint256",
          "name": "zoinksAmountOutMin_",
          "type": "uint256"
        }
      ],
      "name": "distributeRewards",
      "outputs": [],
      "stateMutability": "nonpayable",
      "type": "function"
    },
    {
      "inputs": [],
      "name": "ethSnacks",
      "outputs": [
        {
          "internalType": "address",
          "name": "",
          "type": "address"
        }
      ],
      "stateMutability": "view",
      "type": "function"
    },
    {
      "inputs": [
        {
          "internalType": "bytes32",
          "name": "role",
          "type": "bytes32"
        }
      ],
      "name": "getRoleAdmin",
      "outputs": [
        {
          "internalType": "bytes32",
          "name": "",
          "type": "bytes32"
        }
      ],
      "stateMutability": "view",
      "type": "function"
    },
    {
      "inputs": [
        {
          "internalType": "bytes32",
          "name": "role",
          "type": "bytes32"
        },
        {
          "internalType": "address",
          "name": "account",
          "type": "address"
        }
      ],
      "name": "grantRole",
      "outputs": [],
      "stateMutability": "nonpayable",
      "type": "function"
    },
    {
      "inputs": [
        {
          "internalType": "bytes32",
          "name": "role",
          "type": "bytes32"
        },
        {
          "internalType": "address",
          "name": "account",
          "type": "address"
        }
      ],
      "name": "hasRole",
      "outputs": [
        {
          "internalType": "bool",
          "name": "",
          "type": "bool"
        }
      ],
      "stateMutability": "view",
      "type": "function"
    },
    {
      "inputs": [],
      "name": "lunchBox",
      "outputs": [
        {
          "internalType": "address",
          "name": "",
          "type": "address"
        }
      ],
      "stateMutability": "view",
      "type": "function"
    },
    {
      "inputs": [],
      "name": "pancakeSwapPool",
      "outputs": [
        {
          "internalType": "address",
          "name": "",
          "type": "address"
        }
      ],
      "stateMutability": "view",
      "type": "function"
    },
    {
      "inputs": [],
      "name": "pause",
      "outputs": [],
      "stateMutability": "nonpayable",
      "type": "function"
    },
    {
      "inputs": [],
      "name": "paused",
      "outputs": [
        {
          "internalType": "bool",
          "name": "",
          "type": "bool"
        }
      ],
      "stateMutability": "view",
      "type": "function"
    },
    {
      "inputs": [
        {
          "internalType": "bytes32",
          "name": "role",
          "type": "bytes32"
        },
        {
          "internalType": "address",
          "name": "account",
          "type": "address"
        }
      ],
      "name": "renounceRole",
      "outputs": [],
      "stateMutability": "nonpayable",
      "type": "function"
    },
    {
      "inputs": [
        {
          "internalType": "bytes32",
          "name": "role",
          "type": "bytes32"
        },
        {
          "internalType": "address",
          "name": "account",
          "type": "address"
        }
      ],
      "name": "revokeRole",
      "outputs": [],
      "stateMutability": "nonpayable",
      "type": "function"
    },
    {
      "inputs": [],
      "name": "router",
      "outputs": [
        {
          "internalType": "address",
          "name": "",
          "type": "address"
        }
      ],
      "stateMutability": "view",
      "type": "function"
    },
    {
      "inputs": [],
      "name": "seniorage",
      "outputs": [
        {
          "internalType": "address",
          "name": "",
          "type": "address"
        }
      ],
      "stateMutability": "view",
      "type": "function"
    },
    {
      "inputs": [],
      "name": "snacks",
      "outputs": [
        {
          "internalType": "address",
          "name": "",
          "type": "address"
        }
      ],
      "stateMutability": "view",
      "type": "function"
    },
    {
      "inputs": [],
      "name": "snacksPool",
      "outputs": [
        {
          "internalType": "address",
          "name": "",
          "type": "address"
        }
      ],
      "stateMutability": "view",
      "type": "function"
    },
    {
      "inputs": [
        {
          "internalType": "bytes4",
          "name": "interfaceId",
          "type": "bytes4"
        }
      ],
      "name": "supportsInterface",
      "outputs": [
        {
          "internalType": "bool",
          "name": "",
          "type": "bool"
        }
      ],
      "stateMutability": "view",
      "type": "function"
    },
    {
      "inputs": [],
      "name": "unpause",
      "outputs": [],
      "stateMutability": "nonpayable",
      "type": "function"
    },
    {
      "inputs": [],
      "name": "zoinks",
      "outputs": [
        {
          "internalType": "address",
          "name": "",
          "type": "address"
        }
      ],
      "stateMutability": "view",
      "type": "function"
    }
  ],
  "bytecode": "0x60c06040523480156200001157600080fd5b506040516200213f3803806200213f8339810160408190526200003491620001a9565b6000805460ff191681556200004a903362000103565b620000767f65d7a28e3265b37a6474929f336521b332c1681b933f6cb9f3376673440d862a3362000103565b6001600160a01b03828116608081905290821660a081905260405163095ea7b360e01b81526004810191909152600019602482015263095ea7b3906044016020604051808303816000875af1158015620000d4573d6000803e3d6000fd5b505050506040513d601f19601f82011682018060405250810190620000fa9190620001e1565b5050506200020c565b60008281526001602090815260408083206001600160a01b038516845290915290205460ff16620001885760008281526001602081815260408084206001600160a01b0386168086529252808420805460ff19169093179092559051339285917f2f8788117e7eff1d82e926ec794901d17c78024a50270940304540a733656f0d9190a45b5050565b80516001600160a01b0381168114620001a457600080fd5b919050565b60008060408385031215620001bd57600080fd5b620001c8836200018c565b9150620001d8602084016200018c565b90509250929050565b600060208284031215620001f457600080fd5b815180151581146200020557600080fd5b9392505050565b60805160a051611ef16200024e600039600081816103d30152610f7a01526000818161026a01528181610df001528181610e980152610ef30152611ef16000f3fe608060405234801561001057600080fd5b506004361061018d5760003560e01c806356b2f01f116100de5780638caeb16d11610097578063cd6c80e211610071578063cd6c80e214610381578063d547741f14610394578063e63ab1e9146103a7578063f887ea40146103ce57600080fd5b80638caeb16d1461035357806391d1485414610366578063a217fddf1461037957600080fd5b806356b2f01f146102f457806359974e38146103075780635c0641391461031a5780635c975abb1461032d5780638456cb59146103385780638765e3381461034057600080fd5b806336568abe1161014b5780634a3fba0e116101255780634a3fba0e146102945780634d42f293146102bb578063512eb14b146102ce5780635586b99c146102e157600080fd5b806336568abe146102525780633ca5b234146102655780633f4ba83a1461028c57600080fd5b806256c9301461019257806301ffc9a7146101c25780630244234f146101e55780631184278f146101f8578063248a9ca31461020b5780632f2ff15d1461023d575b600080fd5b6004546101a5906001600160a01b031681565b6040516001600160a01b0390911681526020015b60405180910390f35b6101d56101d0366004611a3d565b6103f5565b60405190151581526020016101b9565b6003546101a5906001600160a01b031681565b600a546101a5906001600160a01b031681565b61022f610219366004611a67565b6000908152600160208190526040909120015490565b6040519081526020016101b9565b61025061024b366004611a9c565b61042c565b005b610250610260366004611a9c565b610457565b6101a57f000000000000000000000000000000000000000000000000000000000000000081565b6102506104da565b61022f7fd565e3fc066df348a5cbc05a8d6323e00552838041cea2d84cc59876ba37735d81565b6007546101a5906001600160a01b031681565b6002546101a5906001600160a01b031681565b6006546101a5906001600160a01b031681565b6005546101a5906001600160a01b031681565b610250610315366004611a67565b61050f565b600b546101a5906001600160a01b031681565b60005460ff166101d5565b61025061113a565b6009546101a5906001600160a01b031681565b6008546101a5906001600160a01b031681565b6101d5610374366004611a9c565b61116c565b61022f600081565b61025061038f366004611ac8565b611197565b6102506103a2366004611a9c565b611359565b61022f7f65d7a28e3265b37a6474929f336521b332c1681b933f6cb9f3376673440d862a81565b6101a57f000000000000000000000000000000000000000000000000000000000000000081565b60006001600160e01b03198216637965db0b60e01b148061042657506301ffc9a760e01b6001600160e01b03198316145b92915050565b600082815260016020819052604090912001546104488161137f565b6104528383611389565b505050565b6001600160a01b03811633146104cc5760405162461bcd60e51b815260206004820152602f60248201527f416363657373436f6e74726f6c3a2063616e206f6e6c792072656e6f756e636560448201526e103937b632b9903337b91039b2b63360891b60648201526084015b60405180910390fd5b6104d682826113f4565b5050565b7f65d7a28e3265b37a6474929f336521b332c1681b933f6cb9f3376673440d862a6105048161137f565b61050c61145b565b50565b6105176114ad565b7fd565e3fc066df348a5cbc05a8d6323e00552838041cea2d84cc59876ba37735d6105418161137f565b6002546040516370a0823160e01b81523060048201526000918291829182916001600160a01b03909116906370a0823190602401602060405180830381865afa158015610592573d6000803e3d6000fd5b505050506040513d601f19601f820116820180604052508101906105b69190611b94565b905080156107d6576002546001600160a01b03166127106105d96103e884611bc3565b6105e39190611be2565b600b54909450610600906001600160a01b038381169116866114f5565b61060a8483611c04565b925061271061061b61090485611bc3565b6106259190611be2565b600654909550610642906001600160a01b038381169116876114f5565b600654604051633c6b16ab60e01b8152600481018790526001600160a01b0390911690633c6b16ab90602401600060405180830381600087803b15801561068857600080fd5b505af115801561069c573d6000803e3d6000fd5b50505050612710610904846106b19190611bc3565b6106bb9190611be2565b6007549095506106d8906001600160a01b038381169116876114f5565b600754604051633c6b16ab60e01b8152600481018790526001600160a01b0390911690633c6b16ab90602401600060405180830381600087803b15801561071e57600080fd5b505af1158015610732573d6000803e3d6000fd5b50505050612710611508846107479190611bc3565b6107519190611be2565b60085490955061076e906001600160a01b038381169116876114f5565b60085460405163b66503cf60e01b81526001600160a01b038381166004830152602482018890529091169063b66503cf90604401600060405180830381600087803b1580156107bc57600080fd5b505af11580156107d0573d6000803e3d6000fd5b50505050505b6003546040516370a0823160e01b81523060048201526000916001600160a01b0316906370a0823190602401602060405180830381865afa15801561081f573d6000803e3d6000fd5b505050506040513d601f19601f820116820180604052508101906108439190611b94565b905080156109d5576003546001600160a01b03166127106108666103e884611bc3565b6108709190611be2565b600b5490955061088d906001600160a01b038381169116876114f5565b6108978583611c04565b93506127106108a8611a0b86611bc3565b6108b29190611be2565b6008549096506108cf906001600160a01b038381169116886114f5565b60085460405163b66503cf60e01b81526001600160a01b038381166004830152602482018990529091169063b66503cf90604401600060405180830381600087803b15801561091d57600080fd5b505af1158015610931573d6000803e3d6000fd5b50505050612710610d05856109469190611bc3565b6109509190611be2565b60095490965061096d906001600160a01b038381169116886114f5565b60095460405163b66503cf60e01b81526001600160a01b038381166004830152602482018990529091169063b66503cf90604401600060405180830381600087803b1580156109bb57600080fd5b505af11580156109cf573d6000803e3d6000fd5b50505050505b600480546040516370a0823160e01b815230928101929092526000916001600160a01b03909116906370a0823190602401602060405180830381865afa158015610a23573d6000803e3d6000fd5b505050506040513d601f19601f82011682018060405250810190610a479190611b94565b90508015610bd9576004546001600160a01b0316612710610a6a6103e884611bc3565b610a749190611be2565b600b54909650610a91906001600160a01b038381169116886114f5565b610a9b8683611c04565b9450612710610aac61165287611bc3565b610ab69190611be2565b600854909750610ad3906001600160a01b038381169116896114f5565b60085460405163b66503cf60e01b81526001600160a01b038381166004830152602482018a90529091169063b66503cf90604401600060405180830381600087803b158015610b2157600080fd5b505af1158015610b35573d6000803e3d6000fd5b505050506127106110be86610b4a9190611bc3565b610b549190611be2565b600954909750610b71906001600160a01b038381169116896114f5565b60095460405163b66503cf60e01b81526001600160a01b038381166004830152602482018a90529091169063b66503cf90604401600060405180830381600087803b158015610bbf57600080fd5b505af1158015610bd3573d6000803e3d6000fd5b50505050505b6005546040516370a0823160e01b81523060048201526000916001600160a01b0316906370a0823190602401602060405180830381865afa158015610c22573d6000803e3d6000fd5b505050506040513d601f19601f82011682018060405250810190610c469190611b94565b90508015610dd8576005546001600160a01b0316612710610c696103e884611bc3565b610c739190611be2565b600b54909750610c90906001600160a01b038381169116896114f5565b610c9a8783611c04565b9550612710610cab61165288611bc3565b610cb59190611be2565b600854909850610cd2906001600160a01b0383811691168a6114f5565b60085460405163b66503cf60e01b81526001600160a01b038381166004830152602482018b90529091169063b66503cf90604401600060405180830381600087803b158015610d2057600080fd5b505af1158015610d34573d6000803e3d6000fd5b505050506127106110be87610d499190611bc3565b610d539190611be2565b600954909850610d70906001600160a01b0383811691168a6114f5565b60095460405163b66503cf60e01b81526001600160a01b038381166004830152602482018b90529091169063b66503cf90604401600060405180830381600087803b158015610dbe57600080fd5b505af1158015610dd2573d6000803e3d6000fd5b50505050505b6040516370a0823160e01b81523060048201526000907f00000000000000000000000000000000000000000000000000000000000000006001600160a01b0316906370a0823190602401602060405180830381865afa158015610e3f573d6000803e3d6000fd5b505050506040513d601f19601f82011682018060405250810190610e639190611b94565b9050801561112e57612710610e7a6103e883611bc3565b610e849190611be2565b600b54909750610ec1906001600160a01b037f000000000000000000000000000000000000000000000000000000000000000081169116896114f5565b610ecb8782611c04565b60408051600280825260608201835292985060009290916020830190803683370190505090507f000000000000000000000000000000000000000000000000000000000000000081600081518110610f2557610f25611c31565b6001600160a01b039283166020918202929092010152600254825191169082906001908110610f5657610f56611c31565b60200260200101906001600160a01b031690816001600160a01b03168152505060007f00000000000000000000000000000000000000000000000000000000000000006001600160a01b03166338ed1739898e8530426040518663ffffffff1660e01b8152600401610fcc959493929190611c47565b6000604051808303816000875af1158015610feb573d6000803e3d6000fd5b505050506040513d6000823e601f3d908101601f191682016040526110139190810190611cb8565b60035481519192506000916001600160a01b0390911690631388e948908490600190811061104357611043611c31565b60200260200101516040518263ffffffff1660e01b815260040161106991815260200190565b6020604051808303816000875af1158015611088573d6000803e3d6000fd5b505050506040513d601f19601f820116820180604052508101906110ac9190611b94565b600a546003549192506110cc916001600160a01b039081169116836114f5565b600a54604051633c6b16ab60e01b8152600481018390526001600160a01b0390911690633c6b16ab90602401600060405180830381600087803b15801561111257600080fd5b505af1158015611126573d6000803e3d6000fd5b505050505050505b50505050505050505050565b7f65d7a28e3265b37a6474929f336521b332c1681b933f6cb9f3376673440d862a6111648161137f565b61050c611547565b60009182526001602090815260408084206001600160a01b0393909316845291905290205460ff1690565b60006111a28161137f565b600280546001600160a01b03199081166001600160a01b038f8116919091179092556003805482168e84161790556004805482168d84161790556005805482168c84161790556006805482168b84161790556007805482168a8416179055600880548216898416179055600980548216888416179055600a80548216878416179055600b805490911691851691909117905561125e7fd565e3fc066df348a5cbc05a8d6323e00552838041cea2d84cc59876ba37735d83611389565b604051636eb1769f60e11b81523060048201526001600160a01b038c811660248301528d169063dd62ed3e90604401602060405180830381865afa1580156112aa573d6000803e3d6000fd5b505050506040513d601f19601f820116820180604052508101906112ce9190611b94565b60000361134b5760405163095ea7b360e01b81526001600160a01b038c8116600483015260001960248301528d169063095ea7b3906044016020604051808303816000875af1158015611325573d6000803e3d6000fd5b505050506040513d601f19601f820116820180604052508101906113499190611d76565b505b505050505050505050505050565b600082815260016020819052604090912001546113758161137f565b61045283836113f4565b61050c8133611584565b611393828261116c565b6104d65760008281526001602081815260408084206001600160a01b0386168086529252808420805460ff19169093179092559051339285917f2f8788117e7eff1d82e926ec794901d17c78024a50270940304540a733656f0d9190a45050565b6113fe828261116c565b156104d65760008281526001602090815260408083206001600160a01b0385168085529252808320805460ff1916905551339285917ff6391f5c32d9c69d2a47ea670b442974b53935d1edc7fd64eb21e047a839171b9190a45050565b6114636115dd565b6000805460ff191690557f5db9ee0a495bf2e6ff9c91a7834c1ba4fdd244a5e8aa4e537bd38aeae4b073aa335b6040516001600160a01b03909116815260200160405180910390a1565b60005460ff16156114f35760405162461bcd60e51b815260206004820152601060248201526f14185d5cd8589b194e881c185d5cd95960821b60448201526064016104c3565b565b604080516001600160a01b038416602482015260448082018490528251808303909101815260649091019091526020810180516001600160e01b031663a9059cbb60e01b179052610452908490611626565b61154f6114ad565b6000805460ff191660011790557f62e78cea01bee320cd4e420270b5ea74000d11b0c9f74754ebdbfc544b05a2586114903390565b61158e828261116c565b6104d65761159b816116f8565b6115a683602061170a565b6040516020016115b7929190611dc8565b60408051601f198184030181529082905262461bcd60e51b82526104c391600401611e3d565b60005460ff166114f35760405162461bcd60e51b815260206004820152601460248201527314185d5cd8589b194e881b9bdd081c185d5cd95960621b60448201526064016104c3565b600061167b826040518060400160405280602081526020017f5361666545524332303a206c6f772d6c6576656c2063616c6c206661696c6564815250856001600160a01b03166118ad9092919063ffffffff16565b80519091501561045257808060200190518101906116999190611d76565b6104525760405162461bcd60e51b815260206004820152602a60248201527f5361666545524332303a204552433230206f7065726174696f6e20646964206e6044820152691bdd081cdd58d8d9595960b21b60648201526084016104c3565b60606104266001600160a01b03831660145b60606000611719836002611bc3565b611724906002611e70565b67ffffffffffffffff81111561173c5761173c611c1b565b6040519080825280601f01601f191660200182016040528015611766576020820181803683370190505b509050600360fc1b8160008151811061178157611781611c31565b60200101906001600160f81b031916908160001a905350600f60fb1b816001815181106117b0576117b0611c31565b60200101906001600160f81b031916908160001a90535060006117d4846002611bc3565b6117df906001611e70565b90505b6001811115611857576f181899199a1a9b1b9c1cb0b131b232b360811b85600f166010811061181357611813611c31565b1a60f81b82828151811061182957611829611c31565b60200101906001600160f81b031916908160001a90535060049490941c9361185081611e88565b90506117e2565b5083156118a65760405162461bcd60e51b815260206004820181905260248201527f537472696e67733a20686578206c656e67746820696e73756666696369656e7460448201526064016104c3565b9392505050565b60606118bc84846000856118c4565b949350505050565b6060824710156119255760405162461bcd60e51b815260206004820152602660248201527f416464726573733a20696e73756666696369656e742062616c616e636520666f6044820152651c8818d85b1b60d21b60648201526084016104c3565b600080866001600160a01b031685876040516119419190611e9f565b60006040518083038185875af1925050503d806000811461197e576040519150601f19603f3d011682016040523d82523d6000602084013e611983565b606091505b50915091506119948783838761199f565b979650505050505050565b60608315611a0e578251600003611a07576001600160a01b0385163b611a075760405162461bcd60e51b815260206004820152601d60248201527f416464726573733a2063616c6c20746f206e6f6e2d636f6e747261637400000060448201526064016104c3565b50816118bc565b6118bc8383815115611a235781518083602001fd5b8060405162461bcd60e51b81526004016104c39190611e3d565b600060208284031215611a4f57600080fd5b81356001600160e01b0319811681146118a657600080fd5b600060208284031215611a7957600080fd5b5035919050565b80356001600160a01b0381168114611a9757600080fd5b919050565b60008060408385031215611aaf57600080fd5b82359150611abf60208401611a80565b90509250929050565b60008060008060008060008060008060006101608c8e031215611aea57600080fd5b611af38c611a80565b9a50611b0160208d01611a80565b9950611b0f60408d01611a80565b9850611b1d60608d01611a80565b9750611b2b60808d01611a80565b9650611b3960a08d01611a80565b9550611b4760c08d01611a80565b9450611b5560e08d01611a80565b9350611b646101008d01611a80565b9250611b736101208d01611a80565b9150611b826101408d01611a80565b90509295989b509295989b9093969950565b600060208284031215611ba657600080fd5b5051919050565b634e487b7160e01b600052601160045260246000fd5b6000816000190483118215151615611bdd57611bdd611bad565b500290565b600082611bff57634e487b7160e01b600052601260045260246000fd5b500490565b600082821015611c1657611c16611bad565b500390565b634e487b7160e01b600052604160045260246000fd5b634e487b7160e01b600052603260045260246000fd5b600060a082018783526020878185015260a0604085015281875180845260c086019150828901935060005b81811015611c975784516001600160a01b031683529383019391830191600101611c72565b50506001600160a01b03969096166060850152505050608001529392505050565b60006020808385031215611ccb57600080fd5b825167ffffffffffffffff80821115611ce357600080fd5b818501915085601f830112611cf757600080fd5b815181811115611d0957611d09611c1b565b8060051b604051601f19603f83011681018181108582111715611d2e57611d2e611c1b565b604052918252848201925083810185019188831115611d4c57600080fd5b938501935b82851015611d6a57845184529385019392850192611d51565b98975050505050505050565b600060208284031215611d8857600080fd5b815180151581146118a657600080fd5b60005b83811015611db3578181015183820152602001611d9b565b83811115611dc2576000848401525b50505050565b7f416363657373436f6e74726f6c3a206163636f756e7420000000000000000000815260008351611e00816017850160208801611d98565b7001034b99036b4b9b9b4b733903937b6329607d1b6017918401918201528351611e31816028840160208801611d98565b01602801949350505050565b6020815260008251806020840152611e5c816040850160208701611d98565b601f01601f19169190910160400192915050565b60008219821115611e8357611e83611bad565b500190565b600081611e9757611e97611bad565b506000190190565b60008251611eb1818460208701611d98565b919091019291505056fea264697066735822122001da9dca668b247a0decb302b69d7ba084d9f72c715524454b3adb711ce6417c64736f6c634300080f0033",
  "linkReferences": {},
  "deployedLinkReferences": {}
}