{
  "_format": "hh-sol-artifact-1",
  "contractName": "Pulse",
  "sourceName": "contracts/Pulse.sol",
  "abi": [
    {
      "inputs": [
        {
          "internalType": "address",
          "name": "busd_",
          "type": "address"
        },
        {
          "internalType": "address",
          "name": "router_",
          "type": "address"
        }
      ],
      "stateMutability": "nonpayable",
      "type": "constructor"
    },
    {
      "anonymous": false,
      "inputs": [
        {
          "indexed": false,
          "internalType": "address",
          "name": "account",
          "type": "address"
        }
      ],
      "name": "Paused",
      "type": "event"
    },
    {
      "anonymous": false,
      "inputs": [
        {
          "indexed": true,
          "internalType": "bytes32",
          "name": "role",
          "type": "bytes32"
        },
        {
          "indexed": true,
          "internalType": "bytes32",
          "name": "previousAdminRole",
          "type": "bytes32"
        },
        {
          "indexed": true,
          "internalType": "bytes32",
          "name": "newAdminRole",
          "type": "bytes32"
        }
      ],
      "name": "RoleAdminChanged",
      "type": "event"
    },
    {
      "anonymous": false,
      "inputs": [
        {
          "indexed": true,
          "internalType": "bytes32",
          "name": "role",
          "type": "bytes32"
        },
        {
          "indexed": true,
          "internalType": "address",
          "name": "account",
          "type": "address"
        },
        {
          "indexed": true,
          "internalType": "address",
          "name": "sender",
          "type": "address"
        }
      ],
      "name": "RoleGranted",
      "type": "event"
    },
    {
      "anonymous": false,
      "inputs": [
        {
          "indexed": true,
          "internalType": "bytes32",
          "name": "role",
          "type": "bytes32"
        },
        {
          "indexed": true,
          "internalType": "address",
          "name": "account",
          "type": "address"
        },
        {
          "indexed": true,
          "internalType": "address",
          "name": "sender",
          "type": "address"
        }
      ],
      "name": "RoleRevoked",
      "type": "event"
    },
    {
      "anonymous": false,
      "inputs": [
        {
          "indexed": false,
          "internalType": "address",
          "name": "account",
          "type": "address"
        }
      ],
      "name": "Unpaused",
      "type": "event"
    },
    {
      "inputs": [],
      "name": "AUTHORITY_ROLE",
      "outputs": [
        {
          "internalType": "bytes32",
          "name": "",
          "type": "bytes32"
        }
      ],
      "stateMutability": "view",
      "type": "function"
    },
    {
      "inputs": [],
      "name": "DEFAULT_ADMIN_ROLE",
      "outputs": [
        {
          "internalType": "bytes32",
          "name": "",
          "type": "bytes32"
        }
      ],
      "stateMutability": "view",
      "type": "function"
    },
    {
      "inputs": [],
      "name": "PAUSER_ROLE",
      "outputs": [
        {
          "internalType": "bytes32",
          "name": "",
          "type": "bytes32"
        }
      ],
      "stateMutability": "view",
      "type": "function"
    },
    {
      "inputs": [],
      "name": "btcSnacks",
      "outputs": [
        {
          "internalType": "address",
          "name": "",
          "type": "address"
        }
      ],
      "stateMutability": "view",
      "type": "function"
    },
    {
      "inputs": [],
      "name": "busd",
      "outputs": [
        {
          "internalType": "address",
          "name": "",
          "type": "address"
        }
      ],
      "stateMutability": "view",
      "type": "function"
    },
    {
      "inputs": [],
      "name": "cakeLP",
      "outputs": [
        {
          "internalType": "address",
          "name": "",
          "type": "address"
        }
      ],
      "stateMutability": "view",
      "type": "function"
    },
    {
      "inputs": [
        {
          "internalType": "address",
          "name": "cakeLP_",
          "type": "address"
        },
        {
          "internalType": "address",
          "name": "zoinks_",
          "type": "address"
        },
        {
          "internalType": "address",
          "name": "snacks_",
          "type": "address"
        },
        {
          "internalType": "address",
          "name": "btcSnacks_",
          "type": "address"
        },
        {
          "internalType": "address",
          "name": "ethSnacks_",
          "type": "address"
        },
        {
          "internalType": "address",
          "name": "pancakeSwapPool_",
          "type": "address"
        },
        {
          "internalType": "address",
          "name": "snacksPool_",
          "type": "address"
        },
        {
          "internalType": "address",
          "name": "seniorage_",
          "type": "address"
        },
        {
          "internalType": "address",
          "name": "authority_",
          "type": "address"
        }
      ],
      "name": "configure",
      "outputs": [],
      "stateMutability": "nonpayable",
      "type": "function"
    },
    {
      "inputs": [],
      "name": "distributeBtcSnacksAndEthSnacks",
      "outputs": [],
      "stateMutability": "nonpayable",
      "type": "function"
    },
    {
      "inputs": [],
      "name": "distributeSnacks",
      "outputs": [],
      "stateMutability": "nonpayable",
      "type": "function"
    },
    {
      "inputs": [],
      "name": "distributeZoinks",
      "outputs": [],
      "stateMutability": "nonpayable",
      "type": "function"
    },
    {
      "inputs": [],
      "name": "ethSnacks",
      "outputs": [
        {
          "internalType": "address",
          "name": "",
          "type": "address"
        }
      ],
      "stateMutability": "view",
      "type": "function"
    },
    {
      "inputs": [
        {
          "internalType": "bytes32",
          "name": "role",
          "type": "bytes32"
        }
      ],
      "name": "getRoleAdmin",
      "outputs": [
        {
          "internalType": "bytes32",
          "name": "",
          "type": "bytes32"
        }
      ],
      "stateMutability": "view",
      "type": "function"
    },
    {
      "inputs": [
        {
          "internalType": "bytes32",
          "name": "role",
          "type": "bytes32"
        },
        {
          "internalType": "address",
          "name": "account",
          "type": "address"
        }
      ],
      "name": "grantRole",
      "outputs": [],
      "stateMutability": "nonpayable",
      "type": "function"
    },
    {
      "inputs": [],
      "name": "harvest",
      "outputs": [],
      "stateMutability": "nonpayable",
      "type": "function"
    },
    {
      "inputs": [
        {
          "internalType": "bytes32",
          "name": "role",
          "type": "bytes32"
        },
        {
          "internalType": "address",
          "name": "account",
          "type": "address"
        }
      ],
      "name": "hasRole",
      "outputs": [
        {
          "internalType": "bool",
          "name": "",
          "type": "bool"
        }
      ],
      "stateMutability": "view",
      "type": "function"
    },
    {
      "inputs": [],
      "name": "pancakeSwapPool",
      "outputs": [
        {
          "internalType": "address",
          "name": "",
          "type": "address"
        }
      ],
      "stateMutability": "view",
      "type": "function"
    },
    {
      "inputs": [],
      "name": "pause",
      "outputs": [],
      "stateMutability": "nonpayable",
      "type": "function"
    },
    {
      "inputs": [],
      "name": "paused",
      "outputs": [
        {
          "internalType": "bool",
          "name": "",
          "type": "bool"
        }
      ],
      "stateMutability": "view",
      "type": "function"
    },
    {
      "inputs": [
        {
          "internalType": "bytes32",
          "name": "role",
          "type": "bytes32"
        },
        {
          "internalType": "address",
          "name": "account",
          "type": "address"
        }
      ],
      "name": "renounceRole",
      "outputs": [],
      "stateMutability": "nonpayable",
      "type": "function"
    },
    {
      "inputs": [
        {
          "internalType": "bytes32",
          "name": "role",
          "type": "bytes32"
        },
        {
          "internalType": "address",
          "name": "account",
          "type": "address"
        }
      ],
      "name": "revokeRole",
      "outputs": [],
      "stateMutability": "nonpayable",
      "type": "function"
    },
    {
      "inputs": [],
      "name": "router",
      "outputs": [
        {
          "internalType": "address",
          "name": "",
          "type": "address"
        }
      ],
      "stateMutability": "view",
      "type": "function"
    },
    {
      "inputs": [],
      "name": "seniorage",
      "outputs": [
        {
          "internalType": "address",
          "name": "",
          "type": "address"
        }
      ],
      "stateMutability": "view",
      "type": "function"
    },
    {
      "inputs": [],
      "name": "snacks",
      "outputs": [
        {
          "internalType": "address",
          "name": "",
          "type": "address"
        }
      ],
      "stateMutability": "view",
      "type": "function"
    },
    {
      "inputs": [],
      "name": "snacksPool",
      "outputs": [
        {
          "internalType": "address",
          "name": "",
          "type": "address"
        }
      ],
      "stateMutability": "view",
      "type": "function"
    },
    {
      "inputs": [
        {
          "internalType": "bytes4",
          "name": "interfaceId",
          "type": "bytes4"
        }
      ],
      "name": "supportsInterface",
      "outputs": [
        {
          "internalType": "bool",
          "name": "",
          "type": "bool"
        }
      ],
      "stateMutability": "view",
      "type": "function"
    },
    {
      "inputs": [],
      "name": "unpause",
      "outputs": [],
      "stateMutability": "nonpayable",
      "type": "function"
    },
    {
      "inputs": [
        {
          "internalType": "address",
          "name": "receiver_",
          "type": "address"
        }
      ],
      "name": "withdrawCakeLP",
      "outputs": [],
      "stateMutability": "nonpayable",
      "type": "function"
    },
    {
      "inputs": [
        {
          "internalType": "address",
          "name": "receiver_",
          "type": "address"
        },
        {
          "internalType": "uint256",
          "name": "amount_",
          "type": "uint256"
        }
      ],
      "name": "withdrawCakeLPFromPool",
      "outputs": [],
      "stateMutability": "nonpayable",
      "type": "function"
    },
    {
      "inputs": [],
      "name": "zoinks",
      "outputs": [
        {
          "internalType": "address",
          "name": "",
          "type": "address"
        }
      ],
      "stateMutability": "view",
      "type": "function"
    }
  ],
  "bytecode": "0x60c06040523480156200001157600080fd5b50604051620020b4380380620020b48339810160408190526200003491620001a9565b6000805460ff191681556200004a903362000103565b620000767f65d7a28e3265b37a6474929f336521b332c1681b933f6cb9f3376673440d862a3362000103565b6001600160a01b03828116608081905290821660a081905260405163095ea7b360e01b81526004810191909152600019602482015263095ea7b3906044016020604051808303816000875af1158015620000d4573d6000803e3d6000fd5b505050506040513d601f19601f82011682018060405250810190620000fa9190620001e1565b5050506200020c565b60008281526001602090815260408083206001600160a01b038516845290915290205460ff16620001885760008281526001602081815260408084206001600160a01b0386168086529252808420805460ff19169093179092559051339285917f2f8788117e7eff1d82e926ec794901d17c78024a50270940304540a733656f0d9190a45b5050565b80516001600160a01b0381168114620001a457600080fd5b919050565b60008060408385031215620001bd57600080fd5b620001c8836200018c565b9150620001d8602084016200018c565b90509250929050565b600060208284031215620001f457600080fd5b815180151581146200020557600080fd5b9392505050565b60805160a051611e74620002406000396000818161040e01528181610f89015261101a0152600061029f0152611e746000f3fe608060405234801561001057600080fd5b50600436106101cd5760003560e01c80635c064139116101045780638caeb16d116100a2578063aaf4f01011610071578063aaf4f010146103bc578063d547741f146103cf578063e63ab1e9146103e2578063f887ea401461040957600080fd5b80638caeb16d1461037b57806391d148541461038e57806398fe6d2e146103a1578063a217fddf146103b457600080fd5b80638456cb59116100de5780638456cb59146103455780638765e3381461034d578063880e6a4a14610360578063891053501461036857600080fd5b80635c064139146103145780635c975abb146103275780636b3fb0de1461033257600080fd5b80633ca5b23411610171578063471de3be1161014b578063471de3be146102d15780634a3fba0e146102d9578063512eb14b146102ee57806356b2f01f1461030157600080fd5b80633ca5b2341461029a5780633f4ba83a146102c15780634641257d146102c957600080fd5b80630244234f116101ad5780630244234f1461022f578063248a9ca3146102425780632f2ff15d1461027457806336568abe1461028757600080fd5b806256c930146101d2578062bd96201461020257806301ffc9a71461020c575b600080fd5b6005546101e5906001600160a01b031681565b6040516001600160a01b0390911681526020015b60405180910390f35b61020a610430565b005b61021f61021a366004611ab2565b6106a5565b60405190151581526020016101f9565b6004546101e5906001600160a01b031681565b610266610250366004611adc565b6000908152600160208190526040909120015490565b6040519081526020016101f9565b61020a610282366004611b11565b6106dc565b61020a610295366004611b11565b610702565b6101e57f000000000000000000000000000000000000000000000000000000000000000081565b61020a610785565b61020a6107ba565b61020a6108ad565b610266600080516020611e1f83398151915281565b6003546101e5906001600160a01b031681565b6006546101e5906001600160a01b031681565b6009546101e5906001600160a01b031681565b60005460ff1661021f565b61020a610340366004611b3d565b610a7c565b61020a610b13565b6008546101e5906001600160a01b031681565b61020a610b45565b6002546101e5906001600160a01b031681565b6007546101e5906001600160a01b031681565b61021f61039c366004611b11565b610cca565b61020a6103af366004611b58565b610cf5565b610266600081565b61020a6103ca366004611c00565b611192565b61020a6103dd366004611b11565b6113ce565b6102667f65d7a28e3265b37a6474929f336521b332c1681b933f6cb9f3376673440d862a81565b6101e57f000000000000000000000000000000000000000000000000000000000000000081565b6104386113f4565b600080516020611e1f8339815191526104508161143c565b6003546040516370a0823160e01b81523060048201526000916001600160a01b0316906370a0823190602401602060405180830381865afa158015610499573d6000803e3d6000fd5b505050506040513d601f19601f820116820180604052508101906104bd9190611c2a565b905080156105cb5760006127106104d66103e884611c59565b6104e09190611c78565b600480546040516329d538b760e21b81529293506001600160a01b03169163a754e2dc916105149185910190815260200190565b602060405180830381865afa158015610531573d6000803e3d6000fd5b505050506040513d601f19601f820116820180604052508101906105559190611c9a565b156105c957600480546040516302711d2960e31b81529182018390526001600160a01b031690631388e948906024016020604051808303816000875af11580156105a3573d6000803e3d6000fd5b505050506040513d601f19601f820116820180604052508101906105c79190611c2a565b505b505b6002546040516370a0823160e01b81523060048201526000916001600160a01b0316906370a0823190602401602060405180830381865afa158015610614573d6000803e3d6000fd5b505050506040513d601f19601f820116820180604052508101906106389190611c2a565b905080156106a05760075460405163534a7e1d60e11b8152600481018390526001600160a01b039091169063a694fc3a906024015b600060405180830381600087803b15801561068757600080fd5b505af115801561069b573d6000803e3d6000fd5b505050505b505050565b60006001600160e01b03198216637965db0b60e01b14806106d657506301ffc9a760e01b6001600160e01b03198316145b92915050565b600082815260016020819052604090912001546106f88161143c565b6106a08383611446565b6001600160a01b03811633146107775760405162461bcd60e51b815260206004820152602f60248201527f416363657373436f6e74726f6c3a2063616e206f6e6c792072656e6f756e636560448201526e103937b632b9903337b91039b2b63360891b60648201526084015b60405180910390fd5b61078182826114b1565b5050565b7f65d7a28e3265b37a6474929f336521b332c1681b933f6cb9f3376673440d862a6107af8161143c565b6107b7611518565b50565b6107c26113f4565b600080516020611e1f8339815191526107da8161143c565b600760009054906101000a90046001600160a01b03166001600160a01b0316633d18b9126040518163ffffffff1660e01b8152600401600060405180830381600087803b15801561082a57600080fd5b505af115801561083e573d6000803e3d6000fd5b50505050600860009054906101000a90046001600160a01b03166001600160a01b0316633d18b9126040518163ffffffff1660e01b8152600401600060405180830381600087803b15801561089257600080fd5b505af11580156108a6573d6000803e3d6000fd5b5050505050565b6108b56113f4565b600080516020611e1f8339815191526108cd8161143c565b600480546040516370a0823160e01b815230928101929092526000916001600160a01b03909116906370a0823190602401602060405180830381865afa15801561091b573d6000803e3d6000fd5b505050506040513d601f19601f8201168201806040525081019061093f9190611c2a565b905080156107815760006127106109586103e884611c59565b6109629190611c78565b6004805460405163150123c960e31b81529293506001600160a01b03169163a8091e48916109969185910190815260200190565b602060405180830381865afa1580156109b3573d6000803e3d6000fd5b505050506040513d601f19601f820116820180604052508101906109d79190611c9a565b15610a4b576004805460405163db006a7560e01b81529182018390526001600160a01b03169063db006a75906024016020604051808303816000875af1158015610a25573d6000803e3d6000fd5b505050506040513d601f19601f82011682018060405250810190610a499190611c2a565b505b60085460405163534a7e1d60e11b8152600481018390526001600160a01b039091169063a694fc3a9060240161066d565b6000610a878161143c565b6002546040516370a0823160e01b81523060048201526000916001600160a01b0316906370a0823190602401602060405180830381865afa158015610ad0573d6000803e3d6000fd5b505050506040513d601f19601f82011682018060405250810190610af49190611c2a565b905080156106a0576002546106a0906001600160a01b0316848361156a565b7f65d7a28e3265b37a6474929f336521b332c1681b933f6cb9f3376673440d862a610b3d8161143c565b6107b76115bc565b610b4d6113f4565b600080516020611e1f833981519152610b658161143c565b6005546040516370a0823160e01b81523060048201526000916001600160a01b0316906370a0823190602401602060405180830381865afa158015610bae573d6000803e3d6000fd5b505050506040513d601f19601f82011682018060405250810190610bd29190611c2a565b6006546040516370a0823160e01b81523060048201529192506000916001600160a01b03909116906370a0823190602401602060405180830381865afa158015610c20573d6000803e3d6000fd5b505050506040513d601f19601f82011682018060405250810190610c449190611c2a565b90508115610c8857600954610c88906001600160a01b0316612710610c6b61138886611c59565b610c759190611c78565b6005546001600160a01b0316919061156a565b80156106a0576009546106a0906001600160a01b0316612710610cad61138885611c59565b610cb79190611c78565b6006546001600160a01b0316919061156a565b60009182526001602090815260408084206001600160a01b0393909316845291905290205460ff1690565b6000610d008161143c565b600280546001600160a01b03199081166001600160a01b038d8116919091179092556003805482168c84161790556004805482168b84161790556005805482168a841617905560068054821689841617905560078054821688841617905560088054821687841617905560098054909116918516919091179055610d92600080516020611e1f83398151915283611446565b604051636eb1769f60e11b81523060048201526001600160a01b0386811660248301528b169063dd62ed3e90604401602060405180830381865afa158015610dde573d6000803e3d6000fd5b505050506040513d601f19601f82011682018060405250810190610e029190611c2a565b600003610e7f5760405163095ea7b360e01b81526001600160a01b03868116600483015260001960248301528b169063095ea7b3906044016020604051808303816000875af1158015610e59573d6000803e3d6000fd5b505050506040513d601f19601f82011682018060405250810190610e7d9190611c9a565b505b604051636eb1769f60e11b81523060048201526001600160a01b0389811660248301528a169063dd62ed3e90604401602060405180830381865afa158015610ecb573d6000803e3d6000fd5b505050506040513d601f19601f82011682018060405250810190610eef9190611c2a565b600003610f6c5760405163095ea7b360e01b81526001600160a01b03898116600483015260001960248301528a169063095ea7b3906044016020604051808303816000875af1158015610f46573d6000803e3d6000fd5b505050506040513d601f19601f82011682018060405250810190610f6a9190611c9a565b505b604051636eb1769f60e11b81523060048201526001600160a01b037f0000000000000000000000000000000000000000000000000000000000000000811660248301528a169063dd62ed3e90604401602060405180830381865afa158015610fd8573d6000803e3d6000fd5b505050506040513d601f19601f82011682018060405250810190610ffc9190611c2a565b6000036110995760405163095ea7b360e01b81526001600160a01b037f00000000000000000000000000000000000000000000000000000000000000008116600483015260001960248301528a169063095ea7b3906044016020604051808303816000875af1158015611073573d6000803e3d6000fd5b505050506040513d601f19601f820116820180604052508101906110979190611c9a565b505b604051636eb1769f60e11b81523060048201526001600160a01b03858116602483015289169063dd62ed3e90604401602060405180830381865afa1580156110e5573d6000803e3d6000fd5b505050506040513d601f19601f820116820180604052508101906111099190611c2a565b6000036111865760405163095ea7b360e01b81526001600160a01b038581166004830152600019602483015289169063095ea7b3906044016020604051808303816000875af1158015611160573d6000803e3d6000fd5b505050506040513d601f19601f820116820180604052508101906111849190611c9a565b505b50505050505050505050565b600061119d8161143c565b60075460405163f8b2cb4f60e01b81523060048201526001600160a01b039091169063f8b2cb4f90602401602060405180830381865afa1580156111e5573d6000803e3d6000fd5b505050506040513d601f19601f820116820180604052508101906112099190611c2a565b821115801561121757508115155b61126d5760405162461bcd60e51b815260206004820152602160248201527f50756c73653a20696e76616c696420616d6f756e7420746f20776974686472616044820152607760f81b606482015260840161076e565b6002546040516370a0823160e01b81523060048201526000916001600160a01b0316906370a0823190602401602060405180830381865afa1580156112b6573d6000803e3d6000fd5b505050506040513d601f19601f820116820180604052508101906112da9190611c2a565b600754604051632e1a7d4d60e01b8152600481018690529192506001600160a01b031690632e1a7d4d90602401600060405180830381600087803b15801561132157600080fd5b505af1158015611335573d6000803e3d6000fd5b50506002546040516370a0823160e01b81523060048201526113c8935087925084916001600160a01b0316906370a0823190602401602060405180830381865afa158015611387573d6000803e3d6000fd5b505050506040513d601f19601f820116820180604052508101906113ab9190611c2a565b6113b59190611cbc565b6002546001600160a01b0316919061156a565b50505050565b600082815260016020819052604090912001546113ea8161143c565b6106a083836114b1565b60005460ff161561143a5760405162461bcd60e51b815260206004820152601060248201526f14185d5cd8589b194e881c185d5cd95960821b604482015260640161076e565b565b6107b781336115f9565b6114508282610cca565b6107815760008281526001602081815260408084206001600160a01b0386168086529252808420805460ff19169093179092559051339285917f2f8788117e7eff1d82e926ec794901d17c78024a50270940304540a733656f0d9190a45050565b6114bb8282610cca565b156107815760008281526001602090815260408083206001600160a01b0385168085529252808320805460ff1916905551339285917ff6391f5c32d9c69d2a47ea670b442974b53935d1edc7fd64eb21e047a839171b9190a45050565b611520611652565b6000805460ff191690557f5db9ee0a495bf2e6ff9c91a7834c1ba4fdd244a5e8aa4e537bd38aeae4b073aa335b6040516001600160a01b03909116815260200160405180910390a1565b604080516001600160a01b038416602482015260448082018490528251808303909101815260649091019091526020810180516001600160e01b031663a9059cbb60e01b1790526106a090849061169b565b6115c46113f4565b6000805460ff191660011790557f62e78cea01bee320cd4e420270b5ea74000d11b0c9f74754ebdbfc544b05a25861154d3390565b6116038282610cca565b610781576116108161176d565b61161b83602061177f565b60405160200161162c929190611cff565b60408051601f198184030181529082905262461bcd60e51b825261076e91600401611d74565b60005460ff1661143a5760405162461bcd60e51b815260206004820152601460248201527314185d5cd8589b194e881b9bdd081c185d5cd95960621b604482015260640161076e565b60006116f0826040518060400160405280602081526020017f5361666545524332303a206c6f772d6c6576656c2063616c6c206661696c6564815250856001600160a01b03166119229092919063ffffffff16565b8051909150156106a0578080602001905181019061170e9190611c9a565b6106a05760405162461bcd60e51b815260206004820152602a60248201527f5361666545524332303a204552433230206f7065726174696f6e20646964206e6044820152691bdd081cdd58d8d9595960b21b606482015260840161076e565b60606106d66001600160a01b03831660145b6060600061178e836002611c59565b611799906002611da7565b67ffffffffffffffff8111156117b1576117b1611dbf565b6040519080825280601f01601f1916602001820160405280156117db576020820181803683370190505b509050600360fc1b816000815181106117f6576117f6611dd5565b60200101906001600160f81b031916908160001a905350600f60fb1b8160018151811061182557611825611dd5565b60200101906001600160f81b031916908160001a9053506000611849846002611c59565b611854906001611da7565b90505b60018111156118cc576f181899199a1a9b1b9c1cb0b131b232b360811b85600f166010811061188857611888611dd5565b1a60f81b82828151811061189e5761189e611dd5565b60200101906001600160f81b031916908160001a90535060049490941c936118c581611deb565b9050611857565b50831561191b5760405162461bcd60e51b815260206004820181905260248201527f537472696e67733a20686578206c656e67746820696e73756666696369656e74604482015260640161076e565b9392505050565b60606119318484600085611939565b949350505050565b60608247101561199a5760405162461bcd60e51b815260206004820152602660248201527f416464726573733a20696e73756666696369656e742062616c616e636520666f6044820152651c8818d85b1b60d21b606482015260840161076e565b600080866001600160a01b031685876040516119b69190611e02565b60006040518083038185875af1925050503d80600081146119f3576040519150601f19603f3d011682016040523d82523d6000602084013e6119f8565b606091505b5091509150611a0987838387611a14565b979650505050505050565b60608315611a83578251600003611a7c576001600160a01b0385163b611a7c5760405162461bcd60e51b815260206004820152601d60248201527f416464726573733a2063616c6c20746f206e6f6e2d636f6e7472616374000000604482015260640161076e565b5081611931565b6119318383815115611a985781518083602001fd5b8060405162461bcd60e51b815260040161076e9190611d74565b600060208284031215611ac457600080fd5b81356001600160e01b03198116811461191b57600080fd5b600060208284031215611aee57600080fd5b5035919050565b80356001600160a01b0381168114611b0c57600080fd5b919050565b60008060408385031215611b2457600080fd5b82359150611b3460208401611af5565b90509250929050565b600060208284031215611b4f57600080fd5b61191b82611af5565b60008060008060008060008060006101208a8c031215611b7757600080fd5b611b808a611af5565b9850611b8e60208b01611af5565b9750611b9c60408b01611af5565b9650611baa60608b01611af5565b9550611bb860808b01611af5565b9450611bc660a08b01611af5565b9350611bd460c08b01611af5565b9250611be260e08b01611af5565b9150611bf16101008b01611af5565b90509295985092959850929598565b60008060408385031215611c1357600080fd5b611c1c83611af5565b946020939093013593505050565b600060208284031215611c3c57600080fd5b5051919050565b634e487b7160e01b600052601160045260246000fd5b6000816000190483118215151615611c7357611c73611c43565b500290565b600082611c9557634e487b7160e01b600052601260045260246000fd5b500490565b600060208284031215611cac57600080fd5b8151801515811461191b57600080fd5b600082821015611cce57611cce611c43565b500390565b60005b83811015611cee578181015183820152602001611cd6565b838111156113c85750506000910152565b7f416363657373436f6e74726f6c3a206163636f756e7420000000000000000000815260008351611d37816017850160208801611cd3565b7001034b99036b4b9b9b4b733903937b6329607d1b6017918401918201528351611d68816028840160208801611cd3565b01602801949350505050565b6020815260008251806020840152611d93816040850160208701611cd3565b601f01601f19169190910160400192915050565b60008219821115611dba57611dba611c43565b500190565b634e487b7160e01b600052604160045260246000fd5b634e487b7160e01b600052603260045260246000fd5b600081611dfa57611dfa611c43565b506000190190565b60008251611e14818460208701611cd3565b919091019291505056fed565e3fc066df348a5cbc05a8d6323e00552838041cea2d84cc59876ba37735da264697066735822122091da2778e1c8c34da51d37ce4289712ffd3b43feda3487f62630dc8b68d5f0ba64736f6c634300080f0033",
  "linkReferences": {},
  "deployedLinkReferences": {}
}