{
  "_format": "hh-sol-artifact-1",
  "contractName": "Seniorage",
  "sourceName": "contracts/Seniorage.sol",
  "abi": [
    {
      "inputs": [
        {
          "internalType": "address",
          "name": "busd_",
          "type": "address"
        },
        {
          "internalType": "address",
          "name": "router_",
          "type": "address"
        }
      ],
      "stateMutability": "nonpayable",
      "type": "constructor"
    },
    {
      "anonymous": false,
      "inputs": [
        {
          "indexed": true,
          "internalType": "address",
          "name": "lunchBox",
          "type": "address"
        }
      ],
      "name": "LunchBoxUpdated",
      "type": "event"
    },
    {
      "anonymous": false,
      "inputs": [
        {
          "indexed": false,
          "internalType": "address",
          "name": "account",
          "type": "address"
        }
      ],
      "name": "Paused",
      "type": "event"
    },
    {
      "anonymous": false,
      "inputs": [
        {
          "indexed": true,
          "internalType": "address",
          "name": "pulse",
          "type": "address"
        }
      ],
      "name": "PulseUpdated",
      "type": "event"
    },
    {
      "anonymous": false,
      "inputs": [
        {
          "indexed": true,
          "internalType": "bytes32",
          "name": "role",
          "type": "bytes32"
        },
        {
          "indexed": true,
          "internalType": "bytes32",
          "name": "previousAdminRole",
          "type": "bytes32"
        },
        {
          "indexed": true,
          "internalType": "bytes32",
          "name": "newAdminRole",
          "type": "bytes32"
        }
      ],
      "name": "RoleAdminChanged",
      "type": "event"
    },
    {
      "anonymous": false,
      "inputs": [
        {
          "indexed": true,
          "internalType": "bytes32",
          "name": "role",
          "type": "bytes32"
        },
        {
          "indexed": true,
          "internalType": "address",
          "name": "account",
          "type": "address"
        },
        {
          "indexed": true,
          "internalType": "address",
          "name": "sender",
          "type": "address"
        }
      ],
      "name": "RoleGranted",
      "type": "event"
    },
    {
      "anonymous": false,
      "inputs": [
        {
          "indexed": true,
          "internalType": "bytes32",
          "name": "role",
          "type": "bytes32"
        },
        {
          "indexed": true,
          "internalType": "address",
          "name": "account",
          "type": "address"
        },
        {
          "indexed": true,
          "internalType": "address",
          "name": "sender",
          "type": "address"
        }
      ],
      "name": "RoleRevoked",
      "type": "event"
    },
    {
      "anonymous": false,
      "inputs": [
        {
          "indexed": false,
          "internalType": "address",
          "name": "account",
          "type": "address"
        }
      ],
      "name": "Unpaused",
      "type": "event"
    },
    {
      "inputs": [],
      "name": "AUTHORITY_ROLE",
      "outputs": [
        {
          "internalType": "bytes32",
          "name": "",
          "type": "bytes32"
        }
      ],
      "stateMutability": "view",
      "type": "function"
    },
    {
      "inputs": [],
      "name": "DEFAULT_ADMIN_ROLE",
      "outputs": [
        {
          "internalType": "bytes32",
          "name": "",
          "type": "bytes32"
        }
      ],
      "stateMutability": "view",
      "type": "function"
    },
    {
      "inputs": [],
      "name": "PAUSER_ROLE",
      "outputs": [
        {
          "internalType": "bytes32",
          "name": "",
          "type": "bytes32"
        }
      ],
      "stateMutability": "view",
      "type": "function"
    },
    {
      "inputs": [],
      "name": "apeLP",
      "outputs": [
        {
          "internalType": "address",
          "name": "",
          "type": "address"
        }
      ],
      "stateMutability": "view",
      "type": "function"
    },
    {
      "inputs": [],
      "name": "bdmWallet",
      "outputs": [
        {
          "internalType": "address",
          "name": "",
          "type": "address"
        }
      ],
      "stateMutability": "view",
      "type": "function"
    },
    {
      "inputs": [],
      "name": "bswLP",
      "outputs": [
        {
          "internalType": "address",
          "name": "",
          "type": "address"
        }
      ],
      "stateMutability": "view",
      "type": "function"
    },
    {
      "inputs": [],
      "name": "btc",
      "outputs": [
        {
          "internalType": "address",
          "name": "",
          "type": "address"
        }
      ],
      "stateMutability": "view",
      "type": "function"
    },
    {
      "inputs": [],
      "name": "btcAmountStored",
      "outputs": [
        {
          "internalType": "uint256",
          "name": "",
          "type": "uint256"
        }
      ],
      "stateMutability": "view",
      "type": "function"
    },
    {
      "inputs": [],
      "name": "btcSnacks",
      "outputs": [
        {
          "internalType": "address",
          "name": "",
          "type": "address"
        }
      ],
      "stateMutability": "view",
      "type": "function"
    },
    {
      "inputs": [],
      "name": "busd",
      "outputs": [
        {
          "internalType": "address",
          "name": "",
          "type": "address"
        }
      ],
      "stateMutability": "view",
      "type": "function"
    },
    {
      "inputs": [],
      "name": "busdAmountStored",
      "outputs": [
        {
          "internalType": "uint256",
          "name": "",
          "type": "uint256"
        }
      ],
      "stateMutability": "view",
      "type": "function"
    },
    {
      "inputs": [],
      "name": "cakeLP",
      "outputs": [
        {
          "internalType": "address",
          "name": "",
          "type": "address"
        }
      ],
      "stateMutability": "view",
      "type": "function"
    },
    {
      "inputs": [
        {
          "internalType": "address",
          "name": "cakeLP_",
          "type": "address"
        },
        {
          "internalType": "address",
          "name": "apeLP_",
          "type": "address"
        },
        {
          "internalType": "address",
          "name": "bswLP_",
          "type": "address"
        },
        {
          "internalType": "address",
          "name": "zoinks_",
          "type": "address"
        },
        {
          "internalType": "address",
          "name": "btc_",
          "type": "address"
        },
        {
          "internalType": "address",
          "name": "eth_",
          "type": "address"
        },
        {
          "internalType": "address",
          "name": "snacks_",
          "type": "address"
        },
        {
          "internalType": "address",
          "name": "btcSnacks_",
          "type": "address"
        },
        {
          "internalType": "address",
          "name": "ethSnacks_",
          "type": "address"
        }
      ],
      "name": "configureCurrencies",
      "outputs": [],
      "stateMutability": "nonpayable",
      "type": "function"
    },
    {
      "inputs": [
        {
          "internalType": "address",
          "name": "bdmWallet_",
          "type": "address"
        },
        {
          "internalType": "address",
          "name": "crmWallet_",
          "type": "address"
        },
        {
          "internalType": "address",
          "name": "devManagerWallet_",
          "type": "address"
        },
        {
          "internalType": "address",
          "name": "marketingManagerWallet_",
          "type": "address"
        },
        {
          "internalType": "address",
          "name": "devWallet_",
          "type": "address"
        },
        {
          "internalType": "address",
          "name": "marketingFundWallet_",
          "type": "address"
        },
        {
          "internalType": "address",
          "name": "situationalFundWallet_",
          "type": "address"
        },
        {
          "internalType": "address",
          "name": "multisigWallet_",
          "type": "address"
        }
      ],
      "name": "configureWallets",
      "outputs": [],
      "stateMutability": "nonpayable",
      "type": "function"
    },
    {
      "inputs": [],
      "name": "crmWallet",
      "outputs": [
        {
          "internalType": "address",
          "name": "",
          "type": "address"
        }
      ],
      "stateMutability": "view",
      "type": "function"
    },
    {
      "inputs": [],
      "name": "devManagerWallet",
      "outputs": [
        {
          "internalType": "address",
          "name": "",
          "type": "address"
        }
      ],
      "stateMutability": "view",
      "type": "function"
    },
    {
      "inputs": [],
      "name": "devWallet",
      "outputs": [
        {
          "internalType": "address",
          "name": "",
          "type": "address"
        }
      ],
      "stateMutability": "view",
      "type": "function"
    },
    {
      "inputs": [
        {
          "internalType": "uint256",
          "name": "btcAmountOutMin_",
          "type": "uint256"
        },
        {
          "internalType": "uint256",
          "name": "ethAmountOutMin_",
          "type": "uint256"
        },
        {
          "internalType": "uint256",
          "name": "zoinksAmountOutMin_",
          "type": "uint256"
        }
      ],
      "name": "distributeBusd",
      "outputs": [],
      "stateMutability": "nonpayable",
      "type": "function"
    },
    {
      "inputs": [
        {
          "internalType": "uint256",
          "name": "zoinksBusdAmountOutMin_",
          "type": "uint256"
        },
        {
          "internalType": "uint256",
          "name": "btcBusdAmountOutMin_",
          "type": "uint256"
        },
        {
          "internalType": "uint256",
          "name": "ethBusdAmountOutMin_",
          "type": "uint256"
        }
      ],
      "name": "distributeNonBusdCurrencies",
      "outputs": [],
      "stateMutability": "nonpayable",
      "type": "function"
    },
    {
      "inputs": [],
      "name": "eth",
      "outputs": [
        {
          "internalType": "address",
          "name": "",
          "type": "address"
        }
      ],
      "stateMutability": "view",
      "type": "function"
    },
    {
      "inputs": [],
      "name": "ethAmountStored",
      "outputs": [
        {
          "internalType": "uint256",
          "name": "",
          "type": "uint256"
        }
      ],
      "stateMutability": "view",
      "type": "function"
    },
    {
      "inputs": [],
      "name": "ethSnacks",
      "outputs": [
        {
          "internalType": "address",
          "name": "",
          "type": "address"
        }
      ],
      "stateMutability": "view",
      "type": "function"
    },
    {
      "inputs": [
        {
          "internalType": "bytes32",
          "name": "role",
          "type": "bytes32"
        }
      ],
      "name": "getRoleAdmin",
      "outputs": [
        {
          "internalType": "bytes32",
          "name": "",
          "type": "bytes32"
        }
      ],
      "stateMutability": "view",
      "type": "function"
    },
    {
      "inputs": [
        {
          "internalType": "bytes32",
          "name": "role",
          "type": "bytes32"
        },
        {
          "internalType": "address",
          "name": "account",
          "type": "address"
        }
      ],
      "name": "grantRole",
      "outputs": [],
      "stateMutability": "nonpayable",
      "type": "function"
    },
    {
      "inputs": [
        {
          "internalType": "bytes32",
          "name": "role",
          "type": "bytes32"
        },
        {
          "internalType": "address",
          "name": "account",
          "type": "address"
        }
      ],
      "name": "hasRole",
      "outputs": [
        {
          "internalType": "bool",
          "name": "",
          "type": "bool"
        }
      ],
      "stateMutability": "view",
      "type": "function"
    },
    {
      "inputs": [],
      "name": "lunchBox",
      "outputs": [
        {
          "internalType": "address",
          "name": "",
          "type": "address"
        }
      ],
      "stateMutability": "view",
      "type": "function"
    },
    {
      "inputs": [],
      "name": "marketingFundWallet",
      "outputs": [
        {
          "internalType": "address",
          "name": "",
          "type": "address"
        }
      ],
      "stateMutability": "view",
      "type": "function"
    },
    {
      "inputs": [],
      "name": "marketingManagerWallet",
      "outputs": [
        {
          "internalType": "address",
          "name": "",
          "type": "address"
        }
      ],
      "stateMutability": "view",
      "type": "function"
    },
    {
      "inputs": [],
      "name": "multisigWallet",
      "outputs": [
        {
          "internalType": "address",
          "name": "",
          "type": "address"
        }
      ],
      "stateMutability": "view",
      "type": "function"
    },
    {
      "inputs": [],
      "name": "pause",
      "outputs": [],
      "stateMutability": "nonpayable",
      "type": "function"
    },
    {
      "inputs": [],
      "name": "paused",
      "outputs": [
        {
          "internalType": "bool",
          "name": "",
          "type": "bool"
        }
      ],
      "stateMutability": "view",
      "type": "function"
    },
    {
      "inputs": [
        {
          "internalType": "uint256",
          "name": "addLiquidityBusdAmountMin_",
          "type": "uint256"
        },
        {
          "internalType": "uint256",
          "name": "addLiquidityZoinksAmountMin_",
          "type": "uint256"
        }
      ],
      "name": "provideLiquidity",
      "outputs": [],
      "stateMutability": "nonpayable",
      "type": "function"
    },
    {
      "inputs": [],
      "name": "pulse",
      "outputs": [
        {
          "internalType": "address",
          "name": "",
          "type": "address"
        }
      ],
      "stateMutability": "view",
      "type": "function"
    },
    {
      "inputs": [
        {
          "internalType": "bytes32",
          "name": "role",
          "type": "bytes32"
        },
        {
          "internalType": "address",
          "name": "account",
          "type": "address"
        }
      ],
      "name": "renounceRole",
      "outputs": [],
      "stateMutability": "nonpayable",
      "type": "function"
    },
    {
      "inputs": [
        {
          "internalType": "bytes32",
          "name": "role",
          "type": "bytes32"
        },
        {
          "internalType": "address",
          "name": "account",
          "type": "address"
        }
      ],
      "name": "revokeRole",
      "outputs": [],
      "stateMutability": "nonpayable",
      "type": "function"
    },
    {
      "inputs": [],
      "name": "router",
      "outputs": [
        {
          "internalType": "address",
          "name": "",
          "type": "address"
        }
      ],
      "stateMutability": "view",
      "type": "function"
    },
    {
      "inputs": [
        {
          "internalType": "address",
          "name": "lunchBox_",
          "type": "address"
        }
      ],
      "name": "setLunchBox",
      "outputs": [],
      "stateMutability": "nonpayable",
      "type": "function"
    },
    {
      "inputs": [
        {
          "internalType": "address",
          "name": "pulse_",
          "type": "address"
        }
      ],
      "name": "setPulse",
      "outputs": [],
      "stateMutability": "nonpayable",
      "type": "function"
    },
    {
      "inputs": [],
      "name": "situationalFundWallet",
      "outputs": [
        {
          "internalType": "address",
          "name": "",
          "type": "address"
        }
      ],
      "stateMutability": "view",
      "type": "function"
    },
    {
      "inputs": [],
      "name": "snacks",
      "outputs": [
        {
          "internalType": "address",
          "name": "",
          "type": "address"
        }
      ],
      "stateMutability": "view",
      "type": "function"
    },
    {
      "inputs": [
        {
          "internalType": "bytes4",
          "name": "interfaceId",
          "type": "bytes4"
        }
      ],
      "name": "supportsInterface",
      "outputs": [
        {
          "internalType": "bool",
          "name": "",
          "type": "bool"
        }
      ],
      "stateMutability": "view",
      "type": "function"
    },
    {
      "inputs": [],
      "name": "unpause",
      "outputs": [],
      "stateMutability": "nonpayable",
      "type": "function"
    },
    {
      "inputs": [
        {
          "internalType": "address",
          "name": "receiver_",
          "type": "address"
        }
      ],
      "name": "withdrawLP",
      "outputs": [],
      "stateMutability": "nonpayable",
      "type": "function"
    },
    {
      "inputs": [],
      "name": "zoinks",
      "outputs": [
        {
          "internalType": "address",
          "name": "",
          "type": "address"
        }
      ],
      "stateMutability": "view",
      "type": "function"
    },
    {
      "inputs": [],
      "name": "zoinksAmountStored",
      "outputs": [
        {
          "internalType": "uint256",
          "name": "",
          "type": "uint256"
        }
      ],
      "stateMutability": "view",
      "type": "function"
    }
  ],
  "bytecode": "0x60c06040523480156200001157600080fd5b50604051620039b9380380620039b98339810160408190526200003491620001a9565b6000805460ff191681556200004a903362000103565b620000767f65d7a28e3265b37a6474929f336521b332c1681b933f6cb9f3376673440d862a3362000103565b6001600160a01b03828116608081905290821660a081905260405163095ea7b360e01b81526004810191909152600019602482015263095ea7b3906044016020604051808303816000875af1158015620000d4573d6000803e3d6000fd5b505050506040513d601f19601f82011682018060405250810190620000fa9190620001e1565b5050506200020c565b60008281526001602090815260408083206001600160a01b038516845290915290205460ff16620001885760008281526001602081815260408084206001600160a01b0386168086529252808420805460ff19169093179092559051339285917f2f8788117e7eff1d82e926ec794901d17c78024a50270940304540a733656f0d9190a45b5050565b80516001600160a01b0381168114620001a457600080fd5b919050565b60008060408385031215620001bd57600080fd5b620001c8836200018c565b9150620001d8602084016200018c565b90509250929050565b600060208284031215620001f457600080fd5b815180151581146200020557600080fd5b9392505050565b60805160a05161372c6200028d600039600081816105f30152818161083b015281816108d90152818161139001528181611add01528181611d91015261202f0152600081816103ba01528181610a5b01528181610ae401528181610e4601528181611334015281816119a101528181611a410152612335015261372c6000f3fe608060405234801561001057600080fd5b506004361061027e5760003560e01c80638456cb591161015c578063a96a95c8116100ce578063deb189b511610087578063deb189b51461058f578063e63ab1e9146105a2578063ea340f34146105c9578063ee580d9b146105d2578063f7d54de3146105db578063f887ea40146105ee57600080fd5b8063a96a95c81461051d578063b0842b0314610530578063bce4cdf614610543578063c579535a14610556578063d547741f14610569578063d9d2e7371461057c57600080fd5b80638f127052116101205780638f127052146104c05780639075becf146104c957806391d14854146104dc578063a217fddf146104ef578063a28d57d8146104f7578063a3265b461461050a57600080fd5b80638456cb591461046c57806389105350146104745780638c1331e5146104875780638c7c9e0c1461049a5780638ea5220f146104ad57600080fd5b806336568abe116101f55780634d65947b116101b95780634d65947b14610402578063512eb14b1461041557806356b2f01f146104285780635c975abb1461043b5780636e6ecbec146104465780637a16af7f1461045957600080fd5b806336568abe146103a25780633ca5b234146103b55780633f4ba83a146103dc5780634a3fba0e146103e45780634b4968f1146103f957600080fd5b80631184278f116102475780631184278f146103115780632448f2f014610324578063248a9ca3146103375780632ed9033a146103695780632f2ff15d1461037c57806335d6846b1461038f57600080fd5b806256c9301461028357806301ffc9a7146102b35780630244234f146102d65780630751cf74146102e9578063085cc248146102fe575b600080fd5b600954610296906001600160a01b031681565b6040516001600160a01b0390911681526020015b60405180910390f35b6102c66102c136600461310a565b610615565b60405190151581526020016102aa565b600854610296906001600160a01b031681565b6102fc6102f7366004613150565b61064c565b005b6102fc61030c3660046131f8565b610d47565b600c54610296906001600160a01b031681565b600f54610296906001600160a01b031681565b61035b61034536600461328f565b6000908152600160208190526040909120015490565b6040519081526020016102aa565b601054610296906001600160a01b031681565b6102fc61038a3660046132a8565b610de1565b6102fc61039d3660046132d4565b610e0c565b6102fc6103b03660046132a8565b6111cd565b6102967f000000000000000000000000000000000000000000000000000000000000000081565b6102fc611250565b61035b6000805160206136d783398151915281565b61035b60185481565b601254610296906001600160a01b031681565b600554610296906001600160a01b031681565b600a54610296906001600160a01b031681565b60005460ff166102c6565b600e54610296906001600160a01b031681565b6102fc6104673660046132ef565b611285565b6102fc61142f565b600254610296906001600160a01b031681565b601354610296906001600160a01b031681565b600754610296906001600160a01b031681565b601154610296906001600160a01b031681565b61035b60165481565b601454610296906001600160a01b031681565b6102c66104ea3660046132a8565b611461565b61035b600081565b600654610296906001600160a01b031681565b600454610296906001600160a01b031681565b600354610296906001600160a01b031681565b600d54610296906001600160a01b031681565b6102fc610551366004613311565b61148c565b6102fc6105643660046132d4565b61177c565b6102fc6105773660046132a8565b611937565b6102fc61058a366004613311565b61195d565b600b54610296906001600160a01b031681565b61035b7f65d7a28e3265b37a6474929f336521b332c1681b933f6cb9f3376673440d862a81565b61035b60155481565b61035b60175481565b6102fc6105e93660046132d4565b61236b565b6102967f000000000000000000000000000000000000000000000000000000000000000081565b60006001600160e01b03198216637965db0b60e01b148061064657506301ffc9a760e01b6001600160e01b03198316145b92915050565b6000610657816123c1565b600280546001600160a01b03199081166001600160a01b038d8116919091179092556003805482168c84161790556004805482168b84161790556005805482168a8416179055600680548216898416179055600780548216888416179055600880548216878416179055600980548216868416179055600a805490911691841691909117905560006106e960196123cb565b67ffffffffffffffff8111156107015761070161333d565b60405190808252806020026020018201604052801561072a578160200160208202803683370190505b50905060005b61073a60196123cb565b8110156107885761074c6019826123d5565b82828151811061075e5761075e613353565b6001600160a01b0390921660209283029190910190910152806107808161337f565b915050610730565b5060005b81518110156107d5576107c28282815181106107aa576107aa613353565b602002602001015160196123e890919063ffffffff16565b50806107cd8161337f565b91505061078c565b506107e16019896123fd565b506107ed6019886123fd565b506107f96019876123fd565b506108056019866123fd565b506108116019856123fd565b5061081d6019846123fd565b50604051636eb1769f60e11b81523060048201526001600160a01b037f00000000000000000000000000000000000000000000000000000000000000008116602483015289169063dd62ed3e90604401602060405180830381865afa15801561088a573d6000803e3d6000fd5b505050506040513d601f19601f820116820180604052508101906108ae9190613398565b60000361094a5760405163095ea7b360e01b81526001600160a01b0389169063095ea7b390610905907f000000000000000000000000000000000000000000000000000000000000000090600019906004016133b1565b6020604051808303816000875af1158015610924573d6000803e3d6000fd5b505050506040513d601f19601f8201168201806040525081019061094891906133ca565b505b604051636eb1769f60e11b81523060048201526001600160a01b03868116602483015289169063dd62ed3e90604401602060405180830381865afa158015610996573d6000803e3d6000fd5b505050506040513d601f19601f820116820180604052508101906109ba9190613398565b600003610a365760405163095ea7b360e01b81526001600160a01b0389169063095ea7b3906109f1908890600019906004016133b1565b6020604051808303816000875af1158015610a10573d6000803e3d6000fd5b505050506040513d601f19601f82011682018060405250810190610a3491906133ca565b505b604051636eb1769f60e11b81523060048201526001600160a01b0389811660248301527f0000000000000000000000000000000000000000000000000000000000000000169063dd62ed3e90604401602060405180830381865afa158015610aa2573d6000803e3d6000fd5b505050506040513d601f19601f82011682018060405250810190610ac69190613398565b600003610b625760405163095ea7b360e01b81526001600160a01b037f0000000000000000000000000000000000000000000000000000000000000000169063095ea7b390610b1d908b90600019906004016133b1565b6020604051808303816000875af1158015610b3c573d6000803e3d6000fd5b505050506040513d601f19601f82011682018060405250810190610b6091906133ca565b505b604051636eb1769f60e11b81523060048201526001600160a01b03858116602483015288169063dd62ed3e90604401602060405180830381865afa158015610bae573d6000803e3d6000fd5b505050506040513d601f19601f82011682018060405250810190610bd29190613398565b600003610c4e5760405163095ea7b360e01b81526001600160a01b0388169063095ea7b390610c09908790600019906004016133b1565b6020604051808303816000875af1158015610c28573d6000803e3d6000fd5b505050506040513d601f19601f82011682018060405250810190610c4c91906133ca565b505b604051636eb1769f60e11b81523060048201526001600160a01b03848116602483015287169063dd62ed3e90604401602060405180830381865afa158015610c9a573d6000803e3d6000fd5b505050506040513d601f19601f82011682018060405250810190610cbe9190613398565b600003610d3a5760405163095ea7b360e01b81526001600160a01b0387169063095ea7b390610cf5908690600019906004016133b1565b6020604051808303816000875af1158015610d14573d6000803e3d6000fd5b505050506040513d601f19601f82011682018060405250810190610d3891906133ca565b505b5050505050505050505050565b6000610d52816123c1565b50600d80546001600160a01b03199081166001600160a01b039a8b1617909155600e80548216988a1698909817909755600f80548816968916969096179095556010805487169488169490941790935560118054861692871692909217909155601280548516918616919091179055601380548416918516919091179055601480549092169216919091179055565b60008281526001602081905260409091200154610dfd816123c1565b610e078383612412565b505050565b6000610e17816123c1565b600c80546001600160a01b0319166001600160a01b038481169190911790915560405163095ea7b360e01b81527f00000000000000000000000000000000000000000000000000000000000000009091169063095ea7b390610e81908590600019906004016133b1565b6020604051808303816000875af1158015610ea0573d6000803e3d6000fd5b505050506040513d601f19601f82011682018060405250810190610ec491906133ca565b5060055460405163095ea7b360e01b81526001600160a01b039091169063095ea7b390610ef9908590600019906004016133b1565b6020604051808303816000875af1158015610f18573d6000803e3d6000fd5b505050506040513d601f19601f82011682018060405250810190610f3c91906133ca565b5060065460405163095ea7b360e01b81526001600160a01b039091169063095ea7b390610f71908590600019906004016133b1565b6020604051808303816000875af1158015610f90573d6000803e3d6000fd5b505050506040513d601f19601f82011682018060405250810190610fb491906133ca565b5060075460405163095ea7b360e01b81526001600160a01b039091169063095ea7b390610fe9908590600019906004016133b1565b6020604051808303816000875af1158015611008573d6000803e3d6000fd5b505050506040513d601f19601f8201168201806040525081019061102c91906133ca565b5060085460405163095ea7b360e01b81526001600160a01b039091169063095ea7b390611061908590600019906004016133b1565b6020604051808303816000875af1158015611080573d6000803e3d6000fd5b505050506040513d601f19601f820116820180604052508101906110a491906133ca565b5060095460405163095ea7b360e01b81526001600160a01b039091169063095ea7b3906110d9908590600019906004016133b1565b6020604051808303816000875af11580156110f8573d6000803e3d6000fd5b505050506040513d601f19601f8201168201806040525081019061111c91906133ca565b50600a5460405163095ea7b360e01b81526001600160a01b039091169063095ea7b390611151908590600019906004016133b1565b6020604051808303816000875af1158015611170573d6000803e3d6000fd5b505050506040513d601f19601f8201168201806040525081019061119491906133ca565b506040516001600160a01b038316907f12253f2acf43b50ee8857d4bd1fa5235eaa8913ea096b42ab071ef64dcbe139f90600090a25050565b6001600160a01b03811633146112425760405162461bcd60e51b815260206004820152602f60248201527f416363657373436f6e74726f6c3a2063616e206f6e6c792072656e6f756e636560448201526e103937b632b9903337b91039b2b63360891b60648201526084015b60405180910390fd5b61124c828261247d565b5050565b7f65d7a28e3265b37a6474929f336521b332c1681b933f6cb9f3376673440d862a61127a816123c1565b6112826124e4565b50565b61128d612536565b6000805160206136d78339815191526112a5816123c1565b60155415610e0757600060026015546112be91906133ec565b60055460405163140e25ad60e31b8152600481018390529192506001600160a01b03169063a0712d6890602401600060405180830381600087803b15801561130557600080fd5b505af1158015611319573d6000803e3d6000fd5b505060055460405162e8e33760e81b81526001600160a01b037f000000000000000000000000000000000000000000000000000000000000000081166004830152918216602482015260448101859052606481018590526084810188905260a481018790523060c48201524260e4820152600093507f0000000000000000000000000000000000000000000000000000000000000000909116915063e8e3370090610104016060604051808303816000875af11580156113dd573d6000803e3d6000fd5b505050506040513d601f19601f82011682018060405250810190611401919061340e565b600b5460025491945061142393506001600160a01b039182169250168361257e565b50506000601555505050565b7f65d7a28e3265b37a6474929f336521b332c1681b933f6cb9f3376673440d862a611459816123c1565b6112826125d4565b60009182526001602090815260408084206001600160a01b0393909316845291905290205460ff1690565b611494612536565b6000805160206136d78339815191526114ac816123c1565b60005b6114b960196123cb565b81101561176a5760006114cd6019836123d5565b6005549091506000906001600160a01b0390811690831603611566576016546040516370a0823160e01b81523060048201526001600160a01b038416906370a08231906024015b602060405180830381865afa158015611531573d6000803e3d6000fd5b505050506040513d601f19601f820116820180604052508101906115559190613398565b61155f919061343c565b905061165b565b6006546001600160a01b03908116908316036115ab576017546040516370a0823160e01b81523060048201526001600160a01b038416906370a0823190602401611514565b6007546001600160a01b03908116908316036115f0576018546040516370a0823160e01b81523060048201526001600160a01b038416906370a0823190602401611514565b6040516370a0823160e01b81523060048201526001600160a01b038316906370a0823190602401602060405180830381865afa158015611634573d6000803e3d6000fd5b505050506040513d601f19601f820116820180604052508101906116589190613398565b90505b801561175557600d5461169b906001600160a01b03166127106116806101f485613453565b61168a91906133ec565b6001600160a01b038516919061257e565b600e546116ba906001600160a01b03166127106116806101f485613453565b600f546116d9906001600160a01b03166127106116806101f485613453565b6010546116f8906001600160a01b03166127106116806101f485613453565b601154611717906001600160a01b03166127106116806103e885613453565b601254611736906001600160a01b03166127106116806107d085613453565b601354611755906001600160a01b03166127106116806105dc85613453565b505080806117629061337f565b9150506114af565b50611776848484612611565b50505050565b6000611787816123c1565b6002546040516370a0823160e01b81523060048201526000916001600160a01b0316906370a0823190602401602060405180830381865afa1580156117d0573d6000803e3d6000fd5b505050506040513d601f19601f820116820180604052508101906117f49190613398565b9050801561181357600254611813906001600160a01b0316848361257e565b6003546040516370a0823160e01b81523060048201526000916001600160a01b0316906370a0823190602401602060405180830381865afa15801561185c573d6000803e3d6000fd5b505050506040513d601f19601f820116820180604052508101906118809190613398565b9050801561189f5760035461189f906001600160a01b0316858361257e565b600480546040516370a0823160e01b815230928101929092526000916001600160a01b03909116906370a0823190602401602060405180830381865afa1580156118ed573d6000803e3d6000fd5b505050506040513d601f19601f820116820180604052508101906119119190613398565b9050801561193057600454611930906001600160a01b0316868361257e565b5050505050565b60008281526001602081905260409091200154611953816123c1565b610e07838361247d565b611965612536565b6000805160206136d783398151915261197d816123c1565b6015546040516370a0823160e01b8152306004820152600091906001600160a01b037f000000000000000000000000000000000000000000000000000000000000000016906370a0823190602401602060405180830381865afa1580156119e8573d6000803e3d6000fd5b505050506040513d601f19601f82011682018060405250810190611a0c9190613398565b611a16919061343c565b90508015611930576040805160028082526060820183526000926020830190803683370190505090507f000000000000000000000000000000000000000000000000000000000000000081600081518110611a7357611a73613353565b6001600160a01b039283166020918202929092010152600654825191169082906001908110611aa457611aa4613353565b6001600160a01b03909216602092830291909101909101526000612710611acd61019085613453565b611ad791906133ec565b905060007f00000000000000000000000000000000000000000000000000000000000000006001600160a01b03166338ed1739838a8630426040518663ffffffff1660e01b8152600401611b2f959493929190613472565b6000604051808303816000875af1158015611b4e573d6000803e3d6000fd5b505050506040513d6000823e601f3d908101601f19168201604052611b7691908101906134e3565b60095460175482519293506001600160a01b0390911691829163a754e2dc9185906001908110611ba857611ba8613353565b6020026020010151611bba91906135a1565b6040518263ffffffff1660e01b8152600401611bd891815260200190565b602060405180830381865afa158015611bf5573d6000803e3d6000fd5b505050506040513d601f19601f82011682018060405250810190611c1991906133ca565b15611cee576000816001600160a01b0316631388e94860175485600181518110611c4557611c45613353565b6020026020010151611c5791906135a1565b6040518263ffffffff1660e01b8152600401611c7591815260200190565b6020604051808303816000875af1158015611c94573d6000803e3d6000fd5b505050506040513d601f19601f82011682018060405250810190611cb89190613398565b600b54909150611cda906001600160a01b031661271061168061138885613453565b60175415611ce85760006017555b50611d20565b81600181518110611d0157611d01613353565b602002602001015160176000828254611d1a91906135a1565b90915550505b60075484516001600160a01b039091169085906001908110611d4457611d44613353565b6001600160a01b03909216602092830291909101909101526000612710611d6d61019088613453565b611d7791906133ec565b6040516338ed173960e01b81529091506001600160a01b037f000000000000000000000000000000000000000000000000000000000000000016906338ed173990611dce9084908d908a9030904290600401613472565b6000604051808303816000875af1158015611ded573d6000803e3d6000fd5b505050506040513d6000823e601f3d908101601f19168201604052611e1591908101906134e3565b600a5460185482519295506001600160a01b0390911691829163a754e2dc9187906001908110611e4757611e47613353565b6020026020010151611e5991906135a1565b6040518263ffffffff1660e01b8152600401611e7791815260200190565b602060405180830381865afa158015611e94573d6000803e3d6000fd5b505050506040513d601f19601f82011682018060405250810190611eb891906133ca565b15611f8d576000816001600160a01b0316631388e94860185487600181518110611ee457611ee4613353565b6020026020010151611ef691906135a1565b6040518263ffffffff1660e01b8152600401611f1491815260200190565b6020604051808303816000875af1158015611f33573d6000803e3d6000fd5b505050506040513d601f19601f82011682018060405250810190611f579190613398565b600b54909150611f79906001600160a01b031661271061168061138885613453565b60185415611f875760006018555b50611fbf565b83600181518110611fa057611fa0613353565b602002602001015160186000828254611fb991906135a1565b90915550505b60055486516001600160a01b039091169087906001908110611fe357611fe3613353565b6001600160a01b0390921660209283029190910190910152600061271061200b60c88a613453565b61201591906133ec565b6040516338ed173960e01b81529091506001600160a01b037f000000000000000000000000000000000000000000000000000000000000000016906338ed17399061206c9084908e908c9030904290600401613472565b6000604051808303816000875af115801561208b573d6000803e3d6000fd5b505050506040513d6000823e601f3d908101601f191682016040526120b391908101906134e3565b60085460165482519297506001600160a01b0390911691829163a754e2dc91899060019081106120e5576120e5613353565b60200260200101516120f791906135a1565b6040518263ffffffff1660e01b815260040161211591815260200190565b602060405180830381865afa158015612132573d6000803e3d6000fd5b505050506040513d601f19601f8201168201806040525081019061215691906133ca565b15612226576000816001600160a01b0316631388e9486016548960018151811061218257612182613353565b602002602001015161219491906135a1565b6040518263ffffffff1660e01b81526004016121b291815260200190565b6020604051808303816000875af11580156121d1573d6000803e3d6000fd5b505050506040513d601f19601f820116820180604052508101906121f59190613398565b600b54909150612212906001600160a01b0384811691168361257e565b601654156122205760006016555b50612258565b8560018151811061223957612239613353565b60200260200101516016600082825461225291906135a1565b90915550505b6127106122676105dc8b613453565b61227191906133ec565b6015600082825461228291906135a1565b9091555050600c546001600160a01b03166303f451786127106122a76111948d613453565b6122b191906133ec565b6040518263ffffffff1660e01b81526004016122cf91815260200190565b600060405180830381600087803b1580156122e957600080fd5b505af11580156122fd573d6000803e3d6000fd5b505060145461235c92506001600160a01b03169050612710612321610bb88d613453565b61232b91906133ec565b6001600160a01b037f000000000000000000000000000000000000000000000000000000000000000016919061257e565b50505050505050505050505050565b6000612376816123c1565b600b80546001600160a01b0319166001600160a01b0384169081179091556040517fbf4bdb41556d5894f70dccbe0856fc420fe25c224db8065ccc7af6a9f0998c9290600090a25050565b6112828133612aec565b6000610646825490565b60006123e18383612b45565b9392505050565b60006123e1836001600160a01b038416612b6f565b60006123e1836001600160a01b038416612c62565b61241c8282611461565b61124c5760008281526001602081815260408084206001600160a01b0386168086529252808420805460ff19169093179092559051339285917f2f8788117e7eff1d82e926ec794901d17c78024a50270940304540a733656f0d9190a45050565b6124878282611461565b1561124c5760008281526001602090815260408083206001600160a01b0385168085529252808320805460ff1916905551339285917ff6391f5c32d9c69d2a47ea670b442974b53935d1edc7fd64eb21e047a839171b9190a45050565b6124ec612cb1565b6000805460ff191690557f5db9ee0a495bf2e6ff9c91a7834c1ba4fdd244a5e8aa4e537bd38aeae4b073aa335b6040516001600160a01b03909116815260200160405180910390a1565b60005460ff161561257c5760405162461bcd60e51b815260206004820152601060248201526f14185d5cd8589b194e881c185d5cd95960821b6044820152606401611239565b565b610e078363a9059cbb60e01b848460405160240161259d9291906133b1565b60408051601f198184030181529190526020810180516001600160e01b03166001600160e01b031990931692909217909152612cfa565b6125dc612536565b6000805460ff191660011790557f62e78cea01bee320cd4e420270b5ea74000d11b0c9f74754ebdbfc544b05a2586125193390565b6016546005546040516370a0823160e01b8152306004820152600092916001600160a01b0316906370a0823190602401602060405180830381865afa15801561265e573d6000803e3d6000fd5b505050506040513d601f19601f820116820180604052508101906126829190613398565b61268c919061343c565b6017546006546040516370a0823160e01b81523060048201529293506000926001600160a01b03909116906370a0823190602401602060405180830381865afa1580156126dd573d6000803e3d6000fd5b505050506040513d601f19601f820116820180604052508101906127019190613398565b61270b919061343c565b6018546007546040516370a0823160e01b81523060048201529293506000926001600160a01b03909116906370a0823190602401602060405180830381865afa15801561275c573d6000803e3d6000fd5b505050506040513d601f19601f820116820180604052508101906127809190613398565b61278a919061343c565b90508215158061279957508115155b806127a357508015155b8061281857506008546040516370a0823160e01b81523060048201526001600160a01b03909116906370a0823190602401602060405180830381865afa1580156127f1573d6000803e3d6000fd5b505050506040513d601f19601f820116820180604052508101906128159190613398565b15155b8061288d57506009546040516370a0823160e01b81523060048201526001600160a01b03909116906370a0823190602401602060405180830381865afa158015612866573d6000803e3d6000fd5b505050506040513d601f19601f8201168201806040525081019061288a9190613398565b15155b806129025750600a546040516370a0823160e01b81523060048201526001600160a01b03909116906370a0823190602401602060405180830381865afa1580156128db573d6000803e3d6000fd5b505050506040513d601f19601f820116820180604052508101906128ff9190613398565b15155b15612ae457600c546008546040516370a0823160e01b81523060048201526001600160a01b03928316926312411bc19287928792879216906370a0823190602401602060405180830381865afa158015612960573d6000803e3d6000fd5b505050506040513d601f19601f820116820180604052508101906129849190613398565b6009546040516370a0823160e01b81523060048201526001600160a01b03909116906370a0823190602401602060405180830381865afa1580156129cc573d6000803e3d6000fd5b505050506040513d601f19601f820116820180604052508101906129f09190613398565b600a546040516370a0823160e01b81523060048201526001600160a01b03909116906370a0823190602401602060405180830381865afa158015612a38573d6000803e3d6000fd5b505050506040513d601f19601f82011682018060405250810190612a5c9190613398565b6040516001600160e01b031960e089901b1681526004810196909652602486019490945260448501929092526064840152608483015260a482015260c4810189905260e48101889052610104810187905261012401600060405180830381600087803b158015612acb57600080fd5b505af1158015612adf573d6000803e3d6000fd5b505050505b505050505050565b612af68282611461565b61124c57612b0381612dcc565b612b0e836020612dde565b604051602001612b1f9291906135e5565b60408051601f198184030181529082905262461bcd60e51b82526112399160040161365a565b6000826000018281548110612b5c57612b5c613353565b9060005260206000200154905092915050565b60008181526001830160205260408120548015612c58576000612b9360018361343c565b8554909150600090612ba79060019061343c565b9050818114612c0c576000866000018281548110612bc757612bc7613353565b9060005260206000200154905080876000018481548110612bea57612bea613353565b6000918252602080832090910192909255918252600188019052604090208390555b8554869080612c1d57612c1d61368d565b600190038181906000526020600020016000905590558560010160008681526020019081526020016000206000905560019350505050610646565b6000915050610646565b6000818152600183016020526040812054612ca957508154600181810184556000848152602080822090930184905584548482528286019093526040902091909155610646565b506000610646565b60005460ff1661257c5760405162461bcd60e51b815260206004820152601460248201527314185d5cd8589b194e881b9bdd081c185d5cd95960621b6044820152606401611239565b6000612d4f826040518060400160405280602081526020017f5361666545524332303a206c6f772d6c6576656c2063616c6c206661696c6564815250856001600160a01b0316612f7a9092919063ffffffff16565b805190915015610e075780806020019051810190612d6d91906133ca565b610e075760405162461bcd60e51b815260206004820152602a60248201527f5361666545524332303a204552433230206f7065726174696f6e20646964206e6044820152691bdd081cdd58d8d9595960b21b6064820152608401611239565b60606106466001600160a01b03831660145b60606000612ded836002613453565b612df89060026135a1565b67ffffffffffffffff811115612e1057612e1061333d565b6040519080825280601f01601f191660200182016040528015612e3a576020820181803683370190505b509050600360fc1b81600081518110612e5557612e55613353565b60200101906001600160f81b031916908160001a905350600f60fb1b81600181518110612e8457612e84613353565b60200101906001600160f81b031916908160001a9053506000612ea8846002613453565b612eb39060016135a1565b90505b6001811115612f2b576f181899199a1a9b1b9c1cb0b131b232b360811b85600f1660108110612ee757612ee7613353565b1a60f81b828281518110612efd57612efd613353565b60200101906001600160f81b031916908160001a90535060049490941c93612f24816136a3565b9050612eb6565b5083156123e15760405162461bcd60e51b815260206004820181905260248201527f537472696e67733a20686578206c656e67746820696e73756666696369656e746044820152606401611239565b6060612f898484600085612f91565b949350505050565b606082471015612ff25760405162461bcd60e51b815260206004820152602660248201527f416464726573733a20696e73756666696369656e742062616c616e636520666f6044820152651c8818d85b1b60d21b6064820152608401611239565b600080866001600160a01b0316858760405161300e91906136ba565b60006040518083038185875af1925050503d806000811461304b576040519150601f19603f3d011682016040523d82523d6000602084013e613050565b606091505b50915091506130618783838761306c565b979650505050505050565b606083156130db5782516000036130d4576001600160a01b0385163b6130d45760405162461bcd60e51b815260206004820152601d60248201527f416464726573733a2063616c6c20746f206e6f6e2d636f6e74726163740000006044820152606401611239565b5081612f89565b612f8983838151156130f05781518083602001fd5b8060405162461bcd60e51b8152600401611239919061365a565b60006020828403121561311c57600080fd5b81356001600160e01b0319811681146123e157600080fd5b80356001600160a01b038116811461314b57600080fd5b919050565b60008060008060008060008060006101208a8c03121561316f57600080fd5b6131788a613134565b985061318660208b01613134565b975061319460408b01613134565b96506131a260608b01613134565b95506131b060808b01613134565b94506131be60a08b01613134565b93506131cc60c08b01613134565b92506131da60e08b01613134565b91506131e96101008b01613134565b90509295985092959850929598565b600080600080600080600080610100898b03121561321557600080fd5b61321e89613134565b975061322c60208a01613134565b965061323a60408a01613134565b955061324860608a01613134565b945061325660808a01613134565b935061326460a08a01613134565b925061327260c08a01613134565b915061328060e08a01613134565b90509295985092959890939650565b6000602082840312156132a157600080fd5b5035919050565b600080604083850312156132bb57600080fd5b823591506132cb60208401613134565b90509250929050565b6000602082840312156132e657600080fd5b6123e182613134565b6000806040838503121561330257600080fd5b50508035926020909101359150565b60008060006060848603121561332657600080fd5b505081359360208301359350604090920135919050565b634e487b7160e01b600052604160045260246000fd5b634e487b7160e01b600052603260045260246000fd5b634e487b7160e01b600052601160045260246000fd5b60006001820161339157613391613369565b5060010190565b6000602082840312156133aa57600080fd5b5051919050565b6001600160a01b03929092168252602082015260400190565b6000602082840312156133dc57600080fd5b815180151581146123e157600080fd5b60008261340957634e487b7160e01b600052601260045260246000fd5b500490565b60008060006060848603121561342357600080fd5b8351925060208401519150604084015190509250925092565b60008282101561344e5761344e613369565b500390565b600081600019048311821515161561346d5761346d613369565b500290565b600060a082018783526020878185015260a0604085015281875180845260c086019150828901935060005b818110156134c25784516001600160a01b03168352938301939183019160010161349d565b50506001600160a01b03969096166060850152505050608001529392505050565b600060208083850312156134f657600080fd5b825167ffffffffffffffff8082111561350e57600080fd5b818501915085601f83011261352257600080fd5b8151818111156135345761353461333d565b8060051b604051601f19603f830116810181811085821117156135595761355961333d565b60405291825284820192508381018501918883111561357757600080fd5b938501935b828510156135955784518452938501939285019261357c565b98975050505050505050565b600082198211156135b4576135b4613369565b500190565b60005b838110156135d45781810151838201526020016135bc565b838111156117765750506000910152565b7f416363657373436f6e74726f6c3a206163636f756e742000000000000000000081526000835161361d8160178501602088016135b9565b7001034b99036b4b9b9b4b733903937b6329607d1b601791840191820152835161364e8160288401602088016135b9565b01602801949350505050565b60208152600082518060208401526136798160408501602087016135b9565b601f01601f19169190910160400192915050565b634e487b7160e01b600052603160045260246000fd5b6000816136b2576136b2613369565b506000190190565b600082516136cc8184602087016135b9565b919091019291505056fed565e3fc066df348a5cbc05a8d6323e00552838041cea2d84cc59876ba37735da26469706673582212207ebdc334dadefccc72aa1e347c5157c48184e2aa4b9398d674bf1857791e072b64736f6c634300080f0033",
  "linkReferences": {},
  "deployedLinkReferences": {}
}